
ADC.elf:     file format elf32-littlearm

Sections:
Idx Name          Size      VMA       LMA       File off  Algn
  0 .isr_vector   00000188  08000000  08000000  00010000  2**0
                  CONTENTS, ALLOC, LOAD, READONLY, DATA
  1 .text         00003db0  08000188  08000188  00010188  2**2
                  CONTENTS, ALLOC, LOAD, READONLY, CODE
  2 .rodata       00000014  08003f38  08003f38  00013f38  2**2
                  CONTENTS, ALLOC, LOAD, READONLY, DATA
  3 .ARM.extab    00000000  08003f4c  08003f4c  0002000c  2**0
                  CONTENTS
  4 .ARM          00000008  08003f4c  08003f4c  00013f4c  2**2
                  CONTENTS, ALLOC, LOAD, READONLY, DATA
  5 .preinit_array 00000000  08003f54  08003f54  0002000c  2**0
                  CONTENTS, ALLOC, LOAD, DATA
  6 .init_array   00000004  08003f54  08003f54  00013f54  2**2
                  CONTENTS, ALLOC, LOAD, DATA
  7 .fini_array   00000004  08003f58  08003f58  00013f58  2**2
                  CONTENTS, ALLOC, LOAD, DATA
  8 .data         0000000c  20000000  08003f5c  00020000  2**2
                  CONTENTS, ALLOC, LOAD, DATA
  9 .ccmram       00000000  10000000  10000000  0002000c  2**0
                  CONTENTS
 10 .bss          0000018c  2000000c  2000000c  0002000c  2**2
                  ALLOC
 11 ._user_heap_stack 00000600  20000198  20000198  0002000c  2**0
                  ALLOC
 12 .ARM.attributes 00000030  00000000  00000000  0002000c  2**0
                  CONTENTS, READONLY
 13 .debug_info   0000ac5c  00000000  00000000  0002003c  2**0
                  CONTENTS, READONLY, DEBUGGING, OCTETS
 14 .debug_abbrev 000017cc  00000000  00000000  0002ac98  2**0
                  CONTENTS, READONLY, DEBUGGING, OCTETS
 15 .debug_aranges 00000a78  00000000  00000000  0002c468  2**3
                  CONTENTS, READONLY, DEBUGGING, OCTETS
 16 .debug_ranges 000009c0  00000000  00000000  0002cee0  2**3
                  CONTENTS, READONLY, DEBUGGING, OCTETS
 17 .debug_macro  00020ff1  00000000  00000000  0002d8a0  2**0
                  CONTENTS, READONLY, DEBUGGING, OCTETS
 18 .debug_line   0000b4de  00000000  00000000  0004e891  2**0
                  CONTENTS, READONLY, DEBUGGING, OCTETS
 19 .debug_str    000d10cd  00000000  00000000  00059d6f  2**0
                  CONTENTS, READONLY, DEBUGGING, OCTETS
 20 .comment      00000053  00000000  00000000  0012ae3c  2**0
                  CONTENTS, READONLY
 21 .debug_frame  00002d00  00000000  00000000  0012ae90  2**2
                  CONTENTS, READONLY, DEBUGGING, OCTETS

Disassembly of section .text:

08000188 <__do_global_dtors_aux>:
 8000188:	b510      	push	{r4, lr}
 800018a:	4c05      	ldr	r4, [pc, #20]	; (80001a0 <__do_global_dtors_aux+0x18>)
 800018c:	7823      	ldrb	r3, [r4, #0]
 800018e:	b933      	cbnz	r3, 800019e <__do_global_dtors_aux+0x16>
 8000190:	4b04      	ldr	r3, [pc, #16]	; (80001a4 <__do_global_dtors_aux+0x1c>)
 8000192:	b113      	cbz	r3, 800019a <__do_global_dtors_aux+0x12>
 8000194:	4804      	ldr	r0, [pc, #16]	; (80001a8 <__do_global_dtors_aux+0x20>)
 8000196:	f3af 8000 	nop.w
 800019a:	2301      	movs	r3, #1
 800019c:	7023      	strb	r3, [r4, #0]
 800019e:	bd10      	pop	{r4, pc}
 80001a0:	2000000c 	.word	0x2000000c
 80001a4:	00000000 	.word	0x00000000
 80001a8:	08003f20 	.word	0x08003f20

080001ac <frame_dummy>:
 80001ac:	b508      	push	{r3, lr}
 80001ae:	4b03      	ldr	r3, [pc, #12]	; (80001bc <frame_dummy+0x10>)
 80001b0:	b11b      	cbz	r3, 80001ba <frame_dummy+0xe>
 80001b2:	4903      	ldr	r1, [pc, #12]	; (80001c0 <frame_dummy+0x14>)
 80001b4:	4803      	ldr	r0, [pc, #12]	; (80001c4 <frame_dummy+0x18>)
 80001b6:	f3af 8000 	nop.w
 80001ba:	bd08      	pop	{r3, pc}
 80001bc:	00000000 	.word	0x00000000
 80001c0:	20000010 	.word	0x20000010
 80001c4:	08003f20 	.word	0x08003f20

080001c8 <__aeabi_drsub>:
 80001c8:	f081 4100 	eor.w	r1, r1, #2147483648	; 0x80000000
 80001cc:	e002      	b.n	80001d4 <__adddf3>
 80001ce:	bf00      	nop

080001d0 <__aeabi_dsub>:
 80001d0:	f083 4300 	eor.w	r3, r3, #2147483648	; 0x80000000

080001d4 <__adddf3>:
 80001d4:	b530      	push	{r4, r5, lr}
 80001d6:	ea4f 0441 	mov.w	r4, r1, lsl #1
 80001da:	ea4f 0543 	mov.w	r5, r3, lsl #1
 80001de:	ea94 0f05 	teq	r4, r5
 80001e2:	bf08      	it	eq
 80001e4:	ea90 0f02 	teqeq	r0, r2
 80001e8:	bf1f      	itttt	ne
 80001ea:	ea54 0c00 	orrsne.w	ip, r4, r0
 80001ee:	ea55 0c02 	orrsne.w	ip, r5, r2
 80001f2:	ea7f 5c64 	mvnsne.w	ip, r4, asr #21
 80001f6:	ea7f 5c65 	mvnsne.w	ip, r5, asr #21
 80001fa:	f000 80e2 	beq.w	80003c2 <__adddf3+0x1ee>
 80001fe:	ea4f 5454 	mov.w	r4, r4, lsr #21
 8000202:	ebd4 5555 	rsbs	r5, r4, r5, lsr #21
 8000206:	bfb8      	it	lt
 8000208:	426d      	neglt	r5, r5
 800020a:	dd0c      	ble.n	8000226 <__adddf3+0x52>
 800020c:	442c      	add	r4, r5
 800020e:	ea80 0202 	eor.w	r2, r0, r2
 8000212:	ea81 0303 	eor.w	r3, r1, r3
 8000216:	ea82 0000 	eor.w	r0, r2, r0
 800021a:	ea83 0101 	eor.w	r1, r3, r1
 800021e:	ea80 0202 	eor.w	r2, r0, r2
 8000222:	ea81 0303 	eor.w	r3, r1, r3
 8000226:	2d36      	cmp	r5, #54	; 0x36
 8000228:	bf88      	it	hi
 800022a:	bd30      	pophi	{r4, r5, pc}
 800022c:	f011 4f00 	tst.w	r1, #2147483648	; 0x80000000
 8000230:	ea4f 3101 	mov.w	r1, r1, lsl #12
 8000234:	f44f 1c80 	mov.w	ip, #1048576	; 0x100000
 8000238:	ea4c 3111 	orr.w	r1, ip, r1, lsr #12
 800023c:	d002      	beq.n	8000244 <__adddf3+0x70>
 800023e:	4240      	negs	r0, r0
 8000240:	eb61 0141 	sbc.w	r1, r1, r1, lsl #1
 8000244:	f013 4f00 	tst.w	r3, #2147483648	; 0x80000000
 8000248:	ea4f 3303 	mov.w	r3, r3, lsl #12
 800024c:	ea4c 3313 	orr.w	r3, ip, r3, lsr #12
 8000250:	d002      	beq.n	8000258 <__adddf3+0x84>
 8000252:	4252      	negs	r2, r2
 8000254:	eb63 0343 	sbc.w	r3, r3, r3, lsl #1
 8000258:	ea94 0f05 	teq	r4, r5
 800025c:	f000 80a7 	beq.w	80003ae <__adddf3+0x1da>
 8000260:	f1a4 0401 	sub.w	r4, r4, #1
 8000264:	f1d5 0e20 	rsbs	lr, r5, #32
 8000268:	db0d      	blt.n	8000286 <__adddf3+0xb2>
 800026a:	fa02 fc0e 	lsl.w	ip, r2, lr
 800026e:	fa22 f205 	lsr.w	r2, r2, r5
 8000272:	1880      	adds	r0, r0, r2
 8000274:	f141 0100 	adc.w	r1, r1, #0
 8000278:	fa03 f20e 	lsl.w	r2, r3, lr
 800027c:	1880      	adds	r0, r0, r2
 800027e:	fa43 f305 	asr.w	r3, r3, r5
 8000282:	4159      	adcs	r1, r3
 8000284:	e00e      	b.n	80002a4 <__adddf3+0xd0>
 8000286:	f1a5 0520 	sub.w	r5, r5, #32
 800028a:	f10e 0e20 	add.w	lr, lr, #32
 800028e:	2a01      	cmp	r2, #1
 8000290:	fa03 fc0e 	lsl.w	ip, r3, lr
 8000294:	bf28      	it	cs
 8000296:	f04c 0c02 	orrcs.w	ip, ip, #2
 800029a:	fa43 f305 	asr.w	r3, r3, r5
 800029e:	18c0      	adds	r0, r0, r3
 80002a0:	eb51 71e3 	adcs.w	r1, r1, r3, asr #31
 80002a4:	f001 4500 	and.w	r5, r1, #2147483648	; 0x80000000
 80002a8:	d507      	bpl.n	80002ba <__adddf3+0xe6>
 80002aa:	f04f 0e00 	mov.w	lr, #0
 80002ae:	f1dc 0c00 	rsbs	ip, ip, #0
 80002b2:	eb7e 0000 	sbcs.w	r0, lr, r0
 80002b6:	eb6e 0101 	sbc.w	r1, lr, r1
 80002ba:	f5b1 1f80 	cmp.w	r1, #1048576	; 0x100000
 80002be:	d31b      	bcc.n	80002f8 <__adddf3+0x124>
 80002c0:	f5b1 1f00 	cmp.w	r1, #2097152	; 0x200000
 80002c4:	d30c      	bcc.n	80002e0 <__adddf3+0x10c>
 80002c6:	0849      	lsrs	r1, r1, #1
 80002c8:	ea5f 0030 	movs.w	r0, r0, rrx
 80002cc:	ea4f 0c3c 	mov.w	ip, ip, rrx
 80002d0:	f104 0401 	add.w	r4, r4, #1
 80002d4:	ea4f 5244 	mov.w	r2, r4, lsl #21
 80002d8:	f512 0f80 	cmn.w	r2, #4194304	; 0x400000
 80002dc:	f080 809a 	bcs.w	8000414 <__adddf3+0x240>
 80002e0:	f1bc 4f00 	cmp.w	ip, #2147483648	; 0x80000000
 80002e4:	bf08      	it	eq
 80002e6:	ea5f 0c50 	movseq.w	ip, r0, lsr #1
 80002ea:	f150 0000 	adcs.w	r0, r0, #0
 80002ee:	eb41 5104 	adc.w	r1, r1, r4, lsl #20
 80002f2:	ea41 0105 	orr.w	r1, r1, r5
 80002f6:	bd30      	pop	{r4, r5, pc}
 80002f8:	ea5f 0c4c 	movs.w	ip, ip, lsl #1
 80002fc:	4140      	adcs	r0, r0
 80002fe:	eb41 0101 	adc.w	r1, r1, r1
 8000302:	3c01      	subs	r4, #1
 8000304:	bf28      	it	cs
 8000306:	f5b1 1f80 	cmpcs.w	r1, #1048576	; 0x100000
 800030a:	d2e9      	bcs.n	80002e0 <__adddf3+0x10c>
 800030c:	f091 0f00 	teq	r1, #0
 8000310:	bf04      	itt	eq
 8000312:	4601      	moveq	r1, r0
 8000314:	2000      	moveq	r0, #0
 8000316:	fab1 f381 	clz	r3, r1
 800031a:	bf08      	it	eq
 800031c:	3320      	addeq	r3, #32
 800031e:	f1a3 030b 	sub.w	r3, r3, #11
 8000322:	f1b3 0220 	subs.w	r2, r3, #32
 8000326:	da0c      	bge.n	8000342 <__adddf3+0x16e>
 8000328:	320c      	adds	r2, #12
 800032a:	dd08      	ble.n	800033e <__adddf3+0x16a>
 800032c:	f102 0c14 	add.w	ip, r2, #20
 8000330:	f1c2 020c 	rsb	r2, r2, #12
 8000334:	fa01 f00c 	lsl.w	r0, r1, ip
 8000338:	fa21 f102 	lsr.w	r1, r1, r2
 800033c:	e00c      	b.n	8000358 <__adddf3+0x184>
 800033e:	f102 0214 	add.w	r2, r2, #20
 8000342:	bfd8      	it	le
 8000344:	f1c2 0c20 	rsble	ip, r2, #32
 8000348:	fa01 f102 	lsl.w	r1, r1, r2
 800034c:	fa20 fc0c 	lsr.w	ip, r0, ip
 8000350:	bfdc      	itt	le
 8000352:	ea41 010c 	orrle.w	r1, r1, ip
 8000356:	4090      	lslle	r0, r2
 8000358:	1ae4      	subs	r4, r4, r3
 800035a:	bfa2      	ittt	ge
 800035c:	eb01 5104 	addge.w	r1, r1, r4, lsl #20
 8000360:	4329      	orrge	r1, r5
 8000362:	bd30      	popge	{r4, r5, pc}
 8000364:	ea6f 0404 	mvn.w	r4, r4
 8000368:	3c1f      	subs	r4, #31
 800036a:	da1c      	bge.n	80003a6 <__adddf3+0x1d2>
 800036c:	340c      	adds	r4, #12
 800036e:	dc0e      	bgt.n	800038e <__adddf3+0x1ba>
 8000370:	f104 0414 	add.w	r4, r4, #20
 8000374:	f1c4 0220 	rsb	r2, r4, #32
 8000378:	fa20 f004 	lsr.w	r0, r0, r4
 800037c:	fa01 f302 	lsl.w	r3, r1, r2
 8000380:	ea40 0003 	orr.w	r0, r0, r3
 8000384:	fa21 f304 	lsr.w	r3, r1, r4
 8000388:	ea45 0103 	orr.w	r1, r5, r3
 800038c:	bd30      	pop	{r4, r5, pc}
 800038e:	f1c4 040c 	rsb	r4, r4, #12
 8000392:	f1c4 0220 	rsb	r2, r4, #32
 8000396:	fa20 f002 	lsr.w	r0, r0, r2
 800039a:	fa01 f304 	lsl.w	r3, r1, r4
 800039e:	ea40 0003 	orr.w	r0, r0, r3
 80003a2:	4629      	mov	r1, r5
 80003a4:	bd30      	pop	{r4, r5, pc}
 80003a6:	fa21 f004 	lsr.w	r0, r1, r4
 80003aa:	4629      	mov	r1, r5
 80003ac:	bd30      	pop	{r4, r5, pc}
 80003ae:	f094 0f00 	teq	r4, #0
 80003b2:	f483 1380 	eor.w	r3, r3, #1048576	; 0x100000
 80003b6:	bf06      	itte	eq
 80003b8:	f481 1180 	eoreq.w	r1, r1, #1048576	; 0x100000
 80003bc:	3401      	addeq	r4, #1
 80003be:	3d01      	subne	r5, #1
 80003c0:	e74e      	b.n	8000260 <__adddf3+0x8c>
 80003c2:	ea7f 5c64 	mvns.w	ip, r4, asr #21
 80003c6:	bf18      	it	ne
 80003c8:	ea7f 5c65 	mvnsne.w	ip, r5, asr #21
 80003cc:	d029      	beq.n	8000422 <__adddf3+0x24e>
 80003ce:	ea94 0f05 	teq	r4, r5
 80003d2:	bf08      	it	eq
 80003d4:	ea90 0f02 	teqeq	r0, r2
 80003d8:	d005      	beq.n	80003e6 <__adddf3+0x212>
 80003da:	ea54 0c00 	orrs.w	ip, r4, r0
 80003de:	bf04      	itt	eq
 80003e0:	4619      	moveq	r1, r3
 80003e2:	4610      	moveq	r0, r2
 80003e4:	bd30      	pop	{r4, r5, pc}
 80003e6:	ea91 0f03 	teq	r1, r3
 80003ea:	bf1e      	ittt	ne
 80003ec:	2100      	movne	r1, #0
 80003ee:	2000      	movne	r0, #0
 80003f0:	bd30      	popne	{r4, r5, pc}
 80003f2:	ea5f 5c54 	movs.w	ip, r4, lsr #21
 80003f6:	d105      	bne.n	8000404 <__adddf3+0x230>
 80003f8:	0040      	lsls	r0, r0, #1
 80003fa:	4149      	adcs	r1, r1
 80003fc:	bf28      	it	cs
 80003fe:	f041 4100 	orrcs.w	r1, r1, #2147483648	; 0x80000000
 8000402:	bd30      	pop	{r4, r5, pc}
 8000404:	f514 0480 	adds.w	r4, r4, #4194304	; 0x400000
 8000408:	bf3c      	itt	cc
 800040a:	f501 1180 	addcc.w	r1, r1, #1048576	; 0x100000
 800040e:	bd30      	popcc	{r4, r5, pc}
 8000410:	f001 4500 	and.w	r5, r1, #2147483648	; 0x80000000
 8000414:	f045 41fe 	orr.w	r1, r5, #2130706432	; 0x7f000000
 8000418:	f441 0170 	orr.w	r1, r1, #15728640	; 0xf00000
 800041c:	f04f 0000 	mov.w	r0, #0
 8000420:	bd30      	pop	{r4, r5, pc}
 8000422:	ea7f 5c64 	mvns.w	ip, r4, asr #21
 8000426:	bf1a      	itte	ne
 8000428:	4619      	movne	r1, r3
 800042a:	4610      	movne	r0, r2
 800042c:	ea7f 5c65 	mvnseq.w	ip, r5, asr #21
 8000430:	bf1c      	itt	ne
 8000432:	460b      	movne	r3, r1
 8000434:	4602      	movne	r2, r0
 8000436:	ea50 3401 	orrs.w	r4, r0, r1, lsl #12
 800043a:	bf06      	itte	eq
 800043c:	ea52 3503 	orrseq.w	r5, r2, r3, lsl #12
 8000440:	ea91 0f03 	teqeq	r1, r3
 8000444:	f441 2100 	orrne.w	r1, r1, #524288	; 0x80000
 8000448:	bd30      	pop	{r4, r5, pc}
 800044a:	bf00      	nop

0800044c <__aeabi_ui2d>:
 800044c:	f090 0f00 	teq	r0, #0
 8000450:	bf04      	itt	eq
 8000452:	2100      	moveq	r1, #0
 8000454:	4770      	bxeq	lr
 8000456:	b530      	push	{r4, r5, lr}
 8000458:	f44f 6480 	mov.w	r4, #1024	; 0x400
 800045c:	f104 0432 	add.w	r4, r4, #50	; 0x32
 8000460:	f04f 0500 	mov.w	r5, #0
 8000464:	f04f 0100 	mov.w	r1, #0
 8000468:	e750      	b.n	800030c <__adddf3+0x138>
 800046a:	bf00      	nop

0800046c <__aeabi_i2d>:
 800046c:	f090 0f00 	teq	r0, #0
 8000470:	bf04      	itt	eq
 8000472:	2100      	moveq	r1, #0
 8000474:	4770      	bxeq	lr
 8000476:	b530      	push	{r4, r5, lr}
 8000478:	f44f 6480 	mov.w	r4, #1024	; 0x400
 800047c:	f104 0432 	add.w	r4, r4, #50	; 0x32
 8000480:	f010 4500 	ands.w	r5, r0, #2147483648	; 0x80000000
 8000484:	bf48      	it	mi
 8000486:	4240      	negmi	r0, r0
 8000488:	f04f 0100 	mov.w	r1, #0
 800048c:	e73e      	b.n	800030c <__adddf3+0x138>
 800048e:	bf00      	nop

08000490 <__aeabi_f2d>:
 8000490:	0042      	lsls	r2, r0, #1
 8000492:	ea4f 01e2 	mov.w	r1, r2, asr #3
 8000496:	ea4f 0131 	mov.w	r1, r1, rrx
 800049a:	ea4f 7002 	mov.w	r0, r2, lsl #28
 800049e:	bf1f      	itttt	ne
 80004a0:	f012 437f 	andsne.w	r3, r2, #4278190080	; 0xff000000
 80004a4:	f093 4f7f 	teqne	r3, #4278190080	; 0xff000000
 80004a8:	f081 5160 	eorne.w	r1, r1, #939524096	; 0x38000000
 80004ac:	4770      	bxne	lr
 80004ae:	f032 427f 	bics.w	r2, r2, #4278190080	; 0xff000000
 80004b2:	bf08      	it	eq
 80004b4:	4770      	bxeq	lr
 80004b6:	f093 4f7f 	teq	r3, #4278190080	; 0xff000000
 80004ba:	bf04      	itt	eq
 80004bc:	f441 2100 	orreq.w	r1, r1, #524288	; 0x80000
 80004c0:	4770      	bxeq	lr
 80004c2:	b530      	push	{r4, r5, lr}
 80004c4:	f44f 7460 	mov.w	r4, #896	; 0x380
 80004c8:	f001 4500 	and.w	r5, r1, #2147483648	; 0x80000000
 80004cc:	f021 4100 	bic.w	r1, r1, #2147483648	; 0x80000000
 80004d0:	e71c      	b.n	800030c <__adddf3+0x138>
 80004d2:	bf00      	nop

080004d4 <__aeabi_ul2d>:
 80004d4:	ea50 0201 	orrs.w	r2, r0, r1
 80004d8:	bf08      	it	eq
 80004da:	4770      	bxeq	lr
 80004dc:	b530      	push	{r4, r5, lr}
 80004de:	f04f 0500 	mov.w	r5, #0
 80004e2:	e00a      	b.n	80004fa <__aeabi_l2d+0x16>

080004e4 <__aeabi_l2d>:
 80004e4:	ea50 0201 	orrs.w	r2, r0, r1
 80004e8:	bf08      	it	eq
 80004ea:	4770      	bxeq	lr
 80004ec:	b530      	push	{r4, r5, lr}
 80004ee:	f011 4500 	ands.w	r5, r1, #2147483648	; 0x80000000
 80004f2:	d502      	bpl.n	80004fa <__aeabi_l2d+0x16>
 80004f4:	4240      	negs	r0, r0
 80004f6:	eb61 0141 	sbc.w	r1, r1, r1, lsl #1
 80004fa:	f44f 6480 	mov.w	r4, #1024	; 0x400
 80004fe:	f104 0432 	add.w	r4, r4, #50	; 0x32
 8000502:	ea5f 5c91 	movs.w	ip, r1, lsr #22
 8000506:	f43f aed8 	beq.w	80002ba <__adddf3+0xe6>
 800050a:	f04f 0203 	mov.w	r2, #3
 800050e:	ea5f 0cdc 	movs.w	ip, ip, lsr #3
 8000512:	bf18      	it	ne
 8000514:	3203      	addne	r2, #3
 8000516:	ea5f 0cdc 	movs.w	ip, ip, lsr #3
 800051a:	bf18      	it	ne
 800051c:	3203      	addne	r2, #3
 800051e:	eb02 02dc 	add.w	r2, r2, ip, lsr #3
 8000522:	f1c2 0320 	rsb	r3, r2, #32
 8000526:	fa00 fc03 	lsl.w	ip, r0, r3
 800052a:	fa20 f002 	lsr.w	r0, r0, r2
 800052e:	fa01 fe03 	lsl.w	lr, r1, r3
 8000532:	ea40 000e 	orr.w	r0, r0, lr
 8000536:	fa21 f102 	lsr.w	r1, r1, r2
 800053a:	4414      	add	r4, r2
 800053c:	e6bd      	b.n	80002ba <__adddf3+0xe6>
 800053e:	bf00      	nop

08000540 <__aeabi_dmul>:
 8000540:	b570      	push	{r4, r5, r6, lr}
 8000542:	f04f 0cff 	mov.w	ip, #255	; 0xff
 8000546:	f44c 6ce0 	orr.w	ip, ip, #1792	; 0x700
 800054a:	ea1c 5411 	ands.w	r4, ip, r1, lsr #20
 800054e:	bf1d      	ittte	ne
 8000550:	ea1c 5513 	andsne.w	r5, ip, r3, lsr #20
 8000554:	ea94 0f0c 	teqne	r4, ip
 8000558:	ea95 0f0c 	teqne	r5, ip
 800055c:	f000 f8de 	bleq	800071c <__aeabi_dmul+0x1dc>
 8000560:	442c      	add	r4, r5
 8000562:	ea81 0603 	eor.w	r6, r1, r3
 8000566:	ea21 514c 	bic.w	r1, r1, ip, lsl #21
 800056a:	ea23 534c 	bic.w	r3, r3, ip, lsl #21
 800056e:	ea50 3501 	orrs.w	r5, r0, r1, lsl #12
 8000572:	bf18      	it	ne
 8000574:	ea52 3503 	orrsne.w	r5, r2, r3, lsl #12
 8000578:	f441 1180 	orr.w	r1, r1, #1048576	; 0x100000
 800057c:	f443 1380 	orr.w	r3, r3, #1048576	; 0x100000
 8000580:	d038      	beq.n	80005f4 <__aeabi_dmul+0xb4>
 8000582:	fba0 ce02 	umull	ip, lr, r0, r2
 8000586:	f04f 0500 	mov.w	r5, #0
 800058a:	fbe1 e502 	umlal	lr, r5, r1, r2
 800058e:	f006 4200 	and.w	r2, r6, #2147483648	; 0x80000000
 8000592:	fbe0 e503 	umlal	lr, r5, r0, r3
 8000596:	f04f 0600 	mov.w	r6, #0
 800059a:	fbe1 5603 	umlal	r5, r6, r1, r3
 800059e:	f09c 0f00 	teq	ip, #0
 80005a2:	bf18      	it	ne
 80005a4:	f04e 0e01 	orrne.w	lr, lr, #1
 80005a8:	f1a4 04ff 	sub.w	r4, r4, #255	; 0xff
 80005ac:	f5b6 7f00 	cmp.w	r6, #512	; 0x200
 80005b0:	f564 7440 	sbc.w	r4, r4, #768	; 0x300
 80005b4:	d204      	bcs.n	80005c0 <__aeabi_dmul+0x80>
 80005b6:	ea5f 0e4e 	movs.w	lr, lr, lsl #1
 80005ba:	416d      	adcs	r5, r5
 80005bc:	eb46 0606 	adc.w	r6, r6, r6
 80005c0:	ea42 21c6 	orr.w	r1, r2, r6, lsl #11
 80005c4:	ea41 5155 	orr.w	r1, r1, r5, lsr #21
 80005c8:	ea4f 20c5 	mov.w	r0, r5, lsl #11
 80005cc:	ea40 505e 	orr.w	r0, r0, lr, lsr #21
 80005d0:	ea4f 2ece 	mov.w	lr, lr, lsl #11
 80005d4:	f1b4 0cfd 	subs.w	ip, r4, #253	; 0xfd
 80005d8:	bf88      	it	hi
 80005da:	f5bc 6fe0 	cmphi.w	ip, #1792	; 0x700
 80005de:	d81e      	bhi.n	800061e <__aeabi_dmul+0xde>
 80005e0:	f1be 4f00 	cmp.w	lr, #2147483648	; 0x80000000
 80005e4:	bf08      	it	eq
 80005e6:	ea5f 0e50 	movseq.w	lr, r0, lsr #1
 80005ea:	f150 0000 	adcs.w	r0, r0, #0
 80005ee:	eb41 5104 	adc.w	r1, r1, r4, lsl #20
 80005f2:	bd70      	pop	{r4, r5, r6, pc}
 80005f4:	f006 4600 	and.w	r6, r6, #2147483648	; 0x80000000
 80005f8:	ea46 0101 	orr.w	r1, r6, r1
 80005fc:	ea40 0002 	orr.w	r0, r0, r2
 8000600:	ea81 0103 	eor.w	r1, r1, r3
 8000604:	ebb4 045c 	subs.w	r4, r4, ip, lsr #1
 8000608:	bfc2      	ittt	gt
 800060a:	ebd4 050c 	rsbsgt	r5, r4, ip
 800060e:	ea41 5104 	orrgt.w	r1, r1, r4, lsl #20
 8000612:	bd70      	popgt	{r4, r5, r6, pc}
 8000614:	f441 1180 	orr.w	r1, r1, #1048576	; 0x100000
 8000618:	f04f 0e00 	mov.w	lr, #0
 800061c:	3c01      	subs	r4, #1
 800061e:	f300 80ab 	bgt.w	8000778 <__aeabi_dmul+0x238>
 8000622:	f114 0f36 	cmn.w	r4, #54	; 0x36
 8000626:	bfde      	ittt	le
 8000628:	2000      	movle	r0, #0
 800062a:	f001 4100 	andle.w	r1, r1, #2147483648	; 0x80000000
 800062e:	bd70      	pople	{r4, r5, r6, pc}
 8000630:	f1c4 0400 	rsb	r4, r4, #0
 8000634:	3c20      	subs	r4, #32
 8000636:	da35      	bge.n	80006a4 <__aeabi_dmul+0x164>
 8000638:	340c      	adds	r4, #12
 800063a:	dc1b      	bgt.n	8000674 <__aeabi_dmul+0x134>
 800063c:	f104 0414 	add.w	r4, r4, #20
 8000640:	f1c4 0520 	rsb	r5, r4, #32
 8000644:	fa00 f305 	lsl.w	r3, r0, r5
 8000648:	fa20 f004 	lsr.w	r0, r0, r4
 800064c:	fa01 f205 	lsl.w	r2, r1, r5
 8000650:	ea40 0002 	orr.w	r0, r0, r2
 8000654:	f001 4200 	and.w	r2, r1, #2147483648	; 0x80000000
 8000658:	f021 4100 	bic.w	r1, r1, #2147483648	; 0x80000000
 800065c:	eb10 70d3 	adds.w	r0, r0, r3, lsr #31
 8000660:	fa21 f604 	lsr.w	r6, r1, r4
 8000664:	eb42 0106 	adc.w	r1, r2, r6
 8000668:	ea5e 0e43 	orrs.w	lr, lr, r3, lsl #1
 800066c:	bf08      	it	eq
 800066e:	ea20 70d3 	biceq.w	r0, r0, r3, lsr #31
 8000672:	bd70      	pop	{r4, r5, r6, pc}
 8000674:	f1c4 040c 	rsb	r4, r4, #12
 8000678:	f1c4 0520 	rsb	r5, r4, #32
 800067c:	fa00 f304 	lsl.w	r3, r0, r4
 8000680:	fa20 f005 	lsr.w	r0, r0, r5
 8000684:	fa01 f204 	lsl.w	r2, r1, r4
 8000688:	ea40 0002 	orr.w	r0, r0, r2
 800068c:	f001 4100 	and.w	r1, r1, #2147483648	; 0x80000000
 8000690:	eb10 70d3 	adds.w	r0, r0, r3, lsr #31
 8000694:	f141 0100 	adc.w	r1, r1, #0
 8000698:	ea5e 0e43 	orrs.w	lr, lr, r3, lsl #1
 800069c:	bf08      	it	eq
 800069e:	ea20 70d3 	biceq.w	r0, r0, r3, lsr #31
 80006a2:	bd70      	pop	{r4, r5, r6, pc}
 80006a4:	f1c4 0520 	rsb	r5, r4, #32
 80006a8:	fa00 f205 	lsl.w	r2, r0, r5
 80006ac:	ea4e 0e02 	orr.w	lr, lr, r2
 80006b0:	fa20 f304 	lsr.w	r3, r0, r4
 80006b4:	fa01 f205 	lsl.w	r2, r1, r5
 80006b8:	ea43 0302 	orr.w	r3, r3, r2
 80006bc:	fa21 f004 	lsr.w	r0, r1, r4
 80006c0:	f001 4100 	and.w	r1, r1, #2147483648	; 0x80000000
 80006c4:	fa21 f204 	lsr.w	r2, r1, r4
 80006c8:	ea20 0002 	bic.w	r0, r0, r2
 80006cc:	eb00 70d3 	add.w	r0, r0, r3, lsr #31
 80006d0:	ea5e 0e43 	orrs.w	lr, lr, r3, lsl #1
 80006d4:	bf08      	it	eq
 80006d6:	ea20 70d3 	biceq.w	r0, r0, r3, lsr #31
 80006da:	bd70      	pop	{r4, r5, r6, pc}
 80006dc:	f094 0f00 	teq	r4, #0
 80006e0:	d10f      	bne.n	8000702 <__aeabi_dmul+0x1c2>
 80006e2:	f001 4600 	and.w	r6, r1, #2147483648	; 0x80000000
 80006e6:	0040      	lsls	r0, r0, #1
 80006e8:	eb41 0101 	adc.w	r1, r1, r1
 80006ec:	f411 1f80 	tst.w	r1, #1048576	; 0x100000
 80006f0:	bf08      	it	eq
 80006f2:	3c01      	subeq	r4, #1
 80006f4:	d0f7      	beq.n	80006e6 <__aeabi_dmul+0x1a6>
 80006f6:	ea41 0106 	orr.w	r1, r1, r6
 80006fa:	f095 0f00 	teq	r5, #0
 80006fe:	bf18      	it	ne
 8000700:	4770      	bxne	lr
 8000702:	f003 4600 	and.w	r6, r3, #2147483648	; 0x80000000
 8000706:	0052      	lsls	r2, r2, #1
 8000708:	eb43 0303 	adc.w	r3, r3, r3
 800070c:	f413 1f80 	tst.w	r3, #1048576	; 0x100000
 8000710:	bf08      	it	eq
 8000712:	3d01      	subeq	r5, #1
 8000714:	d0f7      	beq.n	8000706 <__aeabi_dmul+0x1c6>
 8000716:	ea43 0306 	orr.w	r3, r3, r6
 800071a:	4770      	bx	lr
 800071c:	ea94 0f0c 	teq	r4, ip
 8000720:	ea0c 5513 	and.w	r5, ip, r3, lsr #20
 8000724:	bf18      	it	ne
 8000726:	ea95 0f0c 	teqne	r5, ip
 800072a:	d00c      	beq.n	8000746 <__aeabi_dmul+0x206>
 800072c:	ea50 0641 	orrs.w	r6, r0, r1, lsl #1
 8000730:	bf18      	it	ne
 8000732:	ea52 0643 	orrsne.w	r6, r2, r3, lsl #1
 8000736:	d1d1      	bne.n	80006dc <__aeabi_dmul+0x19c>
 8000738:	ea81 0103 	eor.w	r1, r1, r3
 800073c:	f001 4100 	and.w	r1, r1, #2147483648	; 0x80000000
 8000740:	f04f 0000 	mov.w	r0, #0
 8000744:	bd70      	pop	{r4, r5, r6, pc}
 8000746:	ea50 0641 	orrs.w	r6, r0, r1, lsl #1
 800074a:	bf06      	itte	eq
 800074c:	4610      	moveq	r0, r2
 800074e:	4619      	moveq	r1, r3
 8000750:	ea52 0643 	orrsne.w	r6, r2, r3, lsl #1
 8000754:	d019      	beq.n	800078a <__aeabi_dmul+0x24a>
 8000756:	ea94 0f0c 	teq	r4, ip
 800075a:	d102      	bne.n	8000762 <__aeabi_dmul+0x222>
 800075c:	ea50 3601 	orrs.w	r6, r0, r1, lsl #12
 8000760:	d113      	bne.n	800078a <__aeabi_dmul+0x24a>
 8000762:	ea95 0f0c 	teq	r5, ip
 8000766:	d105      	bne.n	8000774 <__aeabi_dmul+0x234>
 8000768:	ea52 3603 	orrs.w	r6, r2, r3, lsl #12
 800076c:	bf1c      	itt	ne
 800076e:	4610      	movne	r0, r2
 8000770:	4619      	movne	r1, r3
 8000772:	d10a      	bne.n	800078a <__aeabi_dmul+0x24a>
 8000774:	ea81 0103 	eor.w	r1, r1, r3
 8000778:	f001 4100 	and.w	r1, r1, #2147483648	; 0x80000000
 800077c:	f041 41fe 	orr.w	r1, r1, #2130706432	; 0x7f000000
 8000780:	f441 0170 	orr.w	r1, r1, #15728640	; 0xf00000
 8000784:	f04f 0000 	mov.w	r0, #0
 8000788:	bd70      	pop	{r4, r5, r6, pc}
 800078a:	f041 41fe 	orr.w	r1, r1, #2130706432	; 0x7f000000
 800078e:	f441 0178 	orr.w	r1, r1, #16252928	; 0xf80000
 8000792:	bd70      	pop	{r4, r5, r6, pc}

08000794 <__aeabi_ddiv>:
 8000794:	b570      	push	{r4, r5, r6, lr}
 8000796:	f04f 0cff 	mov.w	ip, #255	; 0xff
 800079a:	f44c 6ce0 	orr.w	ip, ip, #1792	; 0x700
 800079e:	ea1c 5411 	ands.w	r4, ip, r1, lsr #20
 80007a2:	bf1d      	ittte	ne
 80007a4:	ea1c 5513 	andsne.w	r5, ip, r3, lsr #20
 80007a8:	ea94 0f0c 	teqne	r4, ip
 80007ac:	ea95 0f0c 	teqne	r5, ip
 80007b0:	f000 f8a7 	bleq	8000902 <__aeabi_ddiv+0x16e>
 80007b4:	eba4 0405 	sub.w	r4, r4, r5
 80007b8:	ea81 0e03 	eor.w	lr, r1, r3
 80007bc:	ea52 3503 	orrs.w	r5, r2, r3, lsl #12
 80007c0:	ea4f 3101 	mov.w	r1, r1, lsl #12
 80007c4:	f000 8088 	beq.w	80008d8 <__aeabi_ddiv+0x144>
 80007c8:	ea4f 3303 	mov.w	r3, r3, lsl #12
 80007cc:	f04f 5580 	mov.w	r5, #268435456	; 0x10000000
 80007d0:	ea45 1313 	orr.w	r3, r5, r3, lsr #4
 80007d4:	ea43 6312 	orr.w	r3, r3, r2, lsr #24
 80007d8:	ea4f 2202 	mov.w	r2, r2, lsl #8
 80007dc:	ea45 1511 	orr.w	r5, r5, r1, lsr #4
 80007e0:	ea45 6510 	orr.w	r5, r5, r0, lsr #24
 80007e4:	ea4f 2600 	mov.w	r6, r0, lsl #8
 80007e8:	f00e 4100 	and.w	r1, lr, #2147483648	; 0x80000000
 80007ec:	429d      	cmp	r5, r3
 80007ee:	bf08      	it	eq
 80007f0:	4296      	cmpeq	r6, r2
 80007f2:	f144 04fd 	adc.w	r4, r4, #253	; 0xfd
 80007f6:	f504 7440 	add.w	r4, r4, #768	; 0x300
 80007fa:	d202      	bcs.n	8000802 <__aeabi_ddiv+0x6e>
 80007fc:	085b      	lsrs	r3, r3, #1
 80007fe:	ea4f 0232 	mov.w	r2, r2, rrx
 8000802:	1ab6      	subs	r6, r6, r2
 8000804:	eb65 0503 	sbc.w	r5, r5, r3
 8000808:	085b      	lsrs	r3, r3, #1
 800080a:	ea4f 0232 	mov.w	r2, r2, rrx
 800080e:	f44f 1080 	mov.w	r0, #1048576	; 0x100000
 8000812:	f44f 2c00 	mov.w	ip, #524288	; 0x80000
 8000816:	ebb6 0e02 	subs.w	lr, r6, r2
 800081a:	eb75 0e03 	sbcs.w	lr, r5, r3
 800081e:	bf22      	ittt	cs
 8000820:	1ab6      	subcs	r6, r6, r2
 8000822:	4675      	movcs	r5, lr
 8000824:	ea40 000c 	orrcs.w	r0, r0, ip
 8000828:	085b      	lsrs	r3, r3, #1
 800082a:	ea4f 0232 	mov.w	r2, r2, rrx
 800082e:	ebb6 0e02 	subs.w	lr, r6, r2
 8000832:	eb75 0e03 	sbcs.w	lr, r5, r3
 8000836:	bf22      	ittt	cs
 8000838:	1ab6      	subcs	r6, r6, r2
 800083a:	4675      	movcs	r5, lr
 800083c:	ea40 005c 	orrcs.w	r0, r0, ip, lsr #1
 8000840:	085b      	lsrs	r3, r3, #1
 8000842:	ea4f 0232 	mov.w	r2, r2, rrx
 8000846:	ebb6 0e02 	subs.w	lr, r6, r2
 800084a:	eb75 0e03 	sbcs.w	lr, r5, r3
 800084e:	bf22      	ittt	cs
 8000850:	1ab6      	subcs	r6, r6, r2
 8000852:	4675      	movcs	r5, lr
 8000854:	ea40 009c 	orrcs.w	r0, r0, ip, lsr #2
 8000858:	085b      	lsrs	r3, r3, #1
 800085a:	ea4f 0232 	mov.w	r2, r2, rrx
 800085e:	ebb6 0e02 	subs.w	lr, r6, r2
 8000862:	eb75 0e03 	sbcs.w	lr, r5, r3
 8000866:	bf22      	ittt	cs
 8000868:	1ab6      	subcs	r6, r6, r2
 800086a:	4675      	movcs	r5, lr
 800086c:	ea40 00dc 	orrcs.w	r0, r0, ip, lsr #3
 8000870:	ea55 0e06 	orrs.w	lr, r5, r6
 8000874:	d018      	beq.n	80008a8 <__aeabi_ddiv+0x114>
 8000876:	ea4f 1505 	mov.w	r5, r5, lsl #4
 800087a:	ea45 7516 	orr.w	r5, r5, r6, lsr #28
 800087e:	ea4f 1606 	mov.w	r6, r6, lsl #4
 8000882:	ea4f 03c3 	mov.w	r3, r3, lsl #3
 8000886:	ea43 7352 	orr.w	r3, r3, r2, lsr #29
 800088a:	ea4f 02c2 	mov.w	r2, r2, lsl #3
 800088e:	ea5f 1c1c 	movs.w	ip, ip, lsr #4
 8000892:	d1c0      	bne.n	8000816 <__aeabi_ddiv+0x82>
 8000894:	f411 1f80 	tst.w	r1, #1048576	; 0x100000
 8000898:	d10b      	bne.n	80008b2 <__aeabi_ddiv+0x11e>
 800089a:	ea41 0100 	orr.w	r1, r1, r0
 800089e:	f04f 0000 	mov.w	r0, #0
 80008a2:	f04f 4c00 	mov.w	ip, #2147483648	; 0x80000000
 80008a6:	e7b6      	b.n	8000816 <__aeabi_ddiv+0x82>
 80008a8:	f411 1f80 	tst.w	r1, #1048576	; 0x100000
 80008ac:	bf04      	itt	eq
 80008ae:	4301      	orreq	r1, r0
 80008b0:	2000      	moveq	r0, #0
 80008b2:	f1b4 0cfd 	subs.w	ip, r4, #253	; 0xfd
 80008b6:	bf88      	it	hi
 80008b8:	f5bc 6fe0 	cmphi.w	ip, #1792	; 0x700
 80008bc:	f63f aeaf 	bhi.w	800061e <__aeabi_dmul+0xde>
 80008c0:	ebb5 0c03 	subs.w	ip, r5, r3
 80008c4:	bf04      	itt	eq
 80008c6:	ebb6 0c02 	subseq.w	ip, r6, r2
 80008ca:	ea5f 0c50 	movseq.w	ip, r0, lsr #1
 80008ce:	f150 0000 	adcs.w	r0, r0, #0
 80008d2:	eb41 5104 	adc.w	r1, r1, r4, lsl #20
 80008d6:	bd70      	pop	{r4, r5, r6, pc}
 80008d8:	f00e 4e00 	and.w	lr, lr, #2147483648	; 0x80000000
 80008dc:	ea4e 3111 	orr.w	r1, lr, r1, lsr #12
 80008e0:	eb14 045c 	adds.w	r4, r4, ip, lsr #1
 80008e4:	bfc2      	ittt	gt
 80008e6:	ebd4 050c 	rsbsgt	r5, r4, ip
 80008ea:	ea41 5104 	orrgt.w	r1, r1, r4, lsl #20
 80008ee:	bd70      	popgt	{r4, r5, r6, pc}
 80008f0:	f441 1180 	orr.w	r1, r1, #1048576	; 0x100000
 80008f4:	f04f 0e00 	mov.w	lr, #0
 80008f8:	3c01      	subs	r4, #1
 80008fa:	e690      	b.n	800061e <__aeabi_dmul+0xde>
 80008fc:	ea45 0e06 	orr.w	lr, r5, r6
 8000900:	e68d      	b.n	800061e <__aeabi_dmul+0xde>
 8000902:	ea0c 5513 	and.w	r5, ip, r3, lsr #20
 8000906:	ea94 0f0c 	teq	r4, ip
 800090a:	bf08      	it	eq
 800090c:	ea95 0f0c 	teqeq	r5, ip
 8000910:	f43f af3b 	beq.w	800078a <__aeabi_dmul+0x24a>
 8000914:	ea94 0f0c 	teq	r4, ip
 8000918:	d10a      	bne.n	8000930 <__aeabi_ddiv+0x19c>
 800091a:	ea50 3401 	orrs.w	r4, r0, r1, lsl #12
 800091e:	f47f af34 	bne.w	800078a <__aeabi_dmul+0x24a>
 8000922:	ea95 0f0c 	teq	r5, ip
 8000926:	f47f af25 	bne.w	8000774 <__aeabi_dmul+0x234>
 800092a:	4610      	mov	r0, r2
 800092c:	4619      	mov	r1, r3
 800092e:	e72c      	b.n	800078a <__aeabi_dmul+0x24a>
 8000930:	ea95 0f0c 	teq	r5, ip
 8000934:	d106      	bne.n	8000944 <__aeabi_ddiv+0x1b0>
 8000936:	ea52 3503 	orrs.w	r5, r2, r3, lsl #12
 800093a:	f43f aefd 	beq.w	8000738 <__aeabi_dmul+0x1f8>
 800093e:	4610      	mov	r0, r2
 8000940:	4619      	mov	r1, r3
 8000942:	e722      	b.n	800078a <__aeabi_dmul+0x24a>
 8000944:	ea50 0641 	orrs.w	r6, r0, r1, lsl #1
 8000948:	bf18      	it	ne
 800094a:	ea52 0643 	orrsne.w	r6, r2, r3, lsl #1
 800094e:	f47f aec5 	bne.w	80006dc <__aeabi_dmul+0x19c>
 8000952:	ea50 0441 	orrs.w	r4, r0, r1, lsl #1
 8000956:	f47f af0d 	bne.w	8000774 <__aeabi_dmul+0x234>
 800095a:	ea52 0543 	orrs.w	r5, r2, r3, lsl #1
 800095e:	f47f aeeb 	bne.w	8000738 <__aeabi_dmul+0x1f8>
 8000962:	e712      	b.n	800078a <__aeabi_dmul+0x24a>

08000964 <__aeabi_d2uiz>:
 8000964:	004a      	lsls	r2, r1, #1
 8000966:	d211      	bcs.n	800098c <__aeabi_d2uiz+0x28>
 8000968:	f512 1200 	adds.w	r2, r2, #2097152	; 0x200000
 800096c:	d211      	bcs.n	8000992 <__aeabi_d2uiz+0x2e>
 800096e:	d50d      	bpl.n	800098c <__aeabi_d2uiz+0x28>
 8000970:	f46f 7378 	mvn.w	r3, #992	; 0x3e0
 8000974:	ebb3 5262 	subs.w	r2, r3, r2, asr #21
 8000978:	d40e      	bmi.n	8000998 <__aeabi_d2uiz+0x34>
 800097a:	ea4f 23c1 	mov.w	r3, r1, lsl #11
 800097e:	f043 4300 	orr.w	r3, r3, #2147483648	; 0x80000000
 8000982:	ea43 5350 	orr.w	r3, r3, r0, lsr #21
 8000986:	fa23 f002 	lsr.w	r0, r3, r2
 800098a:	4770      	bx	lr
 800098c:	f04f 0000 	mov.w	r0, #0
 8000990:	4770      	bx	lr
 8000992:	ea50 3001 	orrs.w	r0, r0, r1, lsl #12
 8000996:	d102      	bne.n	800099e <__aeabi_d2uiz+0x3a>
 8000998:	f04f 30ff 	mov.w	r0, #4294967295	; 0xffffffff
 800099c:	4770      	bx	lr
 800099e:	f04f 0000 	mov.w	r0, #0
 80009a2:	4770      	bx	lr

080009a4 <__aeabi_uldivmod>:
 80009a4:	b953      	cbnz	r3, 80009bc <__aeabi_uldivmod+0x18>
 80009a6:	b94a      	cbnz	r2, 80009bc <__aeabi_uldivmod+0x18>
 80009a8:	2900      	cmp	r1, #0
 80009aa:	bf08      	it	eq
 80009ac:	2800      	cmpeq	r0, #0
 80009ae:	bf1c      	itt	ne
 80009b0:	f04f 31ff 	movne.w	r1, #4294967295	; 0xffffffff
 80009b4:	f04f 30ff 	movne.w	r0, #4294967295	; 0xffffffff
 80009b8:	f000 b96e 	b.w	8000c98 <__aeabi_idiv0>
 80009bc:	f1ad 0c08 	sub.w	ip, sp, #8
 80009c0:	e96d ce04 	strd	ip, lr, [sp, #-16]!
 80009c4:	f000 f806 	bl	80009d4 <__udivmoddi4>
 80009c8:	f8dd e004 	ldr.w	lr, [sp, #4]
 80009cc:	e9dd 2302 	ldrd	r2, r3, [sp, #8]
 80009d0:	b004      	add	sp, #16
 80009d2:	4770      	bx	lr

080009d4 <__udivmoddi4>:
 80009d4:	e92d 47f0 	stmdb	sp!, {r4, r5, r6, r7, r8, r9, sl, lr}
 80009d8:	9d08      	ldr	r5, [sp, #32]
 80009da:	4604      	mov	r4, r0
 80009dc:	468c      	mov	ip, r1
 80009de:	2b00      	cmp	r3, #0
 80009e0:	f040 8083 	bne.w	8000aea <__udivmoddi4+0x116>
 80009e4:	428a      	cmp	r2, r1
 80009e6:	4617      	mov	r7, r2
 80009e8:	d947      	bls.n	8000a7a <__udivmoddi4+0xa6>
 80009ea:	fab2 f282 	clz	r2, r2
 80009ee:	b142      	cbz	r2, 8000a02 <__udivmoddi4+0x2e>
 80009f0:	f1c2 0020 	rsb	r0, r2, #32
 80009f4:	fa24 f000 	lsr.w	r0, r4, r0
 80009f8:	4091      	lsls	r1, r2
 80009fa:	4097      	lsls	r7, r2
 80009fc:	ea40 0c01 	orr.w	ip, r0, r1
 8000a00:	4094      	lsls	r4, r2
 8000a02:	ea4f 4817 	mov.w	r8, r7, lsr #16
 8000a06:	0c23      	lsrs	r3, r4, #16
 8000a08:	fbbc f6f8 	udiv	r6, ip, r8
 8000a0c:	fa1f fe87 	uxth.w	lr, r7
 8000a10:	fb08 c116 	mls	r1, r8, r6, ip
 8000a14:	ea43 4301 	orr.w	r3, r3, r1, lsl #16
 8000a18:	fb06 f10e 	mul.w	r1, r6, lr
 8000a1c:	4299      	cmp	r1, r3
 8000a1e:	d909      	bls.n	8000a34 <__udivmoddi4+0x60>
 8000a20:	18fb      	adds	r3, r7, r3
 8000a22:	f106 30ff 	add.w	r0, r6, #4294967295	; 0xffffffff
 8000a26:	f080 8119 	bcs.w	8000c5c <__udivmoddi4+0x288>
 8000a2a:	4299      	cmp	r1, r3
 8000a2c:	f240 8116 	bls.w	8000c5c <__udivmoddi4+0x288>
 8000a30:	3e02      	subs	r6, #2
 8000a32:	443b      	add	r3, r7
 8000a34:	1a5b      	subs	r3, r3, r1
 8000a36:	b2a4      	uxth	r4, r4
 8000a38:	fbb3 f0f8 	udiv	r0, r3, r8
 8000a3c:	fb08 3310 	mls	r3, r8, r0, r3
 8000a40:	ea44 4403 	orr.w	r4, r4, r3, lsl #16
 8000a44:	fb00 fe0e 	mul.w	lr, r0, lr
 8000a48:	45a6      	cmp	lr, r4
 8000a4a:	d909      	bls.n	8000a60 <__udivmoddi4+0x8c>
 8000a4c:	193c      	adds	r4, r7, r4
 8000a4e:	f100 33ff 	add.w	r3, r0, #4294967295	; 0xffffffff
 8000a52:	f080 8105 	bcs.w	8000c60 <__udivmoddi4+0x28c>
 8000a56:	45a6      	cmp	lr, r4
 8000a58:	f240 8102 	bls.w	8000c60 <__udivmoddi4+0x28c>
 8000a5c:	3802      	subs	r0, #2
 8000a5e:	443c      	add	r4, r7
 8000a60:	ea40 4006 	orr.w	r0, r0, r6, lsl #16
 8000a64:	eba4 040e 	sub.w	r4, r4, lr
 8000a68:	2600      	movs	r6, #0
 8000a6a:	b11d      	cbz	r5, 8000a74 <__udivmoddi4+0xa0>
 8000a6c:	40d4      	lsrs	r4, r2
 8000a6e:	2300      	movs	r3, #0
 8000a70:	e9c5 4300 	strd	r4, r3, [r5]
 8000a74:	4631      	mov	r1, r6
 8000a76:	e8bd 87f0 	ldmia.w	sp!, {r4, r5, r6, r7, r8, r9, sl, pc}
 8000a7a:	b902      	cbnz	r2, 8000a7e <__udivmoddi4+0xaa>
 8000a7c:	deff      	udf	#255	; 0xff
 8000a7e:	fab2 f282 	clz	r2, r2
 8000a82:	2a00      	cmp	r2, #0
 8000a84:	d150      	bne.n	8000b28 <__udivmoddi4+0x154>
 8000a86:	1bcb      	subs	r3, r1, r7
 8000a88:	ea4f 4e17 	mov.w	lr, r7, lsr #16
 8000a8c:	fa1f f887 	uxth.w	r8, r7
 8000a90:	2601      	movs	r6, #1
 8000a92:	fbb3 fcfe 	udiv	ip, r3, lr
 8000a96:	0c21      	lsrs	r1, r4, #16
 8000a98:	fb0e 331c 	mls	r3, lr, ip, r3
 8000a9c:	ea41 4103 	orr.w	r1, r1, r3, lsl #16
 8000aa0:	fb08 f30c 	mul.w	r3, r8, ip
 8000aa4:	428b      	cmp	r3, r1
 8000aa6:	d907      	bls.n	8000ab8 <__udivmoddi4+0xe4>
 8000aa8:	1879      	adds	r1, r7, r1
 8000aaa:	f10c 30ff 	add.w	r0, ip, #4294967295	; 0xffffffff
 8000aae:	d202      	bcs.n	8000ab6 <__udivmoddi4+0xe2>
 8000ab0:	428b      	cmp	r3, r1
 8000ab2:	f200 80e9 	bhi.w	8000c88 <__udivmoddi4+0x2b4>
 8000ab6:	4684      	mov	ip, r0
 8000ab8:	1ac9      	subs	r1, r1, r3
 8000aba:	b2a3      	uxth	r3, r4
 8000abc:	fbb1 f0fe 	udiv	r0, r1, lr
 8000ac0:	fb0e 1110 	mls	r1, lr, r0, r1
 8000ac4:	ea43 4401 	orr.w	r4, r3, r1, lsl #16
 8000ac8:	fb08 f800 	mul.w	r8, r8, r0
 8000acc:	45a0      	cmp	r8, r4
 8000ace:	d907      	bls.n	8000ae0 <__udivmoddi4+0x10c>
 8000ad0:	193c      	adds	r4, r7, r4
 8000ad2:	f100 33ff 	add.w	r3, r0, #4294967295	; 0xffffffff
 8000ad6:	d202      	bcs.n	8000ade <__udivmoddi4+0x10a>
 8000ad8:	45a0      	cmp	r8, r4
 8000ada:	f200 80d9 	bhi.w	8000c90 <__udivmoddi4+0x2bc>
 8000ade:	4618      	mov	r0, r3
 8000ae0:	eba4 0408 	sub.w	r4, r4, r8
 8000ae4:	ea40 400c 	orr.w	r0, r0, ip, lsl #16
 8000ae8:	e7bf      	b.n	8000a6a <__udivmoddi4+0x96>
 8000aea:	428b      	cmp	r3, r1
 8000aec:	d909      	bls.n	8000b02 <__udivmoddi4+0x12e>
 8000aee:	2d00      	cmp	r5, #0
 8000af0:	f000 80b1 	beq.w	8000c56 <__udivmoddi4+0x282>
 8000af4:	2600      	movs	r6, #0
 8000af6:	e9c5 0100 	strd	r0, r1, [r5]
 8000afa:	4630      	mov	r0, r6
 8000afc:	4631      	mov	r1, r6
 8000afe:	e8bd 87f0 	ldmia.w	sp!, {r4, r5, r6, r7, r8, r9, sl, pc}
 8000b02:	fab3 f683 	clz	r6, r3
 8000b06:	2e00      	cmp	r6, #0
 8000b08:	d14a      	bne.n	8000ba0 <__udivmoddi4+0x1cc>
 8000b0a:	428b      	cmp	r3, r1
 8000b0c:	d302      	bcc.n	8000b14 <__udivmoddi4+0x140>
 8000b0e:	4282      	cmp	r2, r0
 8000b10:	f200 80b8 	bhi.w	8000c84 <__udivmoddi4+0x2b0>
 8000b14:	1a84      	subs	r4, r0, r2
 8000b16:	eb61 0103 	sbc.w	r1, r1, r3
 8000b1a:	2001      	movs	r0, #1
 8000b1c:	468c      	mov	ip, r1
 8000b1e:	2d00      	cmp	r5, #0
 8000b20:	d0a8      	beq.n	8000a74 <__udivmoddi4+0xa0>
 8000b22:	e9c5 4c00 	strd	r4, ip, [r5]
 8000b26:	e7a5      	b.n	8000a74 <__udivmoddi4+0xa0>
 8000b28:	f1c2 0320 	rsb	r3, r2, #32
 8000b2c:	fa20 f603 	lsr.w	r6, r0, r3
 8000b30:	4097      	lsls	r7, r2
 8000b32:	fa01 f002 	lsl.w	r0, r1, r2
 8000b36:	ea4f 4e17 	mov.w	lr, r7, lsr #16
 8000b3a:	40d9      	lsrs	r1, r3
 8000b3c:	4330      	orrs	r0, r6
 8000b3e:	0c03      	lsrs	r3, r0, #16
 8000b40:	fbb1 f6fe 	udiv	r6, r1, lr
 8000b44:	fa1f f887 	uxth.w	r8, r7
 8000b48:	fb0e 1116 	mls	r1, lr, r6, r1
 8000b4c:	ea43 4301 	orr.w	r3, r3, r1, lsl #16
 8000b50:	fb06 f108 	mul.w	r1, r6, r8
 8000b54:	4299      	cmp	r1, r3
 8000b56:	fa04 f402 	lsl.w	r4, r4, r2
 8000b5a:	d909      	bls.n	8000b70 <__udivmoddi4+0x19c>
 8000b5c:	18fb      	adds	r3, r7, r3
 8000b5e:	f106 3cff 	add.w	ip, r6, #4294967295	; 0xffffffff
 8000b62:	f080 808d 	bcs.w	8000c80 <__udivmoddi4+0x2ac>
 8000b66:	4299      	cmp	r1, r3
 8000b68:	f240 808a 	bls.w	8000c80 <__udivmoddi4+0x2ac>
 8000b6c:	3e02      	subs	r6, #2
 8000b6e:	443b      	add	r3, r7
 8000b70:	1a5b      	subs	r3, r3, r1
 8000b72:	b281      	uxth	r1, r0
 8000b74:	fbb3 f0fe 	udiv	r0, r3, lr
 8000b78:	fb0e 3310 	mls	r3, lr, r0, r3
 8000b7c:	ea41 4103 	orr.w	r1, r1, r3, lsl #16
 8000b80:	fb00 f308 	mul.w	r3, r0, r8
 8000b84:	428b      	cmp	r3, r1
 8000b86:	d907      	bls.n	8000b98 <__udivmoddi4+0x1c4>
 8000b88:	1879      	adds	r1, r7, r1
 8000b8a:	f100 3cff 	add.w	ip, r0, #4294967295	; 0xffffffff
 8000b8e:	d273      	bcs.n	8000c78 <__udivmoddi4+0x2a4>
 8000b90:	428b      	cmp	r3, r1
 8000b92:	d971      	bls.n	8000c78 <__udivmoddi4+0x2a4>
 8000b94:	3802      	subs	r0, #2
 8000b96:	4439      	add	r1, r7
 8000b98:	1acb      	subs	r3, r1, r3
 8000b9a:	ea40 4606 	orr.w	r6, r0, r6, lsl #16
 8000b9e:	e778      	b.n	8000a92 <__udivmoddi4+0xbe>
 8000ba0:	f1c6 0c20 	rsb	ip, r6, #32
 8000ba4:	fa03 f406 	lsl.w	r4, r3, r6
 8000ba8:	fa22 f30c 	lsr.w	r3, r2, ip
 8000bac:	431c      	orrs	r4, r3
 8000bae:	fa20 f70c 	lsr.w	r7, r0, ip
 8000bb2:	fa01 f306 	lsl.w	r3, r1, r6
 8000bb6:	ea4f 4e14 	mov.w	lr, r4, lsr #16
 8000bba:	fa21 f10c 	lsr.w	r1, r1, ip
 8000bbe:	431f      	orrs	r7, r3
 8000bc0:	0c3b      	lsrs	r3, r7, #16
 8000bc2:	fbb1 f9fe 	udiv	r9, r1, lr
 8000bc6:	fa1f f884 	uxth.w	r8, r4
 8000bca:	fb0e 1119 	mls	r1, lr, r9, r1
 8000bce:	ea43 4101 	orr.w	r1, r3, r1, lsl #16
 8000bd2:	fb09 fa08 	mul.w	sl, r9, r8
 8000bd6:	458a      	cmp	sl, r1
 8000bd8:	fa02 f206 	lsl.w	r2, r2, r6
 8000bdc:	fa00 f306 	lsl.w	r3, r0, r6
 8000be0:	d908      	bls.n	8000bf4 <__udivmoddi4+0x220>
 8000be2:	1861      	adds	r1, r4, r1
 8000be4:	f109 30ff 	add.w	r0, r9, #4294967295	; 0xffffffff
 8000be8:	d248      	bcs.n	8000c7c <__udivmoddi4+0x2a8>
 8000bea:	458a      	cmp	sl, r1
 8000bec:	d946      	bls.n	8000c7c <__udivmoddi4+0x2a8>
 8000bee:	f1a9 0902 	sub.w	r9, r9, #2
 8000bf2:	4421      	add	r1, r4
 8000bf4:	eba1 010a 	sub.w	r1, r1, sl
 8000bf8:	b2bf      	uxth	r7, r7
 8000bfa:	fbb1 f0fe 	udiv	r0, r1, lr
 8000bfe:	fb0e 1110 	mls	r1, lr, r0, r1
 8000c02:	ea47 4701 	orr.w	r7, r7, r1, lsl #16
 8000c06:	fb00 f808 	mul.w	r8, r0, r8
 8000c0a:	45b8      	cmp	r8, r7
 8000c0c:	d907      	bls.n	8000c1e <__udivmoddi4+0x24a>
 8000c0e:	19e7      	adds	r7, r4, r7
 8000c10:	f100 31ff 	add.w	r1, r0, #4294967295	; 0xffffffff
 8000c14:	d22e      	bcs.n	8000c74 <__udivmoddi4+0x2a0>
 8000c16:	45b8      	cmp	r8, r7
 8000c18:	d92c      	bls.n	8000c74 <__udivmoddi4+0x2a0>
 8000c1a:	3802      	subs	r0, #2
 8000c1c:	4427      	add	r7, r4
 8000c1e:	ea40 4009 	orr.w	r0, r0, r9, lsl #16
 8000c22:	eba7 0708 	sub.w	r7, r7, r8
 8000c26:	fba0 8902 	umull	r8, r9, r0, r2
 8000c2a:	454f      	cmp	r7, r9
 8000c2c:	46c6      	mov	lr, r8
 8000c2e:	4649      	mov	r1, r9
 8000c30:	d31a      	bcc.n	8000c68 <__udivmoddi4+0x294>
 8000c32:	d017      	beq.n	8000c64 <__udivmoddi4+0x290>
 8000c34:	b15d      	cbz	r5, 8000c4e <__udivmoddi4+0x27a>
 8000c36:	ebb3 020e 	subs.w	r2, r3, lr
 8000c3a:	eb67 0701 	sbc.w	r7, r7, r1
 8000c3e:	fa07 fc0c 	lsl.w	ip, r7, ip
 8000c42:	40f2      	lsrs	r2, r6
 8000c44:	ea4c 0202 	orr.w	r2, ip, r2
 8000c48:	40f7      	lsrs	r7, r6
 8000c4a:	e9c5 2700 	strd	r2, r7, [r5]
 8000c4e:	2600      	movs	r6, #0
 8000c50:	4631      	mov	r1, r6
 8000c52:	e8bd 87f0 	ldmia.w	sp!, {r4, r5, r6, r7, r8, r9, sl, pc}
 8000c56:	462e      	mov	r6, r5
 8000c58:	4628      	mov	r0, r5
 8000c5a:	e70b      	b.n	8000a74 <__udivmoddi4+0xa0>
 8000c5c:	4606      	mov	r6, r0
 8000c5e:	e6e9      	b.n	8000a34 <__udivmoddi4+0x60>
 8000c60:	4618      	mov	r0, r3
 8000c62:	e6fd      	b.n	8000a60 <__udivmoddi4+0x8c>
 8000c64:	4543      	cmp	r3, r8
 8000c66:	d2e5      	bcs.n	8000c34 <__udivmoddi4+0x260>
 8000c68:	ebb8 0e02 	subs.w	lr, r8, r2
 8000c6c:	eb69 0104 	sbc.w	r1, r9, r4
 8000c70:	3801      	subs	r0, #1
 8000c72:	e7df      	b.n	8000c34 <__udivmoddi4+0x260>
 8000c74:	4608      	mov	r0, r1
 8000c76:	e7d2      	b.n	8000c1e <__udivmoddi4+0x24a>
 8000c78:	4660      	mov	r0, ip
 8000c7a:	e78d      	b.n	8000b98 <__udivmoddi4+0x1c4>
 8000c7c:	4681      	mov	r9, r0
 8000c7e:	e7b9      	b.n	8000bf4 <__udivmoddi4+0x220>
 8000c80:	4666      	mov	r6, ip
 8000c82:	e775      	b.n	8000b70 <__udivmoddi4+0x19c>
 8000c84:	4630      	mov	r0, r6
 8000c86:	e74a      	b.n	8000b1e <__udivmoddi4+0x14a>
 8000c88:	f1ac 0c02 	sub.w	ip, ip, #2
 8000c8c:	4439      	add	r1, r7
 8000c8e:	e713      	b.n	8000ab8 <__udivmoddi4+0xe4>
 8000c90:	3802      	subs	r0, #2
 8000c92:	443c      	add	r4, r7
 8000c94:	e724      	b.n	8000ae0 <__udivmoddi4+0x10c>
 8000c96:	bf00      	nop

08000c98 <__aeabi_idiv0>:
 8000c98:	4770      	bx	lr
 8000c9a:	bf00      	nop

08000c9c <ADC_to_V>:
/* Private user code ---------------------------------------------------------*/
/* USER CODE BEGIN 0 */
volatile uint8_t danger_level = 0;

uint32_t ADC_to_V(uint16_t adc)
{
 8000c9c:	b480      	push	{r7}
 8000c9e:	b083      	sub	sp, #12
 8000ca0:	af00      	add	r7, sp, #0
 8000ca2:	4603      	mov	r3, r0
 8000ca4:	80fb      	strh	r3, [r7, #6]
	return ((VREF * adc) / ADC_RES);
 8000ca6:	88fb      	ldrh	r3, [r7, #6]
 8000ca8:	f640 32b8 	movw	r2, #3000	; 0xbb8
 8000cac:	fb02 f303 	mul.w	r3, r2, r3
 8000cb0:	4a06      	ldr	r2, [pc, #24]	; (8000ccc <ADC_to_V+0x30>)
 8000cb2:	fb82 1203 	smull	r1, r2, r2, r3
 8000cb6:	441a      	add	r2, r3
 8000cb8:	12d2      	asrs	r2, r2, #11
 8000cba:	17db      	asrs	r3, r3, #31
 8000cbc:	1ad3      	subs	r3, r2, r3
}
 8000cbe:	4618      	mov	r0, r3
 8000cc0:	370c      	adds	r7, #12
 8000cc2:	46bd      	mov	sp, r7
 8000cc4:	f85d 7b04 	ldr.w	r7, [sp], #4
 8000cc8:	4770      	bx	lr
 8000cca:	bf00      	nop
 8000ccc:	80080081 	.word	0x80080081

08000cd0 <ADC_to_INTT>:

uint32_t ADC_to_INTT(uint16_t adc)
{
 8000cd0:	b580      	push	{r7, lr}
 8000cd2:	b084      	sub	sp, #16
 8000cd4:	af00      	add	r7, sp, #0
 8000cd6:	4603      	mov	r3, r0
 8000cd8:	80fb      	strh	r3, [r7, #6]
	uint32_t ADC_to_V = VREF * adc / ADC_RES;
 8000cda:	88fb      	ldrh	r3, [r7, #6]
 8000cdc:	f640 32b8 	movw	r2, #3000	; 0xbb8
 8000ce0:	fb02 f303 	mul.w	r3, r2, r3
 8000ce4:	4a13      	ldr	r2, [pc, #76]	; (8000d34 <ADC_to_INTT+0x64>)
 8000ce6:	fb82 1203 	smull	r1, r2, r2, r3
 8000cea:	441a      	add	r2, r3
 8000cec:	12d2      	asrs	r2, r2, #11
 8000cee:	17db      	asrs	r3, r3, #31
 8000cf0:	1ad3      	subs	r3, r2, r3
 8000cf2:	60fb      	str	r3, [r7, #12]
	return (ADC_to_V - V25) / AVG_SLOPE + 25;
 8000cf4:	68fb      	ldr	r3, [r7, #12]
 8000cf6:	f5a3 733e 	sub.w	r3, r3, #760	; 0x2f8
 8000cfa:	4618      	mov	r0, r3
 8000cfc:	f7ff fba6 	bl	800044c <__aeabi_ui2d>
 8000d00:	f04f 0200 	mov.w	r2, #0
 8000d04:	4b0c      	ldr	r3, [pc, #48]	; (8000d38 <ADC_to_INTT+0x68>)
 8000d06:	f7ff fd45 	bl	8000794 <__aeabi_ddiv>
 8000d0a:	4602      	mov	r2, r0
 8000d0c:	460b      	mov	r3, r1
 8000d0e:	4610      	mov	r0, r2
 8000d10:	4619      	mov	r1, r3
 8000d12:	f04f 0200 	mov.w	r2, #0
 8000d16:	4b09      	ldr	r3, [pc, #36]	; (8000d3c <ADC_to_INTT+0x6c>)
 8000d18:	f7ff fa5c 	bl	80001d4 <__adddf3>
 8000d1c:	4602      	mov	r2, r0
 8000d1e:	460b      	mov	r3, r1
 8000d20:	4610      	mov	r0, r2
 8000d22:	4619      	mov	r1, r3
 8000d24:	f7ff fe1e 	bl	8000964 <__aeabi_d2uiz>
 8000d28:	4603      	mov	r3, r0
}
 8000d2a:	4618      	mov	r0, r3
 8000d2c:	3710      	adds	r7, #16
 8000d2e:	46bd      	mov	sp, r7
 8000d30:	bd80      	pop	{r7, pc}
 8000d32:	bf00      	nop
 8000d34:	80080081 	.word	0x80080081
 8000d38:	40040000 	.word	0x40040000
 8000d3c:	40390000 	.word	0x40390000

08000d40 <main>:
/**
  * @brief  The application entry point.
  * @retval int
  */
int main(void)
{
 8000d40:	b580      	push	{r7, lr}
 8000d42:	b082      	sub	sp, #8
 8000d44:	af00      	add	r7, sp, #0
  /* USER CODE END 1 */

  /* MCU Configuration--------------------------------------------------------*/

  /* Reset of all peripherals, Initializes the Flash interface and the Systick. */
  HAL_Init();
 8000d46:	f000 fd19 	bl	800177c <HAL_Init>
  /* USER CODE BEGIN Init */

  /* USER CODE END Init */

  /* Configure the system clock */
  SystemClock_Config();
 8000d4a:	f000 f8d5 	bl	8000ef8 <SystemClock_Config>
  /* USER CODE BEGIN SysInit */

  /* USER CODE END SysInit */

  /* Initialize all configured peripherals */
  MX_GPIO_Init();
 8000d4e:	f000 faff 	bl	8001350 <MX_GPIO_Init>
  MX_TIM4_Init();
 8000d52:	f000 fa71 	bl	8001238 <MX_TIM4_Init>
  MX_ADC1_Init();
 8000d56:	f000 f92b 	bl	8000fb0 <MX_ADC1_Init>
  MX_ADC2_Init();
 8000d5a:	f000 f97b 	bl	8001054 <MX_ADC2_Init>
  MX_ADC3_Init();
 8000d5e:	f000 f9cb 	bl	80010f8 <MX_ADC3_Init>
  MX_TIM3_Init();
 8000d62:	f000 fa1b 	bl	800119c <MX_TIM3_Init>

  /* USER CODE END 2 */

  /* Infinite loop */
  /* USER CODE BEGIN WHILE */
  uint16_t adc = 0;
 8000d66:	2300      	movs	r3, #0
 8000d68:	80bb      	strh	r3, [r7, #4]
  uint8_t danger[] = {0, 0, 0};
 8000d6a:	4a58      	ldr	r2, [pc, #352]	; (8000ecc <main+0x18c>)
 8000d6c:	463b      	mov	r3, r7
 8000d6e:	6812      	ldr	r2, [r2, #0]
 8000d70:	4611      	mov	r1, r2
 8000d72:	8019      	strh	r1, [r3, #0]
 8000d74:	3302      	adds	r3, #2
 8000d76:	0c12      	lsrs	r2, r2, #16
 8000d78:	701a      	strb	r2, [r3, #0]

  HAL_TIM_Base_Start_IT(&htim3);
 8000d7a:	4855      	ldr	r0, [pc, #340]	; (8000ed0 <main+0x190>)
 8000d7c:	f002 f8ae 	bl	8002edc <HAL_TIM_Base_Start_IT>
  HAL_TIM_PWM_Start(&htim4, TIM_CHANNEL_1);
 8000d80:	2100      	movs	r1, #0
 8000d82:	4854      	ldr	r0, [pc, #336]	; (8000ed4 <main+0x194>)
 8000d84:	f002 f974 	bl	8003070 <HAL_TIM_PWM_Start>
  HAL_TIM_PWM_Start(&htim4, TIM_CHANNEL_2);
 8000d88:	2104      	movs	r1, #4
 8000d8a:	4852      	ldr	r0, [pc, #328]	; (8000ed4 <main+0x194>)
 8000d8c:	f002 f970 	bl	8003070 <HAL_TIM_PWM_Start>
  HAL_TIM_PWM_Start(&htim4, TIM_CHANNEL_4);
 8000d90:	210c      	movs	r1, #12
 8000d92:	4850      	ldr	r0, [pc, #320]	; (8000ed4 <main+0x194>)
 8000d94:	f002 f96c 	bl	8003070 <HAL_TIM_PWM_Start>
  HAL_ADC_Start(&hadc1);
 8000d98:	484f      	ldr	r0, [pc, #316]	; (8000ed8 <main+0x198>)
 8000d9a:	f000 fda5 	bl	80018e8 <HAL_ADC_Start>
  HAL_ADC_Start(&hadc2);
 8000d9e:	484f      	ldr	r0, [pc, #316]	; (8000edc <main+0x19c>)
 8000da0:	f000 fda2 	bl	80018e8 <HAL_ADC_Start>
  HAL_ADC_Start(&hadc3);
 8000da4:	484e      	ldr	r0, [pc, #312]	; (8000ee0 <main+0x1a0>)
 8000da6:	f000 fd9f 	bl	80018e8 <HAL_ADC_Start>
  while (1)
  {
	if(HAL_ADC_PollForConversion(&hadc1, ADC_READ_TIMEOUT) == HAL_OK)
 8000daa:	2101      	movs	r1, #1
 8000dac:	484a      	ldr	r0, [pc, #296]	; (8000ed8 <main+0x198>)
 8000dae:	f000 fe6d 	bl	8001a8c <HAL_ADC_PollForConversion>
 8000db2:	4603      	mov	r3, r0
 8000db4:	2b00      	cmp	r3, #0
 8000db6:	d114      	bne.n	8000de2 <main+0xa2>
	{
		adc = HAL_ADC_GetValue(&hadc1);
 8000db8:	4847      	ldr	r0, [pc, #284]	; (8000ed8 <main+0x198>)
 8000dba:	f000 fef2 	bl	8001ba2 <HAL_ADC_GetValue>
 8000dbe:	4603      	mov	r3, r0
 8000dc0:	80bb      	strh	r3, [r7, #4]
		adc = ADC_to_INTT(adc);
 8000dc2:	88bb      	ldrh	r3, [r7, #4]
 8000dc4:	4618      	mov	r0, r3
 8000dc6:	f7ff ff83 	bl	8000cd0 <ADC_to_INTT>
 8000dca:	4603      	mov	r3, r0
 8000dcc:	80bb      	strh	r3, [r7, #4]
		danger[INTERNAL_T] = adc > CRIT_INTERNAL_T ? true : false;
 8000dce:	88bb      	ldrh	r3, [r7, #4]
 8000dd0:	2b28      	cmp	r3, #40	; 0x28
 8000dd2:	bf94      	ite	ls
 8000dd4:	2301      	movls	r3, #1
 8000dd6:	2300      	movhi	r3, #0
 8000dd8:	b2db      	uxtb	r3, r3
 8000dda:	703b      	strb	r3, [r7, #0]
		ORANGE_LED_PWM = adc;
 8000ddc:	4a41      	ldr	r2, [pc, #260]	; (8000ee4 <main+0x1a4>)
 8000dde:	88bb      	ldrh	r3, [r7, #4]
 8000de0:	6393      	str	r3, [r2, #56]	; 0x38
	}

	if(HAL_ADC_PollForConversion(&hadc2, ADC_READ_TIMEOUT) == HAL_OK)
 8000de2:	2101      	movs	r1, #1
 8000de4:	483d      	ldr	r0, [pc, #244]	; (8000edc <main+0x19c>)
 8000de6:	f000 fe51 	bl	8001a8c <HAL_ADC_PollForConversion>
 8000dea:	4603      	mov	r3, r0
 8000dec:	2b00      	cmp	r3, #0
 8000dee:	d11a      	bne.n	8000e26 <main+0xe6>
	{
		adc = HAL_ADC_GetValue(&hadc2);
 8000df0:	483a      	ldr	r0, [pc, #232]	; (8000edc <main+0x19c>)
 8000df2:	f000 fed6 	bl	8001ba2 <HAL_ADC_GetValue>
 8000df6:	4603      	mov	r3, r0
 8000df8:	80bb      	strh	r3, [r7, #4]
		adc = ADC_to_EXTT(adc);
 8000dfa:	88ba      	ldrh	r2, [r7, #4]
 8000dfc:	4b3a      	ldr	r3, [pc, #232]	; (8000ee8 <main+0x1a8>)
 8000dfe:	fba3 1302 	umull	r1, r3, r3, r2
 8000e02:	1ad2      	subs	r2, r2, r3
 8000e04:	0852      	lsrs	r2, r2, #1
 8000e06:	4413      	add	r3, r2
 8000e08:	091b      	lsrs	r3, r3, #4
 8000e0a:	b29b      	uxth	r3, r3
 8000e0c:	f1c3 0364 	rsb	r3, r3, #100	; 0x64
 8000e10:	80bb      	strh	r3, [r7, #4]
		danger[EXTERNAL_T] = adc > CRIT_EXTERNAL_T  ? true : false;
 8000e12:	88bb      	ldrh	r3, [r7, #4]
 8000e14:	2b1e      	cmp	r3, #30
 8000e16:	bf94      	ite	ls
 8000e18:	2301      	movls	r3, #1
 8000e1a:	2300      	movhi	r3, #0
 8000e1c:	b2db      	uxtb	r3, r3
 8000e1e:	707b      	strb	r3, [r7, #1]
		GREEN_LED_PWM = adc;
 8000e20:	4a30      	ldr	r2, [pc, #192]	; (8000ee4 <main+0x1a4>)
 8000e22:	88bb      	ldrh	r3, [r7, #4]
 8000e24:	6353      	str	r3, [r2, #52]	; 0x34
	}
	if(HAL_ADC_PollForConversion(&hadc3, ADC_READ_TIMEOUT) == HAL_OK)
 8000e26:	2101      	movs	r1, #1
 8000e28:	482d      	ldr	r0, [pc, #180]	; (8000ee0 <main+0x1a0>)
 8000e2a:	f000 fe2f 	bl	8001a8c <HAL_ADC_PollForConversion>
 8000e2e:	4603      	mov	r3, r0
 8000e30:	2b00      	cmp	r3, #0
 8000e32:	d11e      	bne.n	8000e72 <main+0x132>
	{
		adc = HAL_ADC_GetValue(&hadc3);
 8000e34:	482a      	ldr	r0, [pc, #168]	; (8000ee0 <main+0x1a0>)
 8000e36:	f000 feb4 	bl	8001ba2 <HAL_ADC_GetValue>
 8000e3a:	4603      	mov	r3, r0
 8000e3c:	80bb      	strh	r3, [r7, #4]
		danger[POTENTIOMETR] = ADC_to_V(adc) >= CRIT_VOLTAGE ? true : false;
 8000e3e:	88bb      	ldrh	r3, [r7, #4]
 8000e40:	4618      	mov	r0, r3
 8000e42:	f7ff ff2b 	bl	8000c9c <ADC_to_V>
 8000e46:	4603      	mov	r3, r0
 8000e48:	f240 424b 	movw	r2, #1099	; 0x44b
 8000e4c:	4293      	cmp	r3, r2
 8000e4e:	bf94      	ite	ls
 8000e50:	2301      	movls	r3, #1
 8000e52:	2300      	movhi	r3, #0
 8000e54:	b2db      	uxtb	r3, r3
 8000e56:	70bb      	strb	r3, [r7, #2]
		BLUE_LED_PWM = (adc * 100) / ADC_RES;
 8000e58:	88bb      	ldrh	r3, [r7, #4]
 8000e5a:	2264      	movs	r2, #100	; 0x64
 8000e5c:	fb02 f303 	mul.w	r3, r2, r3
 8000e60:	4a22      	ldr	r2, [pc, #136]	; (8000eec <main+0x1ac>)
 8000e62:	fb82 1203 	smull	r1, r2, r2, r3
 8000e66:	441a      	add	r2, r3
 8000e68:	12d2      	asrs	r2, r2, #11
 8000e6a:	17db      	asrs	r3, r3, #31
 8000e6c:	1ad2      	subs	r2, r2, r3
 8000e6e:	4b1d      	ldr	r3, [pc, #116]	; (8000ee4 <main+0x1a4>)
 8000e70:	641a      	str	r2, [r3, #64]	; 0x40
	}

	danger_level = 0;
 8000e72:	4b1f      	ldr	r3, [pc, #124]	; (8000ef0 <main+0x1b0>)
 8000e74:	2200      	movs	r2, #0
 8000e76:	701a      	strb	r2, [r3, #0]
	for(uint8_t i = 0; i < MEASURED_VALUES; i++)
 8000e78:	2300      	movs	r3, #0
 8000e7a:	71fb      	strb	r3, [r7, #7]
 8000e7c:	e00f      	b.n	8000e9e <main+0x15e>
		danger_level += danger[i];
 8000e7e:	79fb      	ldrb	r3, [r7, #7]
 8000e80:	f107 0208 	add.w	r2, r7, #8
 8000e84:	4413      	add	r3, r2
 8000e86:	f813 2c08 	ldrb.w	r2, [r3, #-8]
 8000e8a:	4b19      	ldr	r3, [pc, #100]	; (8000ef0 <main+0x1b0>)
 8000e8c:	781b      	ldrb	r3, [r3, #0]
 8000e8e:	b2db      	uxtb	r3, r3
 8000e90:	4413      	add	r3, r2
 8000e92:	b2da      	uxtb	r2, r3
 8000e94:	4b16      	ldr	r3, [pc, #88]	; (8000ef0 <main+0x1b0>)
 8000e96:	701a      	strb	r2, [r3, #0]
	for(uint8_t i = 0; i < MEASURED_VALUES; i++)
 8000e98:	79fb      	ldrb	r3, [r7, #7]
 8000e9a:	3301      	adds	r3, #1
 8000e9c:	71fb      	strb	r3, [r7, #7]
 8000e9e:	79fb      	ldrb	r3, [r7, #7]
 8000ea0:	2b02      	cmp	r3, #2
 8000ea2:	d9ec      	bls.n	8000e7e <main+0x13e>
	if(danger_level)
 8000ea4:	4b12      	ldr	r3, [pc, #72]	; (8000ef0 <main+0x1b0>)
 8000ea6:	781b      	ldrb	r3, [r3, #0]
 8000ea8:	b2db      	uxtb	r3, r3
 8000eaa:	2b00      	cmp	r3, #0
 8000eac:	f43f af7d 	beq.w	8000daa <main+0x6a>
		ALARM_FREQUENCY = (5 / danger_level) * 100; /* 1, 2.5, 5 Hz */
 8000eb0:	4b0f      	ldr	r3, [pc, #60]	; (8000ef0 <main+0x1b0>)
 8000eb2:	781b      	ldrb	r3, [r3, #0]
 8000eb4:	b2db      	uxtb	r3, r3
 8000eb6:	461a      	mov	r2, r3
 8000eb8:	2305      	movs	r3, #5
 8000eba:	fb93 f3f2 	sdiv	r3, r3, r2
 8000ebe:	2264      	movs	r2, #100	; 0x64
 8000ec0:	fb02 f203 	mul.w	r2, r2, r3
 8000ec4:	4b0b      	ldr	r3, [pc, #44]	; (8000ef4 <main+0x1b4>)
 8000ec6:	62da      	str	r2, [r3, #44]	; 0x2c
	if(HAL_ADC_PollForConversion(&hadc1, ADC_READ_TIMEOUT) == HAL_OK)
 8000ec8:	e76f      	b.n	8000daa <main+0x6a>
 8000eca:	bf00      	nop
 8000ecc:	08003f38 	.word	0x08003f38
 8000ed0:	200000bc 	.word	0x200000bc
 8000ed4:	2000002c 	.word	0x2000002c
 8000ed8:	20000104 	.word	0x20000104
 8000edc:	20000074 	.word	0x20000074
 8000ee0:	2000014c 	.word	0x2000014c
 8000ee4:	40000800 	.word	0x40000800
 8000ee8:	2f684bdb 	.word	0x2f684bdb
 8000eec:	80080081 	.word	0x80080081
 8000ef0:	20000028 	.word	0x20000028
 8000ef4:	40000400 	.word	0x40000400

08000ef8 <SystemClock_Config>:
/**
  * @brief System Clock Configuration
  * @retval None
  */
void SystemClock_Config(void)
{
 8000ef8:	b580      	push	{r7, lr}
 8000efa:	b094      	sub	sp, #80	; 0x50
 8000efc:	af00      	add	r7, sp, #0
  RCC_OscInitTypeDef RCC_OscInitStruct = {0};
 8000efe:	f107 0320 	add.w	r3, r7, #32
 8000f02:	2230      	movs	r2, #48	; 0x30
 8000f04:	2100      	movs	r1, #0
 8000f06:	4618      	mov	r0, r3
 8000f08:	f003 f802 	bl	8003f10 <memset>
  RCC_ClkInitTypeDef RCC_ClkInitStruct = {0};
 8000f0c:	f107 030c 	add.w	r3, r7, #12
 8000f10:	2200      	movs	r2, #0
 8000f12:	601a      	str	r2, [r3, #0]
 8000f14:	605a      	str	r2, [r3, #4]
 8000f16:	609a      	str	r2, [r3, #8]
 8000f18:	60da      	str	r2, [r3, #12]
 8000f1a:	611a      	str	r2, [r3, #16]

  /** Configure the main internal regulator output voltage
  */
  __HAL_RCC_PWR_CLK_ENABLE();
 8000f1c:	2300      	movs	r3, #0
 8000f1e:	60bb      	str	r3, [r7, #8]
 8000f20:	4b21      	ldr	r3, [pc, #132]	; (8000fa8 <SystemClock_Config+0xb0>)
 8000f22:	6c1b      	ldr	r3, [r3, #64]	; 0x40
 8000f24:	4a20      	ldr	r2, [pc, #128]	; (8000fa8 <SystemClock_Config+0xb0>)
 8000f26:	f043 5380 	orr.w	r3, r3, #268435456	; 0x10000000
 8000f2a:	6413      	str	r3, [r2, #64]	; 0x40
 8000f2c:	4b1e      	ldr	r3, [pc, #120]	; (8000fa8 <SystemClock_Config+0xb0>)
 8000f2e:	6c1b      	ldr	r3, [r3, #64]	; 0x40
 8000f30:	f003 5380 	and.w	r3, r3, #268435456	; 0x10000000
 8000f34:	60bb      	str	r3, [r7, #8]
 8000f36:	68bb      	ldr	r3, [r7, #8]
  __HAL_PWR_VOLTAGESCALING_CONFIG(PWR_REGULATOR_VOLTAGE_SCALE1);
 8000f38:	2300      	movs	r3, #0
 8000f3a:	607b      	str	r3, [r7, #4]
 8000f3c:	4b1b      	ldr	r3, [pc, #108]	; (8000fac <SystemClock_Config+0xb4>)
 8000f3e:	681b      	ldr	r3, [r3, #0]
 8000f40:	4a1a      	ldr	r2, [pc, #104]	; (8000fac <SystemClock_Config+0xb4>)
 8000f42:	f443 4380 	orr.w	r3, r3, #16384	; 0x4000
 8000f46:	6013      	str	r3, [r2, #0]
 8000f48:	4b18      	ldr	r3, [pc, #96]	; (8000fac <SystemClock_Config+0xb4>)
 8000f4a:	681b      	ldr	r3, [r3, #0]
 8000f4c:	f403 4380 	and.w	r3, r3, #16384	; 0x4000
 8000f50:	607b      	str	r3, [r7, #4]
 8000f52:	687b      	ldr	r3, [r7, #4]
  /** Initializes the RCC Oscillators according to the specified parameters
  * in the RCC_OscInitTypeDef structure.
  */
  RCC_OscInitStruct.OscillatorType = RCC_OSCILLATORTYPE_HSE;
 8000f54:	2301      	movs	r3, #1
 8000f56:	623b      	str	r3, [r7, #32]
  RCC_OscInitStruct.HSEState = RCC_HSE_ON;
 8000f58:	f44f 3380 	mov.w	r3, #65536	; 0x10000
 8000f5c:	627b      	str	r3, [r7, #36]	; 0x24
  RCC_OscInitStruct.PLL.PLLState = RCC_PLL_NONE;
 8000f5e:	2300      	movs	r3, #0
 8000f60:	63bb      	str	r3, [r7, #56]	; 0x38
  if (HAL_RCC_OscConfig(&RCC_OscInitStruct) != HAL_OK)
 8000f62:	f107 0320 	add.w	r3, r7, #32
 8000f66:	4618      	mov	r0, r3
 8000f68:	f001 fb28 	bl	80025bc <HAL_RCC_OscConfig>
 8000f6c:	4603      	mov	r3, r0
 8000f6e:	2b00      	cmp	r3, #0
 8000f70:	d001      	beq.n	8000f76 <SystemClock_Config+0x7e>
  {
    Error_Handler();
 8000f72:	f000 fa4d 	bl	8001410 <Error_Handler>
  }
  /** Initializes the CPU, AHB and APB buses clocks
  */
  RCC_ClkInitStruct.ClockType = RCC_CLOCKTYPE_HCLK|RCC_CLOCKTYPE_SYSCLK
 8000f76:	230f      	movs	r3, #15
 8000f78:	60fb      	str	r3, [r7, #12]
                              |RCC_CLOCKTYPE_PCLK1|RCC_CLOCKTYPE_PCLK2;
  RCC_ClkInitStruct.SYSCLKSource = RCC_SYSCLKSOURCE_HSE;
 8000f7a:	2301      	movs	r3, #1
 8000f7c:	613b      	str	r3, [r7, #16]
  RCC_ClkInitStruct.AHBCLKDivider = RCC_SYSCLK_DIV1;
 8000f7e:	2300      	movs	r3, #0
 8000f80:	617b      	str	r3, [r7, #20]
  RCC_ClkInitStruct.APB1CLKDivider = RCC_HCLK_DIV1;
 8000f82:	2300      	movs	r3, #0
 8000f84:	61bb      	str	r3, [r7, #24]
  RCC_ClkInitStruct.APB2CLKDivider = RCC_HCLK_DIV1;
 8000f86:	2300      	movs	r3, #0
 8000f88:	61fb      	str	r3, [r7, #28]

  if (HAL_RCC_ClockConfig(&RCC_ClkInitStruct, FLASH_LATENCY_0) != HAL_OK)
 8000f8a:	f107 030c 	add.w	r3, r7, #12
 8000f8e:	2100      	movs	r1, #0
 8000f90:	4618      	mov	r0, r3
 8000f92:	f001 fd8b 	bl	8002aac <HAL_RCC_ClockConfig>
 8000f96:	4603      	mov	r3, r0
 8000f98:	2b00      	cmp	r3, #0
 8000f9a:	d001      	beq.n	8000fa0 <SystemClock_Config+0xa8>
  {
    Error_Handler();
 8000f9c:	f000 fa38 	bl	8001410 <Error_Handler>
  }
}
 8000fa0:	bf00      	nop
 8000fa2:	3750      	adds	r7, #80	; 0x50
 8000fa4:	46bd      	mov	sp, r7
 8000fa6:	bd80      	pop	{r7, pc}
 8000fa8:	40023800 	.word	0x40023800
 8000fac:	40007000 	.word	0x40007000

08000fb0 <MX_ADC1_Init>:
  * @brief ADC1 Initialization Function
  * @param None
  * @retval None
  */
static void MX_ADC1_Init(void)
{
 8000fb0:	b580      	push	{r7, lr}
 8000fb2:	b084      	sub	sp, #16
 8000fb4:	af00      	add	r7, sp, #0

  /* USER CODE BEGIN ADC1_Init 0 */

  /* USER CODE END ADC1_Init 0 */

  ADC_ChannelConfTypeDef sConfig = {0};
 8000fb6:	463b      	mov	r3, r7
 8000fb8:	2200      	movs	r2, #0
 8000fba:	601a      	str	r2, [r3, #0]
 8000fbc:	605a      	str	r2, [r3, #4]
 8000fbe:	609a      	str	r2, [r3, #8]
 8000fc0:	60da      	str	r2, [r3, #12]
  /* USER CODE BEGIN ADC1_Init 1 */

  /* USER CODE END ADC1_Init 1 */
  /** Configure the global features of the ADC (Clock, Resolution, Data Alignment and number of conversion)
  */
  hadc1.Instance = ADC1;
 8000fc2:	4b21      	ldr	r3, [pc, #132]	; (8001048 <MX_ADC1_Init+0x98>)
 8000fc4:	4a21      	ldr	r2, [pc, #132]	; (800104c <MX_ADC1_Init+0x9c>)
 8000fc6:	601a      	str	r2, [r3, #0]
  hadc1.Init.ClockPrescaler = ADC_CLOCK_SYNC_PCLK_DIV8;
 8000fc8:	4b1f      	ldr	r3, [pc, #124]	; (8001048 <MX_ADC1_Init+0x98>)
 8000fca:	f44f 3240 	mov.w	r2, #196608	; 0x30000
 8000fce:	605a      	str	r2, [r3, #4]
  hadc1.Init.Resolution = ADC_RESOLUTION_12B;
 8000fd0:	4b1d      	ldr	r3, [pc, #116]	; (8001048 <MX_ADC1_Init+0x98>)
 8000fd2:	2200      	movs	r2, #0
 8000fd4:	609a      	str	r2, [r3, #8]
  hadc1.Init.ScanConvMode = DISABLE;
 8000fd6:	4b1c      	ldr	r3, [pc, #112]	; (8001048 <MX_ADC1_Init+0x98>)
 8000fd8:	2200      	movs	r2, #0
 8000fda:	611a      	str	r2, [r3, #16]
  hadc1.Init.ContinuousConvMode = ENABLE;
 8000fdc:	4b1a      	ldr	r3, [pc, #104]	; (8001048 <MX_ADC1_Init+0x98>)
 8000fde:	2201      	movs	r2, #1
 8000fe0:	761a      	strb	r2, [r3, #24]
  hadc1.Init.DiscontinuousConvMode = DISABLE;
 8000fe2:	4b19      	ldr	r3, [pc, #100]	; (8001048 <MX_ADC1_Init+0x98>)
 8000fe4:	2200      	movs	r2, #0
 8000fe6:	f883 2020 	strb.w	r2, [r3, #32]
  hadc1.Init.ExternalTrigConvEdge = ADC_EXTERNALTRIGCONVEDGE_NONE;
 8000fea:	4b17      	ldr	r3, [pc, #92]	; (8001048 <MX_ADC1_Init+0x98>)
 8000fec:	2200      	movs	r2, #0
 8000fee:	62da      	str	r2, [r3, #44]	; 0x2c
  hadc1.Init.ExternalTrigConv = ADC_SOFTWARE_START;
 8000ff0:	4b15      	ldr	r3, [pc, #84]	; (8001048 <MX_ADC1_Init+0x98>)
 8000ff2:	4a17      	ldr	r2, [pc, #92]	; (8001050 <MX_ADC1_Init+0xa0>)
 8000ff4:	629a      	str	r2, [r3, #40]	; 0x28
  hadc1.Init.DataAlign = ADC_DATAALIGN_RIGHT;
 8000ff6:	4b14      	ldr	r3, [pc, #80]	; (8001048 <MX_ADC1_Init+0x98>)
 8000ff8:	2200      	movs	r2, #0
 8000ffa:	60da      	str	r2, [r3, #12]
  hadc1.Init.NbrOfConversion = 1;
 8000ffc:	4b12      	ldr	r3, [pc, #72]	; (8001048 <MX_ADC1_Init+0x98>)
 8000ffe:	2201      	movs	r2, #1
 8001000:	61da      	str	r2, [r3, #28]
  hadc1.Init.DMAContinuousRequests = DISABLE;
 8001002:	4b11      	ldr	r3, [pc, #68]	; (8001048 <MX_ADC1_Init+0x98>)
 8001004:	2200      	movs	r2, #0
 8001006:	f883 2030 	strb.w	r2, [r3, #48]	; 0x30
  hadc1.Init.EOCSelection = ADC_EOC_SINGLE_CONV;
 800100a:	4b0f      	ldr	r3, [pc, #60]	; (8001048 <MX_ADC1_Init+0x98>)
 800100c:	2201      	movs	r2, #1
 800100e:	615a      	str	r2, [r3, #20]
  if (HAL_ADC_Init(&hadc1) != HAL_OK)
 8001010:	480d      	ldr	r0, [pc, #52]	; (8001048 <MX_ADC1_Init+0x98>)
 8001012:	f000 fc25 	bl	8001860 <HAL_ADC_Init>
 8001016:	4603      	mov	r3, r0
 8001018:	2b00      	cmp	r3, #0
 800101a:	d001      	beq.n	8001020 <MX_ADC1_Init+0x70>
  {
    Error_Handler();
 800101c:	f000 f9f8 	bl	8001410 <Error_Handler>
  }
  /** Configure for the selected ADC regular channel its corresponding rank in the sequencer and its sample time.
  */
  sConfig.Channel = ADC_CHANNEL_TEMPSENSOR;
 8001020:	2310      	movs	r3, #16
 8001022:	603b      	str	r3, [r7, #0]
  sConfig.Rank = 1;
 8001024:	2301      	movs	r3, #1
 8001026:	607b      	str	r3, [r7, #4]
  sConfig.SamplingTime = ADC_SAMPLETIME_480CYCLES;
 8001028:	2307      	movs	r3, #7
 800102a:	60bb      	str	r3, [r7, #8]
  if (HAL_ADC_ConfigChannel(&hadc1, &sConfig) != HAL_OK)
 800102c:	463b      	mov	r3, r7
 800102e:	4619      	mov	r1, r3
 8001030:	4805      	ldr	r0, [pc, #20]	; (8001048 <MX_ADC1_Init+0x98>)
 8001032:	f000 fdc3 	bl	8001bbc <HAL_ADC_ConfigChannel>
 8001036:	4603      	mov	r3, r0
 8001038:	2b00      	cmp	r3, #0
 800103a:	d001      	beq.n	8001040 <MX_ADC1_Init+0x90>
  {
    Error_Handler();
 800103c:	f000 f9e8 	bl	8001410 <Error_Handler>
  }
  /* USER CODE BEGIN ADC1_Init 2 */

  /* USER CODE END ADC1_Init 2 */

}
 8001040:	bf00      	nop
 8001042:	3710      	adds	r7, #16
 8001044:	46bd      	mov	sp, r7
 8001046:	bd80      	pop	{r7, pc}
 8001048:	20000104 	.word	0x20000104
 800104c:	40012000 	.word	0x40012000
 8001050:	0f000001 	.word	0x0f000001

08001054 <MX_ADC2_Init>:
  * @brief ADC2 Initialization Function
  * @param None
  * @retval None
  */
static void MX_ADC2_Init(void)
{
 8001054:	b580      	push	{r7, lr}
 8001056:	b084      	sub	sp, #16
 8001058:	af00      	add	r7, sp, #0

  /* USER CODE BEGIN ADC2_Init 0 */

  /* USER CODE END ADC2_Init 0 */

  ADC_ChannelConfTypeDef sConfig = {0};
 800105a:	463b      	mov	r3, r7
 800105c:	2200      	movs	r2, #0
 800105e:	601a      	str	r2, [r3, #0]
 8001060:	605a      	str	r2, [r3, #4]
 8001062:	609a      	str	r2, [r3, #8]
 8001064:	60da      	str	r2, [r3, #12]
  /* USER CODE BEGIN ADC2_Init 1 */

  /* USER CODE END ADC2_Init 1 */
  /** Configure the global features of the ADC (Clock, Resolution, Data Alignment and number of conversion)
  */
  hadc2.Instance = ADC2;
 8001066:	4b21      	ldr	r3, [pc, #132]	; (80010ec <MX_ADC2_Init+0x98>)
 8001068:	4a21      	ldr	r2, [pc, #132]	; (80010f0 <MX_ADC2_Init+0x9c>)
 800106a:	601a      	str	r2, [r3, #0]
  hadc2.Init.ClockPrescaler = ADC_CLOCK_SYNC_PCLK_DIV8;
 800106c:	4b1f      	ldr	r3, [pc, #124]	; (80010ec <MX_ADC2_Init+0x98>)
 800106e:	f44f 3240 	mov.w	r2, #196608	; 0x30000
 8001072:	605a      	str	r2, [r3, #4]
  hadc2.Init.Resolution = ADC_RESOLUTION_12B;
 8001074:	4b1d      	ldr	r3, [pc, #116]	; (80010ec <MX_ADC2_Init+0x98>)
 8001076:	2200      	movs	r2, #0
 8001078:	609a      	str	r2, [r3, #8]
  hadc2.Init.ScanConvMode = DISABLE;
 800107a:	4b1c      	ldr	r3, [pc, #112]	; (80010ec <MX_ADC2_Init+0x98>)
 800107c:	2200      	movs	r2, #0
 800107e:	611a      	str	r2, [r3, #16]
  hadc2.Init.ContinuousConvMode = ENABLE;
 8001080:	4b1a      	ldr	r3, [pc, #104]	; (80010ec <MX_ADC2_Init+0x98>)
 8001082:	2201      	movs	r2, #1
 8001084:	761a      	strb	r2, [r3, #24]
  hadc2.Init.DiscontinuousConvMode = DISABLE;
 8001086:	4b19      	ldr	r3, [pc, #100]	; (80010ec <MX_ADC2_Init+0x98>)
 8001088:	2200      	movs	r2, #0
 800108a:	f883 2020 	strb.w	r2, [r3, #32]
  hadc2.Init.ExternalTrigConvEdge = ADC_EXTERNALTRIGCONVEDGE_NONE;
 800108e:	4b17      	ldr	r3, [pc, #92]	; (80010ec <MX_ADC2_Init+0x98>)
 8001090:	2200      	movs	r2, #0
 8001092:	62da      	str	r2, [r3, #44]	; 0x2c
  hadc2.Init.ExternalTrigConv = ADC_SOFTWARE_START;
 8001094:	4b15      	ldr	r3, [pc, #84]	; (80010ec <MX_ADC2_Init+0x98>)
 8001096:	4a17      	ldr	r2, [pc, #92]	; (80010f4 <MX_ADC2_Init+0xa0>)
 8001098:	629a      	str	r2, [r3, #40]	; 0x28
  hadc2.Init.DataAlign = ADC_DATAALIGN_RIGHT;
 800109a:	4b14      	ldr	r3, [pc, #80]	; (80010ec <MX_ADC2_Init+0x98>)
 800109c:	2200      	movs	r2, #0
 800109e:	60da      	str	r2, [r3, #12]
  hadc2.Init.NbrOfConversion = 1;
 80010a0:	4b12      	ldr	r3, [pc, #72]	; (80010ec <MX_ADC2_Init+0x98>)
 80010a2:	2201      	movs	r2, #1
 80010a4:	61da      	str	r2, [r3, #28]
  hadc2.Init.DMAContinuousRequests = DISABLE;
 80010a6:	4b11      	ldr	r3, [pc, #68]	; (80010ec <MX_ADC2_Init+0x98>)
 80010a8:	2200      	movs	r2, #0
 80010aa:	f883 2030 	strb.w	r2, [r3, #48]	; 0x30
  hadc2.Init.EOCSelection = ADC_EOC_SINGLE_CONV;
 80010ae:	4b0f      	ldr	r3, [pc, #60]	; (80010ec <MX_ADC2_Init+0x98>)
 80010b0:	2201      	movs	r2, #1
 80010b2:	615a      	str	r2, [r3, #20]
  if (HAL_ADC_Init(&hadc2) != HAL_OK)
 80010b4:	480d      	ldr	r0, [pc, #52]	; (80010ec <MX_ADC2_Init+0x98>)
 80010b6:	f000 fbd3 	bl	8001860 <HAL_ADC_Init>
 80010ba:	4603      	mov	r3, r0
 80010bc:	2b00      	cmp	r3, #0
 80010be:	d001      	beq.n	80010c4 <MX_ADC2_Init+0x70>
  {
    Error_Handler();
 80010c0:	f000 f9a6 	bl	8001410 <Error_Handler>
  }
  /** Configure for the selected ADC regular channel its corresponding rank in the sequencer and its sample time.
  */
  sConfig.Channel = ADC_CHANNEL_9;
 80010c4:	2309      	movs	r3, #9
 80010c6:	603b      	str	r3, [r7, #0]
  sConfig.Rank = 1;
 80010c8:	2301      	movs	r3, #1
 80010ca:	607b      	str	r3, [r7, #4]
  sConfig.SamplingTime = ADC_SAMPLETIME_480CYCLES;
 80010cc:	2307      	movs	r3, #7
 80010ce:	60bb      	str	r3, [r7, #8]
  if (HAL_ADC_ConfigChannel(&hadc2, &sConfig) != HAL_OK)
 80010d0:	463b      	mov	r3, r7
 80010d2:	4619      	mov	r1, r3
 80010d4:	4805      	ldr	r0, [pc, #20]	; (80010ec <MX_ADC2_Init+0x98>)
 80010d6:	f000 fd71 	bl	8001bbc <HAL_ADC_ConfigChannel>
 80010da:	4603      	mov	r3, r0
 80010dc:	2b00      	cmp	r3, #0
 80010de:	d001      	beq.n	80010e4 <MX_ADC2_Init+0x90>
  {
    Error_Handler();
 80010e0:	f000 f996 	bl	8001410 <Error_Handler>
  }
  /* USER CODE BEGIN ADC2_Init 2 */

  /* USER CODE END ADC2_Init 2 */

}
 80010e4:	bf00      	nop
 80010e6:	3710      	adds	r7, #16
 80010e8:	46bd      	mov	sp, r7
 80010ea:	bd80      	pop	{r7, pc}
 80010ec:	20000074 	.word	0x20000074
 80010f0:	40012100 	.word	0x40012100
 80010f4:	0f000001 	.word	0x0f000001

080010f8 <MX_ADC3_Init>:
  * @brief ADC3 Initialization Function
  * @param None
  * @retval None
  */
static void MX_ADC3_Init(void)
{
 80010f8:	b580      	push	{r7, lr}
 80010fa:	b084      	sub	sp, #16
 80010fc:	af00      	add	r7, sp, #0

  /* USER CODE BEGIN ADC3_Init 0 */

  /* USER CODE END ADC3_Init 0 */

  ADC_ChannelConfTypeDef sConfig = {0};
 80010fe:	463b      	mov	r3, r7
 8001100:	2200      	movs	r2, #0
 8001102:	601a      	str	r2, [r3, #0]
 8001104:	605a      	str	r2, [r3, #4]
 8001106:	609a      	str	r2, [r3, #8]
 8001108:	60da      	str	r2, [r3, #12]
  /* USER CODE BEGIN ADC3_Init 1 */

  /* USER CODE END ADC3_Init 1 */
  /** Configure the global features of the ADC (Clock, Resolution, Data Alignment and number of conversion)
  */
  hadc3.Instance = ADC3;
 800110a:	4b21      	ldr	r3, [pc, #132]	; (8001190 <MX_ADC3_Init+0x98>)
 800110c:	4a21      	ldr	r2, [pc, #132]	; (8001194 <MX_ADC3_Init+0x9c>)
 800110e:	601a      	str	r2, [r3, #0]
  hadc3.Init.ClockPrescaler = ADC_CLOCK_SYNC_PCLK_DIV8;
 8001110:	4b1f      	ldr	r3, [pc, #124]	; (8001190 <MX_ADC3_Init+0x98>)
 8001112:	f44f 3240 	mov.w	r2, #196608	; 0x30000
 8001116:	605a      	str	r2, [r3, #4]
  hadc3.Init.Resolution = ADC_RESOLUTION_12B;
 8001118:	4b1d      	ldr	r3, [pc, #116]	; (8001190 <MX_ADC3_Init+0x98>)
 800111a:	2200      	movs	r2, #0
 800111c:	609a      	str	r2, [r3, #8]
  hadc3.Init.ScanConvMode = DISABLE;
 800111e:	4b1c      	ldr	r3, [pc, #112]	; (8001190 <MX_ADC3_Init+0x98>)
 8001120:	2200      	movs	r2, #0
 8001122:	611a      	str	r2, [r3, #16]
  hadc3.Init.ContinuousConvMode = ENABLE;
 8001124:	4b1a      	ldr	r3, [pc, #104]	; (8001190 <MX_ADC3_Init+0x98>)
 8001126:	2201      	movs	r2, #1
 8001128:	761a      	strb	r2, [r3, #24]
  hadc3.Init.DiscontinuousConvMode = DISABLE;
 800112a:	4b19      	ldr	r3, [pc, #100]	; (8001190 <MX_ADC3_Init+0x98>)
 800112c:	2200      	movs	r2, #0
 800112e:	f883 2020 	strb.w	r2, [r3, #32]
  hadc3.Init.ExternalTrigConvEdge = ADC_EXTERNALTRIGCONVEDGE_NONE;
 8001132:	4b17      	ldr	r3, [pc, #92]	; (8001190 <MX_ADC3_Init+0x98>)
 8001134:	2200      	movs	r2, #0
 8001136:	62da      	str	r2, [r3, #44]	; 0x2c
  hadc3.Init.ExternalTrigConv = ADC_SOFTWARE_START;
 8001138:	4b15      	ldr	r3, [pc, #84]	; (8001190 <MX_ADC3_Init+0x98>)
 800113a:	4a17      	ldr	r2, [pc, #92]	; (8001198 <MX_ADC3_Init+0xa0>)
 800113c:	629a      	str	r2, [r3, #40]	; 0x28
  hadc3.Init.DataAlign = ADC_DATAALIGN_RIGHT;
 800113e:	4b14      	ldr	r3, [pc, #80]	; (8001190 <MX_ADC3_Init+0x98>)
 8001140:	2200      	movs	r2, #0
 8001142:	60da      	str	r2, [r3, #12]
  hadc3.Init.NbrOfConversion = 1;
 8001144:	4b12      	ldr	r3, [pc, #72]	; (8001190 <MX_ADC3_Init+0x98>)
 8001146:	2201      	movs	r2, #1
 8001148:	61da      	str	r2, [r3, #28]
  hadc3.Init.DMAContinuousRequests = DISABLE;
 800114a:	4b11      	ldr	r3, [pc, #68]	; (8001190 <MX_ADC3_Init+0x98>)
 800114c:	2200      	movs	r2, #0
 800114e:	f883 2030 	strb.w	r2, [r3, #48]	; 0x30
  hadc3.Init.EOCSelection = ADC_EOC_SINGLE_CONV;
 8001152:	4b0f      	ldr	r3, [pc, #60]	; (8001190 <MX_ADC3_Init+0x98>)
 8001154:	2201      	movs	r2, #1
 8001156:	615a      	str	r2, [r3, #20]
  if (HAL_ADC_Init(&hadc3) != HAL_OK)
 8001158:	480d      	ldr	r0, [pc, #52]	; (8001190 <MX_ADC3_Init+0x98>)
 800115a:	f000 fb81 	bl	8001860 <HAL_ADC_Init>
 800115e:	4603      	mov	r3, r0
 8001160:	2b00      	cmp	r3, #0
 8001162:	d001      	beq.n	8001168 <MX_ADC3_Init+0x70>
  {
    Error_Handler();
 8001164:	f000 f954 	bl	8001410 <Error_Handler>
  }
  /** Configure for the selected ADC regular channel its corresponding rank in the sequencer and its sample time.
  */
  sConfig.Channel = ADC_CHANNEL_3;
 8001168:	2303      	movs	r3, #3
 800116a:	603b      	str	r3, [r7, #0]
  sConfig.Rank = 1;
 800116c:	2301      	movs	r3, #1
 800116e:	607b      	str	r3, [r7, #4]
  sConfig.SamplingTime = ADC_SAMPLETIME_480CYCLES;
 8001170:	2307      	movs	r3, #7
 8001172:	60bb      	str	r3, [r7, #8]
  if (HAL_ADC_ConfigChannel(&hadc3, &sConfig) != HAL_OK)
 8001174:	463b      	mov	r3, r7
 8001176:	4619      	mov	r1, r3
 8001178:	4805      	ldr	r0, [pc, #20]	; (8001190 <MX_ADC3_Init+0x98>)
 800117a:	f000 fd1f 	bl	8001bbc <HAL_ADC_ConfigChannel>
 800117e:	4603      	mov	r3, r0
 8001180:	2b00      	cmp	r3, #0
 8001182:	d001      	beq.n	8001188 <MX_ADC3_Init+0x90>
  {
    Error_Handler();
 8001184:	f000 f944 	bl	8001410 <Error_Handler>
  }
  /* USER CODE BEGIN ADC3_Init 2 */

  /* USER CODE END ADC3_Init 2 */

}
 8001188:	bf00      	nop
 800118a:	3710      	adds	r7, #16
 800118c:	46bd      	mov	sp, r7
 800118e:	bd80      	pop	{r7, pc}
 8001190:	2000014c 	.word	0x2000014c
 8001194:	40012200 	.word	0x40012200
 8001198:	0f000001 	.word	0x0f000001

0800119c <MX_TIM3_Init>:
  * @brief TIM3 Initialization Function
  * @param None
  * @retval None
  */
static void MX_TIM3_Init(void)
{
 800119c:	b580      	push	{r7, lr}
 800119e:	b086      	sub	sp, #24
 80011a0:	af00      	add	r7, sp, #0

  /* USER CODE BEGIN TIM3_Init 0 */

  /* USER CODE END TIM3_Init 0 */

  TIM_ClockConfigTypeDef sClockSourceConfig = {0};
 80011a2:	f107 0308 	add.w	r3, r7, #8
 80011a6:	2200      	movs	r2, #0
 80011a8:	601a      	str	r2, [r3, #0]
 80011aa:	605a      	str	r2, [r3, #4]
 80011ac:	609a      	str	r2, [r3, #8]
 80011ae:	60da      	str	r2, [r3, #12]
  TIM_MasterConfigTypeDef sMasterConfig = {0};
 80011b0:	463b      	mov	r3, r7
 80011b2:	2200      	movs	r2, #0
 80011b4:	601a      	str	r2, [r3, #0]
 80011b6:	605a      	str	r2, [r3, #4]

  /* USER CODE BEGIN TIM3_Init 1 */

  /* USER CODE END TIM3_Init 1 */
  htim3.Instance = TIM3;
 80011b8:	4b1d      	ldr	r3, [pc, #116]	; (8001230 <MX_TIM3_Init+0x94>)
 80011ba:	4a1e      	ldr	r2, [pc, #120]	; (8001234 <MX_TIM3_Init+0x98>)
 80011bc:	601a      	str	r2, [r3, #0]
  htim3.Init.Prescaler = TIM3_PRESCALER - 1;
 80011be:	4b1c      	ldr	r3, [pc, #112]	; (8001230 <MX_TIM3_Init+0x94>)
 80011c0:	f641 723f 	movw	r2, #7999	; 0x1f3f
 80011c4:	605a      	str	r2, [r3, #4]
  htim3.Init.CounterMode = TIM_COUNTERMODE_UP;
 80011c6:	4b1a      	ldr	r3, [pc, #104]	; (8001230 <MX_TIM3_Init+0x94>)
 80011c8:	2200      	movs	r2, #0
 80011ca:	609a      	str	r2, [r3, #8]
  htim3.Init.Period = 200;
 80011cc:	4b18      	ldr	r3, [pc, #96]	; (8001230 <MX_TIM3_Init+0x94>)
 80011ce:	22c8      	movs	r2, #200	; 0xc8
 80011d0:	60da      	str	r2, [r3, #12]
  htim3.Init.ClockDivision = TIM_CLOCKDIVISION_DIV1;
 80011d2:	4b17      	ldr	r3, [pc, #92]	; (8001230 <MX_TIM3_Init+0x94>)
 80011d4:	2200      	movs	r2, #0
 80011d6:	611a      	str	r2, [r3, #16]
  htim3.Init.AutoReloadPreload = TIM_AUTORELOAD_PRELOAD_ENABLE;
 80011d8:	4b15      	ldr	r3, [pc, #84]	; (8001230 <MX_TIM3_Init+0x94>)
 80011da:	2280      	movs	r2, #128	; 0x80
 80011dc:	619a      	str	r2, [r3, #24]
  if (HAL_TIM_Base_Init(&htim3) != HAL_OK)
 80011de:	4814      	ldr	r0, [pc, #80]	; (8001230 <MX_TIM3_Init+0x94>)
 80011e0:	f001 fe2c 	bl	8002e3c <HAL_TIM_Base_Init>
 80011e4:	4603      	mov	r3, r0
 80011e6:	2b00      	cmp	r3, #0
 80011e8:	d001      	beq.n	80011ee <MX_TIM3_Init+0x52>
  {
    Error_Handler();
 80011ea:	f000 f911 	bl	8001410 <Error_Handler>
  }
  sClockSourceConfig.ClockSource = TIM_CLOCKSOURCE_INTERNAL;
 80011ee:	f44f 5380 	mov.w	r3, #4096	; 0x1000
 80011f2:	60bb      	str	r3, [r7, #8]
  if (HAL_TIM_ConfigClockSource(&htim3, &sClockSourceConfig) != HAL_OK)
 80011f4:	f107 0308 	add.w	r3, r7, #8
 80011f8:	4619      	mov	r1, r3
 80011fa:	480d      	ldr	r0, [pc, #52]	; (8001230 <MX_TIM3_Init+0x94>)
 80011fc:	f002 f9ca 	bl	8003594 <HAL_TIM_ConfigClockSource>
 8001200:	4603      	mov	r3, r0
 8001202:	2b00      	cmp	r3, #0
 8001204:	d001      	beq.n	800120a <MX_TIM3_Init+0x6e>
  {
    Error_Handler();
 8001206:	f000 f903 	bl	8001410 <Error_Handler>
  }
  sMasterConfig.MasterOutputTrigger = TIM_TRGO_RESET;
 800120a:	2300      	movs	r3, #0
 800120c:	603b      	str	r3, [r7, #0]
  sMasterConfig.MasterSlaveMode = TIM_MASTERSLAVEMODE_DISABLE;
 800120e:	2300      	movs	r3, #0
 8001210:	607b      	str	r3, [r7, #4]
  if (HAL_TIMEx_MasterConfigSynchronization(&htim3, &sMasterConfig) != HAL_OK)
 8001212:	463b      	mov	r3, r7
 8001214:	4619      	mov	r1, r3
 8001216:	4806      	ldr	r0, [pc, #24]	; (8001230 <MX_TIM3_Init+0x94>)
 8001218:	f002 fdc6 	bl	8003da8 <HAL_TIMEx_MasterConfigSynchronization>
 800121c:	4603      	mov	r3, r0
 800121e:	2b00      	cmp	r3, #0
 8001220:	d001      	beq.n	8001226 <MX_TIM3_Init+0x8a>
  {
    Error_Handler();
 8001222:	f000 f8f5 	bl	8001410 <Error_Handler>
  }
  /* USER CODE BEGIN TIM3_Init 2 */

  /* USER CODE END TIM3_Init 2 */

}
 8001226:	bf00      	nop
 8001228:	3718      	adds	r7, #24
 800122a:	46bd      	mov	sp, r7
 800122c:	bd80      	pop	{r7, pc}
 800122e:	bf00      	nop
 8001230:	200000bc 	.word	0x200000bc
 8001234:	40000400 	.word	0x40000400

08001238 <MX_TIM4_Init>:
  * @brief TIM4 Initialization Function
  * @param None
  * @retval None
  */
static void MX_TIM4_Init(void)
{
 8001238:	b580      	push	{r7, lr}
 800123a:	b08e      	sub	sp, #56	; 0x38
 800123c:	af00      	add	r7, sp, #0

  /* USER CODE BEGIN TIM4_Init 0 */

  /* USER CODE END TIM4_Init 0 */

  TIM_ClockConfigTypeDef sClockSourceConfig = {0};
 800123e:	f107 0328 	add.w	r3, r7, #40	; 0x28
 8001242:	2200      	movs	r2, #0
 8001244:	601a      	str	r2, [r3, #0]
 8001246:	605a      	str	r2, [r3, #4]
 8001248:	609a      	str	r2, [r3, #8]
 800124a:	60da      	str	r2, [r3, #12]
  TIM_MasterConfigTypeDef sMasterConfig = {0};
 800124c:	f107 0320 	add.w	r3, r7, #32
 8001250:	2200      	movs	r2, #0
 8001252:	601a      	str	r2, [r3, #0]
 8001254:	605a      	str	r2, [r3, #4]
  TIM_OC_InitTypeDef sConfigOC = {0};
 8001256:	1d3b      	adds	r3, r7, #4
 8001258:	2200      	movs	r2, #0
 800125a:	601a      	str	r2, [r3, #0]
 800125c:	605a      	str	r2, [r3, #4]
 800125e:	609a      	str	r2, [r3, #8]
 8001260:	60da      	str	r2, [r3, #12]
 8001262:	611a      	str	r2, [r3, #16]
 8001264:	615a      	str	r2, [r3, #20]
 8001266:	619a      	str	r2, [r3, #24]

  /* USER CODE BEGIN TIM4_Init 1 */

  /* USER CODE END TIM4_Init 1 */
  htim4.Instance = TIM4;
 8001268:	4b37      	ldr	r3, [pc, #220]	; (8001348 <MX_TIM4_Init+0x110>)
 800126a:	4a38      	ldr	r2, [pc, #224]	; (800134c <MX_TIM4_Init+0x114>)
 800126c:	601a      	str	r2, [r3, #0]
  htim4.Init.Prescaler = TIM4_PRESCALER - 1;
 800126e:	4b36      	ldr	r3, [pc, #216]	; (8001348 <MX_TIM4_Init+0x110>)
 8001270:	224f      	movs	r2, #79	; 0x4f
 8001272:	605a      	str	r2, [r3, #4]
  htim4.Init.CounterMode = TIM_COUNTERMODE_UP;
 8001274:	4b34      	ldr	r3, [pc, #208]	; (8001348 <MX_TIM4_Init+0x110>)
 8001276:	2200      	movs	r2, #0
 8001278:	609a      	str	r2, [r3, #8]
  htim4.Init.Period = TIM4_CNT_PERIOD;
 800127a:	4b33      	ldr	r3, [pc, #204]	; (8001348 <MX_TIM4_Init+0x110>)
 800127c:	2264      	movs	r2, #100	; 0x64
 800127e:	60da      	str	r2, [r3, #12]
  htim4.Init.ClockDivision = TIM_CLOCKDIVISION_DIV1;
 8001280:	4b31      	ldr	r3, [pc, #196]	; (8001348 <MX_TIM4_Init+0x110>)
 8001282:	2200      	movs	r2, #0
 8001284:	611a      	str	r2, [r3, #16]
  htim4.Init.AutoReloadPreload = TIM_AUTORELOAD_PRELOAD_ENABLE;
 8001286:	4b30      	ldr	r3, [pc, #192]	; (8001348 <MX_TIM4_Init+0x110>)
 8001288:	2280      	movs	r2, #128	; 0x80
 800128a:	619a      	str	r2, [r3, #24]
  if (HAL_TIM_Base_Init(&htim4) != HAL_OK)
 800128c:	482e      	ldr	r0, [pc, #184]	; (8001348 <MX_TIM4_Init+0x110>)
 800128e:	f001 fdd5 	bl	8002e3c <HAL_TIM_Base_Init>
 8001292:	4603      	mov	r3, r0
 8001294:	2b00      	cmp	r3, #0
 8001296:	d001      	beq.n	800129c <MX_TIM4_Init+0x64>
  {
    Error_Handler();
 8001298:	f000 f8ba 	bl	8001410 <Error_Handler>
  }
  sClockSourceConfig.ClockSource = TIM_CLOCKSOURCE_INTERNAL;
 800129c:	f44f 5380 	mov.w	r3, #4096	; 0x1000
 80012a0:	62bb      	str	r3, [r7, #40]	; 0x28
  if (HAL_TIM_ConfigClockSource(&htim4, &sClockSourceConfig) != HAL_OK)
 80012a2:	f107 0328 	add.w	r3, r7, #40	; 0x28
 80012a6:	4619      	mov	r1, r3
 80012a8:	4827      	ldr	r0, [pc, #156]	; (8001348 <MX_TIM4_Init+0x110>)
 80012aa:	f002 f973 	bl	8003594 <HAL_TIM_ConfigClockSource>
 80012ae:	4603      	mov	r3, r0
 80012b0:	2b00      	cmp	r3, #0
 80012b2:	d001      	beq.n	80012b8 <MX_TIM4_Init+0x80>
  {
    Error_Handler();
 80012b4:	f000 f8ac 	bl	8001410 <Error_Handler>
  }
  if (HAL_TIM_PWM_Init(&htim4) != HAL_OK)
 80012b8:	4823      	ldr	r0, [pc, #140]	; (8001348 <MX_TIM4_Init+0x110>)
 80012ba:	f001 fe7f 	bl	8002fbc <HAL_TIM_PWM_Init>
 80012be:	4603      	mov	r3, r0
 80012c0:	2b00      	cmp	r3, #0
 80012c2:	d001      	beq.n	80012c8 <MX_TIM4_Init+0x90>
  {
    Error_Handler();
 80012c4:	f000 f8a4 	bl	8001410 <Error_Handler>
  }
  sMasterConfig.MasterOutputTrigger = TIM_TRGO_RESET;
 80012c8:	2300      	movs	r3, #0
 80012ca:	623b      	str	r3, [r7, #32]
  sMasterConfig.MasterSlaveMode = TIM_MASTERSLAVEMODE_DISABLE;
 80012cc:	2300      	movs	r3, #0
 80012ce:	627b      	str	r3, [r7, #36]	; 0x24
  if (HAL_TIMEx_MasterConfigSynchronization(&htim4, &sMasterConfig) != HAL_OK)
 80012d0:	f107 0320 	add.w	r3, r7, #32
 80012d4:	4619      	mov	r1, r3
 80012d6:	481c      	ldr	r0, [pc, #112]	; (8001348 <MX_TIM4_Init+0x110>)
 80012d8:	f002 fd66 	bl	8003da8 <HAL_TIMEx_MasterConfigSynchronization>
 80012dc:	4603      	mov	r3, r0
 80012de:	2b00      	cmp	r3, #0
 80012e0:	d001      	beq.n	80012e6 <MX_TIM4_Init+0xae>
  {
    Error_Handler();
 80012e2:	f000 f895 	bl	8001410 <Error_Handler>
  }
  sConfigOC.OCMode = TIM_OCMODE_PWM1;
 80012e6:	2360      	movs	r3, #96	; 0x60
 80012e8:	607b      	str	r3, [r7, #4]
  sConfigOC.Pulse = 0;
 80012ea:	2300      	movs	r3, #0
 80012ec:	60bb      	str	r3, [r7, #8]
  sConfigOC.OCPolarity = TIM_OCPOLARITY_HIGH;
 80012ee:	2300      	movs	r3, #0
 80012f0:	60fb      	str	r3, [r7, #12]
  sConfigOC.OCFastMode = TIM_OCFAST_DISABLE;
 80012f2:	2300      	movs	r3, #0
 80012f4:	617b      	str	r3, [r7, #20]
  if (HAL_TIM_PWM_ConfigChannel(&htim4, &sConfigOC, TIM_CHANNEL_1) != HAL_OK)
 80012f6:	1d3b      	adds	r3, r7, #4
 80012f8:	2200      	movs	r2, #0
 80012fa:	4619      	mov	r1, r3
 80012fc:	4812      	ldr	r0, [pc, #72]	; (8001348 <MX_TIM4_Init+0x110>)
 80012fe:	f002 f887 	bl	8003410 <HAL_TIM_PWM_ConfigChannel>
 8001302:	4603      	mov	r3, r0
 8001304:	2b00      	cmp	r3, #0
 8001306:	d001      	beq.n	800130c <MX_TIM4_Init+0xd4>
  {
    Error_Handler();
 8001308:	f000 f882 	bl	8001410 <Error_Handler>
  }
  if (HAL_TIM_PWM_ConfigChannel(&htim4, &sConfigOC, TIM_CHANNEL_2) != HAL_OK)
 800130c:	1d3b      	adds	r3, r7, #4
 800130e:	2204      	movs	r2, #4
 8001310:	4619      	mov	r1, r3
 8001312:	480d      	ldr	r0, [pc, #52]	; (8001348 <MX_TIM4_Init+0x110>)
 8001314:	f002 f87c 	bl	8003410 <HAL_TIM_PWM_ConfigChannel>
 8001318:	4603      	mov	r3, r0
 800131a:	2b00      	cmp	r3, #0
 800131c:	d001      	beq.n	8001322 <MX_TIM4_Init+0xea>
  {
    Error_Handler();
 800131e:	f000 f877 	bl	8001410 <Error_Handler>
  }
  if (HAL_TIM_PWM_ConfigChannel(&htim4, &sConfigOC, TIM_CHANNEL_4) != HAL_OK)
 8001322:	1d3b      	adds	r3, r7, #4
 8001324:	220c      	movs	r2, #12
 8001326:	4619      	mov	r1, r3
 8001328:	4807      	ldr	r0, [pc, #28]	; (8001348 <MX_TIM4_Init+0x110>)
 800132a:	f002 f871 	bl	8003410 <HAL_TIM_PWM_ConfigChannel>
 800132e:	4603      	mov	r3, r0
 8001330:	2b00      	cmp	r3, #0
 8001332:	d001      	beq.n	8001338 <MX_TIM4_Init+0x100>
  {
    Error_Handler();
 8001334:	f000 f86c 	bl	8001410 <Error_Handler>
  }
  /* USER CODE BEGIN TIM4_Init 2 */

  /* USER CODE END TIM4_Init 2 */
  HAL_TIM_MspPostInit(&htim4);
 8001338:	4803      	ldr	r0, [pc, #12]	; (8001348 <MX_TIM4_Init+0x110>)
 800133a:	f000 f961 	bl	8001600 <HAL_TIM_MspPostInit>

}
 800133e:	bf00      	nop
 8001340:	3738      	adds	r7, #56	; 0x38
 8001342:	46bd      	mov	sp, r7
 8001344:	bd80      	pop	{r7, pc}
 8001346:	bf00      	nop
 8001348:	2000002c 	.word	0x2000002c
 800134c:	40000800 	.word	0x40000800

08001350 <MX_GPIO_Init>:
  * @brief GPIO Initialization Function
  * @param None
  * @retval None
  */
static void MX_GPIO_Init(void)
{
 8001350:	b580      	push	{r7, lr}
 8001352:	b08a      	sub	sp, #40	; 0x28
 8001354:	af00      	add	r7, sp, #0
  GPIO_InitTypeDef GPIO_InitStruct = {0};
 8001356:	f107 0314 	add.w	r3, r7, #20
 800135a:	2200      	movs	r2, #0
 800135c:	601a      	str	r2, [r3, #0]
 800135e:	605a      	str	r2, [r3, #4]
 8001360:	609a      	str	r2, [r3, #8]
 8001362:	60da      	str	r2, [r3, #12]
 8001364:	611a      	str	r2, [r3, #16]

  /* GPIO Ports Clock Enable */
  __HAL_RCC_GPIOH_CLK_ENABLE();
 8001366:	2300      	movs	r3, #0
 8001368:	613b      	str	r3, [r7, #16]
 800136a:	4b27      	ldr	r3, [pc, #156]	; (8001408 <MX_GPIO_Init+0xb8>)
 800136c:	6b1b      	ldr	r3, [r3, #48]	; 0x30
 800136e:	4a26      	ldr	r2, [pc, #152]	; (8001408 <MX_GPIO_Init+0xb8>)
 8001370:	f043 0380 	orr.w	r3, r3, #128	; 0x80
 8001374:	6313      	str	r3, [r2, #48]	; 0x30
 8001376:	4b24      	ldr	r3, [pc, #144]	; (8001408 <MX_GPIO_Init+0xb8>)
 8001378:	6b1b      	ldr	r3, [r3, #48]	; 0x30
 800137a:	f003 0380 	and.w	r3, r3, #128	; 0x80
 800137e:	613b      	str	r3, [r7, #16]
 8001380:	693b      	ldr	r3, [r7, #16]
  __HAL_RCC_GPIOA_CLK_ENABLE();
 8001382:	2300      	movs	r3, #0
 8001384:	60fb      	str	r3, [r7, #12]
 8001386:	4b20      	ldr	r3, [pc, #128]	; (8001408 <MX_GPIO_Init+0xb8>)
 8001388:	6b1b      	ldr	r3, [r3, #48]	; 0x30
 800138a:	4a1f      	ldr	r2, [pc, #124]	; (8001408 <MX_GPIO_Init+0xb8>)
 800138c:	f043 0301 	orr.w	r3, r3, #1
 8001390:	6313      	str	r3, [r2, #48]	; 0x30
 8001392:	4b1d      	ldr	r3, [pc, #116]	; (8001408 <MX_GPIO_Init+0xb8>)
 8001394:	6b1b      	ldr	r3, [r3, #48]	; 0x30
 8001396:	f003 0301 	and.w	r3, r3, #1
 800139a:	60fb      	str	r3, [r7, #12]
 800139c:	68fb      	ldr	r3, [r7, #12]
  __HAL_RCC_GPIOB_CLK_ENABLE();
 800139e:	2300      	movs	r3, #0
 80013a0:	60bb      	str	r3, [r7, #8]
 80013a2:	4b19      	ldr	r3, [pc, #100]	; (8001408 <MX_GPIO_Init+0xb8>)
 80013a4:	6b1b      	ldr	r3, [r3, #48]	; 0x30
 80013a6:	4a18      	ldr	r2, [pc, #96]	; (8001408 <MX_GPIO_Init+0xb8>)
 80013a8:	f043 0302 	orr.w	r3, r3, #2
 80013ac:	6313      	str	r3, [r2, #48]	; 0x30
 80013ae:	4b16      	ldr	r3, [pc, #88]	; (8001408 <MX_GPIO_Init+0xb8>)
 80013b0:	6b1b      	ldr	r3, [r3, #48]	; 0x30
 80013b2:	f003 0302 	and.w	r3, r3, #2
 80013b6:	60bb      	str	r3, [r7, #8]
 80013b8:	68bb      	ldr	r3, [r7, #8]
  __HAL_RCC_GPIOD_CLK_ENABLE();
 80013ba:	2300      	movs	r3, #0
 80013bc:	607b      	str	r3, [r7, #4]
 80013be:	4b12      	ldr	r3, [pc, #72]	; (8001408 <MX_GPIO_Init+0xb8>)
 80013c0:	6b1b      	ldr	r3, [r3, #48]	; 0x30
 80013c2:	4a11      	ldr	r2, [pc, #68]	; (8001408 <MX_GPIO_Init+0xb8>)
 80013c4:	f043 0308 	orr.w	r3, r3, #8
 80013c8:	6313      	str	r3, [r2, #48]	; 0x30
 80013ca:	4b0f      	ldr	r3, [pc, #60]	; (8001408 <MX_GPIO_Init+0xb8>)
 80013cc:	6b1b      	ldr	r3, [r3, #48]	; 0x30
 80013ce:	f003 0308 	and.w	r3, r3, #8
 80013d2:	607b      	str	r3, [r7, #4]
 80013d4:	687b      	ldr	r3, [r7, #4]

  /*Configure GPIO pin Output Level */
  HAL_GPIO_WritePin(DANGER_LEVEL_GPIO_Port, DANGER_LEVEL_Pin, GPIO_PIN_RESET);
 80013d6:	2200      	movs	r2, #0
 80013d8:	f44f 4180 	mov.w	r1, #16384	; 0x4000
 80013dc:	480b      	ldr	r0, [pc, #44]	; (800140c <MX_GPIO_Init+0xbc>)
 80013de:	f001 f8b9 	bl	8002554 <HAL_GPIO_WritePin>

  /*Configure GPIO pin : DANGER_LEVEL_Pin */
  GPIO_InitStruct.Pin = DANGER_LEVEL_Pin;
 80013e2:	f44f 4380 	mov.w	r3, #16384	; 0x4000
 80013e6:	617b      	str	r3, [r7, #20]
  GPIO_InitStruct.Mode = GPIO_MODE_OUTPUT_PP;
 80013e8:	2301      	movs	r3, #1
 80013ea:	61bb      	str	r3, [r7, #24]
  GPIO_InitStruct.Pull = GPIO_NOPULL;
 80013ec:	2300      	movs	r3, #0
 80013ee:	61fb      	str	r3, [r7, #28]
  GPIO_InitStruct.Speed = GPIO_SPEED_FREQ_LOW;
 80013f0:	2300      	movs	r3, #0
 80013f2:	623b      	str	r3, [r7, #32]
  HAL_GPIO_Init(DANGER_LEVEL_GPIO_Port, &GPIO_InitStruct);
 80013f4:	f107 0314 	add.w	r3, r7, #20
 80013f8:	4619      	mov	r1, r3
 80013fa:	4804      	ldr	r0, [pc, #16]	; (800140c <MX_GPIO_Init+0xbc>)
 80013fc:	f000 ff0e 	bl	800221c <HAL_GPIO_Init>

}
 8001400:	bf00      	nop
 8001402:	3728      	adds	r7, #40	; 0x28
 8001404:	46bd      	mov	sp, r7
 8001406:	bd80      	pop	{r7, pc}
 8001408:	40023800 	.word	0x40023800
 800140c:	40020c00 	.word	0x40020c00

08001410 <Error_Handler>:
/**
  * @brief  This function is executed in case of error occurrence.
  * @retval None
  */
void Error_Handler(void)
{
 8001410:	b480      	push	{r7}
 8001412:	af00      	add	r7, sp, #0
  \details Disables IRQ interrupts by setting the I-bit in the CPSR.
           Can only be executed in Privileged modes.
 */
__STATIC_FORCEINLINE void __disable_irq(void)
{
  __ASM volatile ("cpsid i" : : : "memory");
 8001414:	b672      	cpsid	i
}
 8001416:	bf00      	nop
  /* USER CODE BEGIN Error_Handler_Debug */
  /* User can add his own implementation to report the HAL error return state */
  __disable_irq();
  while (1)
 8001418:	e7fe      	b.n	8001418 <Error_Handler+0x8>
	...

0800141c <HAL_MspInit>:
void HAL_TIM_MspPostInit(TIM_HandleTypeDef *htim);
                    /**
  * Initializes the Global MSP.
  */
void HAL_MspInit(void)
{
 800141c:	b480      	push	{r7}
 800141e:	b083      	sub	sp, #12
 8001420:	af00      	add	r7, sp, #0
  /* USER CODE BEGIN MspInit 0 */

  /* USER CODE END MspInit 0 */

  __HAL_RCC_SYSCFG_CLK_ENABLE();
 8001422:	2300      	movs	r3, #0
 8001424:	607b      	str	r3, [r7, #4]
 8001426:	4b10      	ldr	r3, [pc, #64]	; (8001468 <HAL_MspInit+0x4c>)
 8001428:	6c5b      	ldr	r3, [r3, #68]	; 0x44
 800142a:	4a0f      	ldr	r2, [pc, #60]	; (8001468 <HAL_MspInit+0x4c>)
 800142c:	f443 4380 	orr.w	r3, r3, #16384	; 0x4000
 8001430:	6453      	str	r3, [r2, #68]	; 0x44
 8001432:	4b0d      	ldr	r3, [pc, #52]	; (8001468 <HAL_MspInit+0x4c>)
 8001434:	6c5b      	ldr	r3, [r3, #68]	; 0x44
 8001436:	f403 4380 	and.w	r3, r3, #16384	; 0x4000
 800143a:	607b      	str	r3, [r7, #4]
 800143c:	687b      	ldr	r3, [r7, #4]
  __HAL_RCC_PWR_CLK_ENABLE();
 800143e:	2300      	movs	r3, #0
 8001440:	603b      	str	r3, [r7, #0]
 8001442:	4b09      	ldr	r3, [pc, #36]	; (8001468 <HAL_MspInit+0x4c>)
 8001444:	6c1b      	ldr	r3, [r3, #64]	; 0x40
 8001446:	4a08      	ldr	r2, [pc, #32]	; (8001468 <HAL_MspInit+0x4c>)
 8001448:	f043 5380 	orr.w	r3, r3, #268435456	; 0x10000000
 800144c:	6413      	str	r3, [r2, #64]	; 0x40
 800144e:	4b06      	ldr	r3, [pc, #24]	; (8001468 <HAL_MspInit+0x4c>)
 8001450:	6c1b      	ldr	r3, [r3, #64]	; 0x40
 8001452:	f003 5380 	and.w	r3, r3, #268435456	; 0x10000000
 8001456:	603b      	str	r3, [r7, #0]
 8001458:	683b      	ldr	r3, [r7, #0]
  /* System interrupt init*/

  /* USER CODE BEGIN MspInit 1 */

  /* USER CODE END MspInit 1 */
}
 800145a:	bf00      	nop
 800145c:	370c      	adds	r7, #12
 800145e:	46bd      	mov	sp, r7
 8001460:	f85d 7b04 	ldr.w	r7, [sp], #4
 8001464:	4770      	bx	lr
 8001466:	bf00      	nop
 8001468:	40023800 	.word	0x40023800

0800146c <HAL_ADC_MspInit>:
* This function configures the hardware resources used in this example
* @param hadc: ADC handle pointer
* @retval None
*/
void HAL_ADC_MspInit(ADC_HandleTypeDef* hadc)
{
 800146c:	b580      	push	{r7, lr}
 800146e:	b08c      	sub	sp, #48	; 0x30
 8001470:	af00      	add	r7, sp, #0
 8001472:	6078      	str	r0, [r7, #4]
  GPIO_InitTypeDef GPIO_InitStruct = {0};
 8001474:	f107 031c 	add.w	r3, r7, #28
 8001478:	2200      	movs	r2, #0
 800147a:	601a      	str	r2, [r3, #0]
 800147c:	605a      	str	r2, [r3, #4]
 800147e:	609a      	str	r2, [r3, #8]
 8001480:	60da      	str	r2, [r3, #12]
 8001482:	611a      	str	r2, [r3, #16]
  if(hadc->Instance==ADC1)
 8001484:	687b      	ldr	r3, [r7, #4]
 8001486:	681b      	ldr	r3, [r3, #0]
 8001488:	4a38      	ldr	r2, [pc, #224]	; (800156c <HAL_ADC_MspInit+0x100>)
 800148a:	4293      	cmp	r3, r2
 800148c:	d10e      	bne.n	80014ac <HAL_ADC_MspInit+0x40>
  {
  /* USER CODE BEGIN ADC1_MspInit 0 */

  /* USER CODE END ADC1_MspInit 0 */
    /* Peripheral clock enable */
    __HAL_RCC_ADC1_CLK_ENABLE();
 800148e:	2300      	movs	r3, #0
 8001490:	61bb      	str	r3, [r7, #24]
 8001492:	4b37      	ldr	r3, [pc, #220]	; (8001570 <HAL_ADC_MspInit+0x104>)
 8001494:	6c5b      	ldr	r3, [r3, #68]	; 0x44
 8001496:	4a36      	ldr	r2, [pc, #216]	; (8001570 <HAL_ADC_MspInit+0x104>)
 8001498:	f443 7380 	orr.w	r3, r3, #256	; 0x100
 800149c:	6453      	str	r3, [r2, #68]	; 0x44
 800149e:	4b34      	ldr	r3, [pc, #208]	; (8001570 <HAL_ADC_MspInit+0x104>)
 80014a0:	6c5b      	ldr	r3, [r3, #68]	; 0x44
 80014a2:	f403 7380 	and.w	r3, r3, #256	; 0x100
 80014a6:	61bb      	str	r3, [r7, #24]
 80014a8:	69bb      	ldr	r3, [r7, #24]
  /* USER CODE BEGIN ADC3_MspInit 1 */

  /* USER CODE END ADC3_MspInit 1 */
  }

}
 80014aa:	e05a      	b.n	8001562 <HAL_ADC_MspInit+0xf6>
  else if(hadc->Instance==ADC2)
 80014ac:	687b      	ldr	r3, [r7, #4]
 80014ae:	681b      	ldr	r3, [r3, #0]
 80014b0:	4a30      	ldr	r2, [pc, #192]	; (8001574 <HAL_ADC_MspInit+0x108>)
 80014b2:	4293      	cmp	r3, r2
 80014b4:	d128      	bne.n	8001508 <HAL_ADC_MspInit+0x9c>
    __HAL_RCC_ADC2_CLK_ENABLE();
 80014b6:	2300      	movs	r3, #0
 80014b8:	617b      	str	r3, [r7, #20]
 80014ba:	4b2d      	ldr	r3, [pc, #180]	; (8001570 <HAL_ADC_MspInit+0x104>)
 80014bc:	6c5b      	ldr	r3, [r3, #68]	; 0x44
 80014be:	4a2c      	ldr	r2, [pc, #176]	; (8001570 <HAL_ADC_MspInit+0x104>)
 80014c0:	f443 7300 	orr.w	r3, r3, #512	; 0x200
 80014c4:	6453      	str	r3, [r2, #68]	; 0x44
 80014c6:	4b2a      	ldr	r3, [pc, #168]	; (8001570 <HAL_ADC_MspInit+0x104>)
 80014c8:	6c5b      	ldr	r3, [r3, #68]	; 0x44
 80014ca:	f403 7300 	and.w	r3, r3, #512	; 0x200
 80014ce:	617b      	str	r3, [r7, #20]
 80014d0:	697b      	ldr	r3, [r7, #20]
    __HAL_RCC_GPIOB_CLK_ENABLE();
 80014d2:	2300      	movs	r3, #0
 80014d4:	613b      	str	r3, [r7, #16]
 80014d6:	4b26      	ldr	r3, [pc, #152]	; (8001570 <HAL_ADC_MspInit+0x104>)
 80014d8:	6b1b      	ldr	r3, [r3, #48]	; 0x30
 80014da:	4a25      	ldr	r2, [pc, #148]	; (8001570 <HAL_ADC_MspInit+0x104>)
 80014dc:	f043 0302 	orr.w	r3, r3, #2
 80014e0:	6313      	str	r3, [r2, #48]	; 0x30
 80014e2:	4b23      	ldr	r3, [pc, #140]	; (8001570 <HAL_ADC_MspInit+0x104>)
 80014e4:	6b1b      	ldr	r3, [r3, #48]	; 0x30
 80014e6:	f003 0302 	and.w	r3, r3, #2
 80014ea:	613b      	str	r3, [r7, #16]
 80014ec:	693b      	ldr	r3, [r7, #16]
    GPIO_InitStruct.Pin = GPIO_PIN_1;
 80014ee:	2302      	movs	r3, #2
 80014f0:	61fb      	str	r3, [r7, #28]
    GPIO_InitStruct.Mode = GPIO_MODE_ANALOG;
 80014f2:	2303      	movs	r3, #3
 80014f4:	623b      	str	r3, [r7, #32]
    GPIO_InitStruct.Pull = GPIO_NOPULL;
 80014f6:	2300      	movs	r3, #0
 80014f8:	627b      	str	r3, [r7, #36]	; 0x24
    HAL_GPIO_Init(GPIOB, &GPIO_InitStruct);
 80014fa:	f107 031c 	add.w	r3, r7, #28
 80014fe:	4619      	mov	r1, r3
 8001500:	481d      	ldr	r0, [pc, #116]	; (8001578 <HAL_ADC_MspInit+0x10c>)
 8001502:	f000 fe8b 	bl	800221c <HAL_GPIO_Init>
}
 8001506:	e02c      	b.n	8001562 <HAL_ADC_MspInit+0xf6>
  else if(hadc->Instance==ADC3)
 8001508:	687b      	ldr	r3, [r7, #4]
 800150a:	681b      	ldr	r3, [r3, #0]
 800150c:	4a1b      	ldr	r2, [pc, #108]	; (800157c <HAL_ADC_MspInit+0x110>)
 800150e:	4293      	cmp	r3, r2
 8001510:	d127      	bne.n	8001562 <HAL_ADC_MspInit+0xf6>
    __HAL_RCC_ADC3_CLK_ENABLE();
 8001512:	2300      	movs	r3, #0
 8001514:	60fb      	str	r3, [r7, #12]
 8001516:	4b16      	ldr	r3, [pc, #88]	; (8001570 <HAL_ADC_MspInit+0x104>)
 8001518:	6c5b      	ldr	r3, [r3, #68]	; 0x44
 800151a:	4a15      	ldr	r2, [pc, #84]	; (8001570 <HAL_ADC_MspInit+0x104>)
 800151c:	f443 6380 	orr.w	r3, r3, #1024	; 0x400
 8001520:	6453      	str	r3, [r2, #68]	; 0x44
 8001522:	4b13      	ldr	r3, [pc, #76]	; (8001570 <HAL_ADC_MspInit+0x104>)
 8001524:	6c5b      	ldr	r3, [r3, #68]	; 0x44
 8001526:	f403 6380 	and.w	r3, r3, #1024	; 0x400
 800152a:	60fb      	str	r3, [r7, #12]
 800152c:	68fb      	ldr	r3, [r7, #12]
    __HAL_RCC_GPIOA_CLK_ENABLE();
 800152e:	2300      	movs	r3, #0
 8001530:	60bb      	str	r3, [r7, #8]
 8001532:	4b0f      	ldr	r3, [pc, #60]	; (8001570 <HAL_ADC_MspInit+0x104>)
 8001534:	6b1b      	ldr	r3, [r3, #48]	; 0x30
 8001536:	4a0e      	ldr	r2, [pc, #56]	; (8001570 <HAL_ADC_MspInit+0x104>)
 8001538:	f043 0301 	orr.w	r3, r3, #1
 800153c:	6313      	str	r3, [r2, #48]	; 0x30
 800153e:	4b0c      	ldr	r3, [pc, #48]	; (8001570 <HAL_ADC_MspInit+0x104>)
 8001540:	6b1b      	ldr	r3, [r3, #48]	; 0x30
 8001542:	f003 0301 	and.w	r3, r3, #1
 8001546:	60bb      	str	r3, [r7, #8]
 8001548:	68bb      	ldr	r3, [r7, #8]
    GPIO_InitStruct.Pin = GPIO_PIN_3;
 800154a:	2308      	movs	r3, #8
 800154c:	61fb      	str	r3, [r7, #28]
    GPIO_InitStruct.Mode = GPIO_MODE_ANALOG;
 800154e:	2303      	movs	r3, #3
 8001550:	623b      	str	r3, [r7, #32]
    GPIO_InitStruct.Pull = GPIO_NOPULL;
 8001552:	2300      	movs	r3, #0
 8001554:	627b      	str	r3, [r7, #36]	; 0x24
    HAL_GPIO_Init(GPIOA, &GPIO_InitStruct);
 8001556:	f107 031c 	add.w	r3, r7, #28
 800155a:	4619      	mov	r1, r3
 800155c:	4808      	ldr	r0, [pc, #32]	; (8001580 <HAL_ADC_MspInit+0x114>)
 800155e:	f000 fe5d 	bl	800221c <HAL_GPIO_Init>
}
 8001562:	bf00      	nop
 8001564:	3730      	adds	r7, #48	; 0x30
 8001566:	46bd      	mov	sp, r7
 8001568:	bd80      	pop	{r7, pc}
 800156a:	bf00      	nop
 800156c:	40012000 	.word	0x40012000
 8001570:	40023800 	.word	0x40023800
 8001574:	40012100 	.word	0x40012100
 8001578:	40020400 	.word	0x40020400
 800157c:	40012200 	.word	0x40012200
 8001580:	40020000 	.word	0x40020000

08001584 <HAL_TIM_Base_MspInit>:
* This function configures the hardware resources used in this example
* @param htim_base: TIM_Base handle pointer
* @retval None
*/
void HAL_TIM_Base_MspInit(TIM_HandleTypeDef* htim_base)
{
 8001584:	b580      	push	{r7, lr}
 8001586:	b084      	sub	sp, #16
 8001588:	af00      	add	r7, sp, #0
 800158a:	6078      	str	r0, [r7, #4]
  if(htim_base->Instance==TIM3)
 800158c:	687b      	ldr	r3, [r7, #4]
 800158e:	681b      	ldr	r3, [r3, #0]
 8001590:	4a18      	ldr	r2, [pc, #96]	; (80015f4 <HAL_TIM_Base_MspInit+0x70>)
 8001592:	4293      	cmp	r3, r2
 8001594:	d116      	bne.n	80015c4 <HAL_TIM_Base_MspInit+0x40>
  {
  /* USER CODE BEGIN TIM3_MspInit 0 */

  /* USER CODE END TIM3_MspInit 0 */
    /* Peripheral clock enable */
    __HAL_RCC_TIM3_CLK_ENABLE();
 8001596:	2300      	movs	r3, #0
 8001598:	60fb      	str	r3, [r7, #12]
 800159a:	4b17      	ldr	r3, [pc, #92]	; (80015f8 <HAL_TIM_Base_MspInit+0x74>)
 800159c:	6c1b      	ldr	r3, [r3, #64]	; 0x40
 800159e:	4a16      	ldr	r2, [pc, #88]	; (80015f8 <HAL_TIM_Base_MspInit+0x74>)
 80015a0:	f043 0302 	orr.w	r3, r3, #2
 80015a4:	6413      	str	r3, [r2, #64]	; 0x40
 80015a6:	4b14      	ldr	r3, [pc, #80]	; (80015f8 <HAL_TIM_Base_MspInit+0x74>)
 80015a8:	6c1b      	ldr	r3, [r3, #64]	; 0x40
 80015aa:	f003 0302 	and.w	r3, r3, #2
 80015ae:	60fb      	str	r3, [r7, #12]
 80015b0:	68fb      	ldr	r3, [r7, #12]
    /* TIM3 interrupt Init */
    HAL_NVIC_SetPriority(TIM3_IRQn, 0, 0);
 80015b2:	2200      	movs	r2, #0
 80015b4:	2100      	movs	r1, #0
 80015b6:	201d      	movs	r0, #29
 80015b8:	f000 fdf9 	bl	80021ae <HAL_NVIC_SetPriority>
    HAL_NVIC_EnableIRQ(TIM3_IRQn);
 80015bc:	201d      	movs	r0, #29
 80015be:	f000 fe12 	bl	80021e6 <HAL_NVIC_EnableIRQ>
  /* USER CODE BEGIN TIM4_MspInit 1 */

  /* USER CODE END TIM4_MspInit 1 */
  }

}
 80015c2:	e012      	b.n	80015ea <HAL_TIM_Base_MspInit+0x66>
  else if(htim_base->Instance==TIM4)
 80015c4:	687b      	ldr	r3, [r7, #4]
 80015c6:	681b      	ldr	r3, [r3, #0]
 80015c8:	4a0c      	ldr	r2, [pc, #48]	; (80015fc <HAL_TIM_Base_MspInit+0x78>)
 80015ca:	4293      	cmp	r3, r2
 80015cc:	d10d      	bne.n	80015ea <HAL_TIM_Base_MspInit+0x66>
    __HAL_RCC_TIM4_CLK_ENABLE();
 80015ce:	2300      	movs	r3, #0
 80015d0:	60bb      	str	r3, [r7, #8]
 80015d2:	4b09      	ldr	r3, [pc, #36]	; (80015f8 <HAL_TIM_Base_MspInit+0x74>)
 80015d4:	6c1b      	ldr	r3, [r3, #64]	; 0x40
 80015d6:	4a08      	ldr	r2, [pc, #32]	; (80015f8 <HAL_TIM_Base_MspInit+0x74>)
 80015d8:	f043 0304 	orr.w	r3, r3, #4
 80015dc:	6413      	str	r3, [r2, #64]	; 0x40
 80015de:	4b06      	ldr	r3, [pc, #24]	; (80015f8 <HAL_TIM_Base_MspInit+0x74>)
 80015e0:	6c1b      	ldr	r3, [r3, #64]	; 0x40
 80015e2:	f003 0304 	and.w	r3, r3, #4
 80015e6:	60bb      	str	r3, [r7, #8]
 80015e8:	68bb      	ldr	r3, [r7, #8]
}
 80015ea:	bf00      	nop
 80015ec:	3710      	adds	r7, #16
 80015ee:	46bd      	mov	sp, r7
 80015f0:	bd80      	pop	{r7, pc}
 80015f2:	bf00      	nop
 80015f4:	40000400 	.word	0x40000400
 80015f8:	40023800 	.word	0x40023800
 80015fc:	40000800 	.word	0x40000800

08001600 <HAL_TIM_MspPostInit>:

void HAL_TIM_MspPostInit(TIM_HandleTypeDef* htim)
{
 8001600:	b580      	push	{r7, lr}
 8001602:	b088      	sub	sp, #32
 8001604:	af00      	add	r7, sp, #0
 8001606:	6078      	str	r0, [r7, #4]
  GPIO_InitTypeDef GPIO_InitStruct = {0};
 8001608:	f107 030c 	add.w	r3, r7, #12
 800160c:	2200      	movs	r2, #0
 800160e:	601a      	str	r2, [r3, #0]
 8001610:	605a      	str	r2, [r3, #4]
 8001612:	609a      	str	r2, [r3, #8]
 8001614:	60da      	str	r2, [r3, #12]
 8001616:	611a      	str	r2, [r3, #16]
  if(htim->Instance==TIM4)
 8001618:	687b      	ldr	r3, [r7, #4]
 800161a:	681b      	ldr	r3, [r3, #0]
 800161c:	4a12      	ldr	r2, [pc, #72]	; (8001668 <HAL_TIM_MspPostInit+0x68>)
 800161e:	4293      	cmp	r3, r2
 8001620:	d11e      	bne.n	8001660 <HAL_TIM_MspPostInit+0x60>
  {
  /* USER CODE BEGIN TIM4_MspPostInit 0 */

  /* USER CODE END TIM4_MspPostInit 0 */

    __HAL_RCC_GPIOD_CLK_ENABLE();
 8001622:	2300      	movs	r3, #0
 8001624:	60bb      	str	r3, [r7, #8]
 8001626:	4b11      	ldr	r3, [pc, #68]	; (800166c <HAL_TIM_MspPostInit+0x6c>)
 8001628:	6b1b      	ldr	r3, [r3, #48]	; 0x30
 800162a:	4a10      	ldr	r2, [pc, #64]	; (800166c <HAL_TIM_MspPostInit+0x6c>)
 800162c:	f043 0308 	orr.w	r3, r3, #8
 8001630:	6313      	str	r3, [r2, #48]	; 0x30
 8001632:	4b0e      	ldr	r3, [pc, #56]	; (800166c <HAL_TIM_MspPostInit+0x6c>)
 8001634:	6b1b      	ldr	r3, [r3, #48]	; 0x30
 8001636:	f003 0308 	and.w	r3, r3, #8
 800163a:	60bb      	str	r3, [r7, #8]
 800163c:	68bb      	ldr	r3, [r7, #8]
    /**TIM4 GPIO Configuration
    PD12     ------> TIM4_CH1
    PD13     ------> TIM4_CH2
    PD15     ------> TIM4_CH4
    */
    GPIO_InitStruct.Pin = GREEN_LED_PWM_Pin|ORANGE_LED_PWM_Pin|BLUE_LED_PWM_Pin;
 800163e:	f44f 4330 	mov.w	r3, #45056	; 0xb000
 8001642:	60fb      	str	r3, [r7, #12]
    GPIO_InitStruct.Mode = GPIO_MODE_AF_PP;
 8001644:	2302      	movs	r3, #2
 8001646:	613b      	str	r3, [r7, #16]
    GPIO_InitStruct.Pull = GPIO_NOPULL;
 8001648:	2300      	movs	r3, #0
 800164a:	617b      	str	r3, [r7, #20]
    GPIO_InitStruct.Speed = GPIO_SPEED_FREQ_LOW;
 800164c:	2300      	movs	r3, #0
 800164e:	61bb      	str	r3, [r7, #24]
    GPIO_InitStruct.Alternate = GPIO_AF2_TIM4;
 8001650:	2302      	movs	r3, #2
 8001652:	61fb      	str	r3, [r7, #28]
    HAL_GPIO_Init(GPIOD, &GPIO_InitStruct);
 8001654:	f107 030c 	add.w	r3, r7, #12
 8001658:	4619      	mov	r1, r3
 800165a:	4805      	ldr	r0, [pc, #20]	; (8001670 <HAL_TIM_MspPostInit+0x70>)
 800165c:	f000 fdde 	bl	800221c <HAL_GPIO_Init>
  /* USER CODE BEGIN TIM4_MspPostInit 1 */

  /* USER CODE END TIM4_MspPostInit 1 */
  }

}
 8001660:	bf00      	nop
 8001662:	3720      	adds	r7, #32
 8001664:	46bd      	mov	sp, r7
 8001666:	bd80      	pop	{r7, pc}
 8001668:	40000800 	.word	0x40000800
 800166c:	40023800 	.word	0x40023800
 8001670:	40020c00 	.word	0x40020c00

08001674 <NMI_Handler>:
/******************************************************************************/
/**
  * @brief This function handles Non maskable interrupt.
  */
void NMI_Handler(void)
{
 8001674:	b480      	push	{r7}
 8001676:	af00      	add	r7, sp, #0
  /* USER CODE BEGIN NonMaskableInt_IRQn 0 */

  /* USER CODE END NonMaskableInt_IRQn 0 */
  /* USER CODE BEGIN NonMaskableInt_IRQn 1 */
  while (1)
 8001678:	e7fe      	b.n	8001678 <NMI_Handler+0x4>

0800167a <HardFault_Handler>:

/**
  * @brief This function handles Hard fault interrupt.
  */
void HardFault_Handler(void)
{
 800167a:	b480      	push	{r7}
 800167c:	af00      	add	r7, sp, #0
  /* USER CODE BEGIN HardFault_IRQn 0 */

  /* USER CODE END HardFault_IRQn 0 */
  while (1)
 800167e:	e7fe      	b.n	800167e <HardFault_Handler+0x4>

08001680 <MemManage_Handler>:

/**
  * @brief This function handles Memory management fault.
  */
void MemManage_Handler(void)
{
 8001680:	b480      	push	{r7}
 8001682:	af00      	add	r7, sp, #0
  /* USER CODE BEGIN MemoryManagement_IRQn 0 */

  /* USER CODE END MemoryManagement_IRQn 0 */
  while (1)
 8001684:	e7fe      	b.n	8001684 <MemManage_Handler+0x4>

08001686 <BusFault_Handler>:

/**
  * @brief This function handles Pre-fetch fault, memory access fault.
  */
void BusFault_Handler(void)
{
 8001686:	b480      	push	{r7}
 8001688:	af00      	add	r7, sp, #0
  /* USER CODE BEGIN BusFault_IRQn 0 */

  /* USER CODE END BusFault_IRQn 0 */
  while (1)
 800168a:	e7fe      	b.n	800168a <BusFault_Handler+0x4>

0800168c <UsageFault_Handler>:

/**
  * @brief This function handles Undefined instruction or illegal state.
  */
void UsageFault_Handler(void)
{
 800168c:	b480      	push	{r7}
 800168e:	af00      	add	r7, sp, #0
  /* USER CODE BEGIN UsageFault_IRQn 0 */

  /* USER CODE END UsageFault_IRQn 0 */
  while (1)
 8001690:	e7fe      	b.n	8001690 <UsageFault_Handler+0x4>

08001692 <SVC_Handler>:

/**
  * @brief This function handles System service call via SWI instruction.
  */
void SVC_Handler(void)
{
 8001692:	b480      	push	{r7}
 8001694:	af00      	add	r7, sp, #0

  /* USER CODE END SVCall_IRQn 0 */
  /* USER CODE BEGIN SVCall_IRQn 1 */

  /* USER CODE END SVCall_IRQn 1 */
}
 8001696:	bf00      	nop
 8001698:	46bd      	mov	sp, r7
 800169a:	f85d 7b04 	ldr.w	r7, [sp], #4
 800169e:	4770      	bx	lr

080016a0 <DebugMon_Handler>:

/**
  * @brief This function handles Debug monitor.
  */
void DebugMon_Handler(void)
{
 80016a0:	b480      	push	{r7}
 80016a2:	af00      	add	r7, sp, #0

  /* USER CODE END DebugMonitor_IRQn 0 */
  /* USER CODE BEGIN DebugMonitor_IRQn 1 */

  /* USER CODE END DebugMonitor_IRQn 1 */
}
 80016a4:	bf00      	nop
 80016a6:	46bd      	mov	sp, r7
 80016a8:	f85d 7b04 	ldr.w	r7, [sp], #4
 80016ac:	4770      	bx	lr

080016ae <PendSV_Handler>:

/**
  * @brief This function handles Pendable request for system service.
  */
void PendSV_Handler(void)
{
 80016ae:	b480      	push	{r7}
 80016b0:	af00      	add	r7, sp, #0

  /* USER CODE END PendSV_IRQn 0 */
  /* USER CODE BEGIN PendSV_IRQn 1 */

  /* USER CODE END PendSV_IRQn 1 */
}
 80016b2:	bf00      	nop
 80016b4:	46bd      	mov	sp, r7
 80016b6:	f85d 7b04 	ldr.w	r7, [sp], #4
 80016ba:	4770      	bx	lr

080016bc <SysTick_Handler>:

/**
  * @brief This function handles System tick timer.
  */
void SysTick_Handler(void)
{
 80016bc:	b580      	push	{r7, lr}
 80016be:	af00      	add	r7, sp, #0
  /* USER CODE BEGIN SysTick_IRQn 0 */

  /* USER CODE END SysTick_IRQn 0 */
  HAL_IncTick();
 80016c0:	f000 f8ae 	bl	8001820 <HAL_IncTick>
  /* USER CODE BEGIN SysTick_IRQn 1 */

  /* USER CODE END SysTick_IRQn 1 */
}
 80016c4:	bf00      	nop
 80016c6:	bd80      	pop	{r7, pc}

080016c8 <TIM3_IRQHandler>:

/**
  * @brief This function handles TIM3 global interrupt.
  */
void TIM3_IRQHandler(void)
{
 80016c8:	b580      	push	{r7, lr}
 80016ca:	af00      	add	r7, sp, #0
  /* USER CODE BEGIN TIM3_IRQn 0 */
	if(danger_level)
 80016cc:	4b0a      	ldr	r3, [pc, #40]	; (80016f8 <TIM3_IRQHandler+0x30>)
 80016ce:	781b      	ldrb	r3, [r3, #0]
 80016d0:	2b00      	cmp	r3, #0
 80016d2:	d005      	beq.n	80016e0 <TIM3_IRQHandler+0x18>
	{
		HAL_GPIO_TogglePin(DANGER_LEVEL_GPIO_Port, DANGER_LEVEL_Pin);
 80016d4:	f44f 4180 	mov.w	r1, #16384	; 0x4000
 80016d8:	4808      	ldr	r0, [pc, #32]	; (80016fc <TIM3_IRQHandler+0x34>)
 80016da:	f000 ff54 	bl	8002586 <HAL_GPIO_TogglePin>
 80016de:	e005      	b.n	80016ec <TIM3_IRQHandler+0x24>
	}
	else
	{
		HAL_GPIO_WritePin(DANGER_LEVEL_GPIO_Port, DANGER_LEVEL_Pin, GPIO_PIN_RESET);
 80016e0:	2200      	movs	r2, #0
 80016e2:	f44f 4180 	mov.w	r1, #16384	; 0x4000
 80016e6:	4805      	ldr	r0, [pc, #20]	; (80016fc <TIM3_IRQHandler+0x34>)
 80016e8:	f000 ff34 	bl	8002554 <HAL_GPIO_WritePin>
	}
  /* USER CODE END TIM3_IRQn 0 */
  HAL_TIM_IRQHandler(&htim3);
 80016ec:	4804      	ldr	r0, [pc, #16]	; (8001700 <TIM3_IRQHandler+0x38>)
 80016ee:	f001 fd87 	bl	8003200 <HAL_TIM_IRQHandler>
  /* USER CODE BEGIN TIM3_IRQn 1 */

  /* USER CODE END TIM3_IRQn 1 */
}
 80016f2:	bf00      	nop
 80016f4:	bd80      	pop	{r7, pc}
 80016f6:	bf00      	nop
 80016f8:	20000028 	.word	0x20000028
 80016fc:	40020c00 	.word	0x40020c00
 8001700:	200000bc 	.word	0x200000bc

08001704 <SystemInit>:
  *         configuration.
  * @param  None
  * @retval None
  */
void SystemInit(void)
{
 8001704:	b480      	push	{r7}
 8001706:	af00      	add	r7, sp, #0
  /* FPU settings ------------------------------------------------------------*/
  #if (__FPU_PRESENT == 1) && (__FPU_USED == 1)
    SCB->CPACR |= ((3UL << 10*2)|(3UL << 11*2));  /* set CP10 and CP11 Full Access */
 8001708:	4b06      	ldr	r3, [pc, #24]	; (8001724 <SystemInit+0x20>)
 800170a:	f8d3 3088 	ldr.w	r3, [r3, #136]	; 0x88
 800170e:	4a05      	ldr	r2, [pc, #20]	; (8001724 <SystemInit+0x20>)
 8001710:	f443 0370 	orr.w	r3, r3, #15728640	; 0xf00000
 8001714:	f8c2 3088 	str.w	r3, [r2, #136]	; 0x88

  /* Configure the Vector Table location -------------------------------------*/
#if defined(USER_VECT_TAB_ADDRESS)
  SCB->VTOR = VECT_TAB_BASE_ADDRESS | VECT_TAB_OFFSET; /* Vector Table Relocation in Internal SRAM */
#endif /* USER_VECT_TAB_ADDRESS */
}
 8001718:	bf00      	nop
 800171a:	46bd      	mov	sp, r7
 800171c:	f85d 7b04 	ldr.w	r7, [sp], #4
 8001720:	4770      	bx	lr
 8001722:	bf00      	nop
 8001724:	e000ed00 	.word	0xe000ed00

08001728 <Reset_Handler>:

    .section  .text.Reset_Handler
  .weak  Reset_Handler
  .type  Reset_Handler, %function
Reset_Handler:  
  ldr   sp, =_estack     /* set stack pointer */
 8001728:	f8df d034 	ldr.w	sp, [pc, #52]	; 8001760 <LoopFillZerobss+0x12>

/* Copy the data segment initializers from flash to SRAM */  
  ldr r0, =_sdata
 800172c:	480d      	ldr	r0, [pc, #52]	; (8001764 <LoopFillZerobss+0x16>)
  ldr r1, =_edata
 800172e:	490e      	ldr	r1, [pc, #56]	; (8001768 <LoopFillZerobss+0x1a>)
  ldr r2, =_sidata
 8001730:	4a0e      	ldr	r2, [pc, #56]	; (800176c <LoopFillZerobss+0x1e>)
  movs r3, #0
 8001732:	2300      	movs	r3, #0
  b LoopCopyDataInit
 8001734:	e002      	b.n	800173c <LoopCopyDataInit>

08001736 <CopyDataInit>:

CopyDataInit:
  ldr r4, [r2, r3]
 8001736:	58d4      	ldr	r4, [r2, r3]
  str r4, [r0, r3]
 8001738:	50c4      	str	r4, [r0, r3]
  adds r3, r3, #4
 800173a:	3304      	adds	r3, #4

0800173c <LoopCopyDataInit>:

LoopCopyDataInit:
  adds r4, r0, r3
 800173c:	18c4      	adds	r4, r0, r3
  cmp r4, r1
 800173e:	428c      	cmp	r4, r1
  bcc CopyDataInit
 8001740:	d3f9      	bcc.n	8001736 <CopyDataInit>
  
/* Zero fill the bss segment. */
  ldr r2, =_sbss
 8001742:	4a0b      	ldr	r2, [pc, #44]	; (8001770 <LoopFillZerobss+0x22>)
  ldr r4, =_ebss
 8001744:	4c0b      	ldr	r4, [pc, #44]	; (8001774 <LoopFillZerobss+0x26>)
  movs r3, #0
 8001746:	2300      	movs	r3, #0
  b LoopFillZerobss
 8001748:	e001      	b.n	800174e <LoopFillZerobss>

0800174a <FillZerobss>:

FillZerobss:
  str  r3, [r2]
 800174a:	6013      	str	r3, [r2, #0]
  adds r2, r2, #4
 800174c:	3204      	adds	r2, #4

0800174e <LoopFillZerobss>:

LoopFillZerobss:
  cmp r2, r4
 800174e:	42a2      	cmp	r2, r4
  bcc FillZerobss
 8001750:	d3fb      	bcc.n	800174a <FillZerobss>

/* Call the clock system intitialization function.*/
  bl  SystemInit   
 8001752:	f7ff ffd7 	bl	8001704 <SystemInit>
/* Call static constructors */
    bl __libc_init_array
 8001756:	f002 fbb7 	bl	8003ec8 <__libc_init_array>
/* Call the application's entry point.*/
  bl  main
 800175a:	f7ff faf1 	bl	8000d40 <main>
  bx  lr    
 800175e:	4770      	bx	lr
  ldr   sp, =_estack     /* set stack pointer */
 8001760:	20020000 	.word	0x20020000
  ldr r0, =_sdata
 8001764:	20000000 	.word	0x20000000
  ldr r1, =_edata
 8001768:	2000000c 	.word	0x2000000c
  ldr r2, =_sidata
 800176c:	08003f5c 	.word	0x08003f5c
  ldr r2, =_sbss
 8001770:	2000000c 	.word	0x2000000c
  ldr r4, =_ebss
 8001774:	20000198 	.word	0x20000198

08001778 <ADC_IRQHandler>:
 * @retval None       
*/
    .section  .text.Default_Handler,"ax",%progbits
Default_Handler:
Infinite_Loop:
  b  Infinite_Loop
 8001778:	e7fe      	b.n	8001778 <ADC_IRQHandler>
	...

0800177c <HAL_Init>:
  *         need to ensure that the SysTick time base is always set to 1 millisecond
  *         to have correct HAL operation.
  * @retval HAL status
  */
HAL_StatusTypeDef HAL_Init(void)
{
 800177c:	b580      	push	{r7, lr}
 800177e:	af00      	add	r7, sp, #0
  /* Configure Flash prefetch, Instruction cache, Data cache */ 
#if (INSTRUCTION_CACHE_ENABLE != 0U)
  __HAL_FLASH_INSTRUCTION_CACHE_ENABLE();
 8001780:	4b0e      	ldr	r3, [pc, #56]	; (80017bc <HAL_Init+0x40>)
 8001782:	681b      	ldr	r3, [r3, #0]
 8001784:	4a0d      	ldr	r2, [pc, #52]	; (80017bc <HAL_Init+0x40>)
 8001786:	f443 7300 	orr.w	r3, r3, #512	; 0x200
 800178a:	6013      	str	r3, [r2, #0]
#endif /* INSTRUCTION_CACHE_ENABLE */

#if (DATA_CACHE_ENABLE != 0U)
  __HAL_FLASH_DATA_CACHE_ENABLE();
 800178c:	4b0b      	ldr	r3, [pc, #44]	; (80017bc <HAL_Init+0x40>)
 800178e:	681b      	ldr	r3, [r3, #0]
 8001790:	4a0a      	ldr	r2, [pc, #40]	; (80017bc <HAL_Init+0x40>)
 8001792:	f443 6380 	orr.w	r3, r3, #1024	; 0x400
 8001796:	6013      	str	r3, [r2, #0]
#endif /* DATA_CACHE_ENABLE */

#if (PREFETCH_ENABLE != 0U)
  __HAL_FLASH_PREFETCH_BUFFER_ENABLE();
 8001798:	4b08      	ldr	r3, [pc, #32]	; (80017bc <HAL_Init+0x40>)
 800179a:	681b      	ldr	r3, [r3, #0]
 800179c:	4a07      	ldr	r2, [pc, #28]	; (80017bc <HAL_Init+0x40>)
 800179e:	f443 7380 	orr.w	r3, r3, #256	; 0x100
 80017a2:	6013      	str	r3, [r2, #0]
#endif /* PREFETCH_ENABLE */

  /* Set Interrupt Group Priority */
  HAL_NVIC_SetPriorityGrouping(NVIC_PRIORITYGROUP_4);
 80017a4:	2003      	movs	r0, #3
 80017a6:	f000 fcf7 	bl	8002198 <HAL_NVIC_SetPriorityGrouping>

  /* Use systick as time base source and configure 1ms tick (default clock after Reset is HSI) */
  HAL_InitTick(TICK_INT_PRIORITY);
 80017aa:	200f      	movs	r0, #15
 80017ac:	f000 f808 	bl	80017c0 <HAL_InitTick>

  /* Init the low level hardware */
  HAL_MspInit();
 80017b0:	f7ff fe34 	bl	800141c <HAL_MspInit>

  /* Return function status */
  return HAL_OK;
 80017b4:	2300      	movs	r3, #0
}
 80017b6:	4618      	mov	r0, r3
 80017b8:	bd80      	pop	{r7, pc}
 80017ba:	bf00      	nop
 80017bc:	40023c00 	.word	0x40023c00

080017c0 <HAL_InitTick>:
  *       implementation  in user file.
  * @param TickPriority Tick interrupt priority.
  * @retval HAL status
  */
__weak HAL_StatusTypeDef HAL_InitTick(uint32_t TickPriority)
{
 80017c0:	b580      	push	{r7, lr}
 80017c2:	b082      	sub	sp, #8
 80017c4:	af00      	add	r7, sp, #0
 80017c6:	6078      	str	r0, [r7, #4]
  /* Configure the SysTick to have interrupt in 1ms time basis*/
  if (HAL_SYSTICK_Config(SystemCoreClock / (1000U / uwTickFreq)) > 0U)
 80017c8:	4b12      	ldr	r3, [pc, #72]	; (8001814 <HAL_InitTick+0x54>)
 80017ca:	681a      	ldr	r2, [r3, #0]
 80017cc:	4b12      	ldr	r3, [pc, #72]	; (8001818 <HAL_InitTick+0x58>)
 80017ce:	781b      	ldrb	r3, [r3, #0]
 80017d0:	4619      	mov	r1, r3
 80017d2:	f44f 737a 	mov.w	r3, #1000	; 0x3e8
 80017d6:	fbb3 f3f1 	udiv	r3, r3, r1
 80017da:	fbb2 f3f3 	udiv	r3, r2, r3
 80017de:	4618      	mov	r0, r3
 80017e0:	f000 fd0f 	bl	8002202 <HAL_SYSTICK_Config>
 80017e4:	4603      	mov	r3, r0
 80017e6:	2b00      	cmp	r3, #0
 80017e8:	d001      	beq.n	80017ee <HAL_InitTick+0x2e>
  {
    return HAL_ERROR;
 80017ea:	2301      	movs	r3, #1
 80017ec:	e00e      	b.n	800180c <HAL_InitTick+0x4c>
  }

  /* Configure the SysTick IRQ priority */
  if (TickPriority < (1UL << __NVIC_PRIO_BITS))
 80017ee:	687b      	ldr	r3, [r7, #4]
 80017f0:	2b0f      	cmp	r3, #15
 80017f2:	d80a      	bhi.n	800180a <HAL_InitTick+0x4a>
  {
    HAL_NVIC_SetPriority(SysTick_IRQn, TickPriority, 0U);
 80017f4:	2200      	movs	r2, #0
 80017f6:	6879      	ldr	r1, [r7, #4]
 80017f8:	f04f 30ff 	mov.w	r0, #4294967295	; 0xffffffff
 80017fc:	f000 fcd7 	bl	80021ae <HAL_NVIC_SetPriority>
    uwTickPrio = TickPriority;
 8001800:	4a06      	ldr	r2, [pc, #24]	; (800181c <HAL_InitTick+0x5c>)
 8001802:	687b      	ldr	r3, [r7, #4]
 8001804:	6013      	str	r3, [r2, #0]
  {
    return HAL_ERROR;
  }

  /* Return function status */
  return HAL_OK;
 8001806:	2300      	movs	r3, #0
 8001808:	e000      	b.n	800180c <HAL_InitTick+0x4c>
    return HAL_ERROR;
 800180a:	2301      	movs	r3, #1
}
 800180c:	4618      	mov	r0, r3
 800180e:	3708      	adds	r7, #8
 8001810:	46bd      	mov	sp, r7
 8001812:	bd80      	pop	{r7, pc}
 8001814:	20000000 	.word	0x20000000
 8001818:	20000008 	.word	0x20000008
 800181c:	20000004 	.word	0x20000004

08001820 <HAL_IncTick>:
 * @note This function is declared as __weak to be overwritten in case of other 
  *      implementations in user file.
  * @retval None
  */
__weak void HAL_IncTick(void)
{
 8001820:	b480      	push	{r7}
 8001822:	af00      	add	r7, sp, #0
  uwTick += uwTickFreq;
 8001824:	4b06      	ldr	r3, [pc, #24]	; (8001840 <HAL_IncTick+0x20>)
 8001826:	781b      	ldrb	r3, [r3, #0]
 8001828:	461a      	mov	r2, r3
 800182a:	4b06      	ldr	r3, [pc, #24]	; (8001844 <HAL_IncTick+0x24>)
 800182c:	681b      	ldr	r3, [r3, #0]
 800182e:	4413      	add	r3, r2
 8001830:	4a04      	ldr	r2, [pc, #16]	; (8001844 <HAL_IncTick+0x24>)
 8001832:	6013      	str	r3, [r2, #0]
}
 8001834:	bf00      	nop
 8001836:	46bd      	mov	sp, r7
 8001838:	f85d 7b04 	ldr.w	r7, [sp], #4
 800183c:	4770      	bx	lr
 800183e:	bf00      	nop
 8001840:	20000008 	.word	0x20000008
 8001844:	20000194 	.word	0x20000194

08001848 <HAL_GetTick>:
  * @note This function is declared as __weak to be overwritten in case of other 
  *       implementations in user file.
  * @retval tick value
  */
__weak uint32_t HAL_GetTick(void)
{
 8001848:	b480      	push	{r7}
 800184a:	af00      	add	r7, sp, #0
  return uwTick;
 800184c:	4b03      	ldr	r3, [pc, #12]	; (800185c <HAL_GetTick+0x14>)
 800184e:	681b      	ldr	r3, [r3, #0]
}
 8001850:	4618      	mov	r0, r3
 8001852:	46bd      	mov	sp, r7
 8001854:	f85d 7b04 	ldr.w	r7, [sp], #4
 8001858:	4770      	bx	lr
 800185a:	bf00      	nop
 800185c:	20000194 	.word	0x20000194

08001860 <HAL_ADC_Init>:
  * @param  hadc pointer to a ADC_HandleTypeDef structure that contains
  *         the configuration information for the specified ADC.  
  * @retval HAL status
  */
HAL_StatusTypeDef HAL_ADC_Init(ADC_HandleTypeDef* hadc)
{
 8001860:	b580      	push	{r7, lr}
 8001862:	b084      	sub	sp, #16
 8001864:	af00      	add	r7, sp, #0
 8001866:	6078      	str	r0, [r7, #4]
  HAL_StatusTypeDef tmp_hal_status = HAL_OK;
 8001868:	2300      	movs	r3, #0
 800186a:	73fb      	strb	r3, [r7, #15]
  
  /* Check ADC handle */
  if(hadc == NULL)
 800186c:	687b      	ldr	r3, [r7, #4]
 800186e:	2b00      	cmp	r3, #0
 8001870:	d101      	bne.n	8001876 <HAL_ADC_Init+0x16>
  {
    return HAL_ERROR;
 8001872:	2301      	movs	r3, #1
 8001874:	e033      	b.n	80018de <HAL_ADC_Init+0x7e>
  if(hadc->Init.ExternalTrigConv != ADC_SOFTWARE_START)
  {
    assert_param(IS_ADC_EXT_TRIG_EDGE(hadc->Init.ExternalTrigConvEdge));
  }
  
  if(hadc->State == HAL_ADC_STATE_RESET)
 8001876:	687b      	ldr	r3, [r7, #4]
 8001878:	6c1b      	ldr	r3, [r3, #64]	; 0x40
 800187a:	2b00      	cmp	r3, #0
 800187c:	d109      	bne.n	8001892 <HAL_ADC_Init+0x32>

    /* Init the low level hardware */
    hadc->MspInitCallback(hadc);
#else
    /* Init the low level hardware */
    HAL_ADC_MspInit(hadc);
 800187e:	6878      	ldr	r0, [r7, #4]
 8001880:	f7ff fdf4 	bl	800146c <HAL_ADC_MspInit>
#endif /* USE_HAL_ADC_REGISTER_CALLBACKS */

    /* Initialize ADC error code */
    ADC_CLEAR_ERRORCODE(hadc);
 8001884:	687b      	ldr	r3, [r7, #4]
 8001886:	2200      	movs	r2, #0
 8001888:	645a      	str	r2, [r3, #68]	; 0x44
    
    /* Allocate lock resource and initialize it */
    hadc->Lock = HAL_UNLOCKED;
 800188a:	687b      	ldr	r3, [r7, #4]
 800188c:	2200      	movs	r2, #0
 800188e:	f883 203c 	strb.w	r2, [r3, #60]	; 0x3c
  }
  
  /* Configuration of ADC parameters if previous preliminary actions are      */ 
  /* correctly completed.                                                     */
  if (HAL_IS_BIT_CLR(hadc->State, HAL_ADC_STATE_ERROR_INTERNAL))
 8001892:	687b      	ldr	r3, [r7, #4]
 8001894:	6c1b      	ldr	r3, [r3, #64]	; 0x40
 8001896:	f003 0310 	and.w	r3, r3, #16
 800189a:	2b00      	cmp	r3, #0
 800189c:	d118      	bne.n	80018d0 <HAL_ADC_Init+0x70>
  {
    /* Set ADC state */
    ADC_STATE_CLR_SET(hadc->State,
 800189e:	687b      	ldr	r3, [r7, #4]
 80018a0:	6c1b      	ldr	r3, [r3, #64]	; 0x40
 80018a2:	f423 5388 	bic.w	r3, r3, #4352	; 0x1100
 80018a6:	f023 0302 	bic.w	r3, r3, #2
 80018aa:	f043 0202 	orr.w	r2, r3, #2
 80018ae:	687b      	ldr	r3, [r7, #4]
 80018b0:	641a      	str	r2, [r3, #64]	; 0x40
                      HAL_ADC_STATE_REG_BUSY | HAL_ADC_STATE_INJ_BUSY,
                      HAL_ADC_STATE_BUSY_INTERNAL);
    
    /* Set ADC parameters */
    ADC_Init(hadc);
 80018b2:	6878      	ldr	r0, [r7, #4]
 80018b4:	f000 faa4 	bl	8001e00 <ADC_Init>
    
    /* Set ADC error code to none */
    ADC_CLEAR_ERRORCODE(hadc);
 80018b8:	687b      	ldr	r3, [r7, #4]
 80018ba:	2200      	movs	r2, #0
 80018bc:	645a      	str	r2, [r3, #68]	; 0x44
    
    /* Set the ADC state */
    ADC_STATE_CLR_SET(hadc->State,
 80018be:	687b      	ldr	r3, [r7, #4]
 80018c0:	6c1b      	ldr	r3, [r3, #64]	; 0x40
 80018c2:	f023 0303 	bic.w	r3, r3, #3
 80018c6:	f043 0201 	orr.w	r2, r3, #1
 80018ca:	687b      	ldr	r3, [r7, #4]
 80018cc:	641a      	str	r2, [r3, #64]	; 0x40
 80018ce:	e001      	b.n	80018d4 <HAL_ADC_Init+0x74>
                      HAL_ADC_STATE_BUSY_INTERNAL,
                      HAL_ADC_STATE_READY);
  }
  else
  {
    tmp_hal_status = HAL_ERROR;
 80018d0:	2301      	movs	r3, #1
 80018d2:	73fb      	strb	r3, [r7, #15]
  }
  
  /* Release Lock */
  __HAL_UNLOCK(hadc);
 80018d4:	687b      	ldr	r3, [r7, #4]
 80018d6:	2200      	movs	r2, #0
 80018d8:	f883 203c 	strb.w	r2, [r3, #60]	; 0x3c

  /* Return function status */
  return tmp_hal_status;
 80018dc:	7bfb      	ldrb	r3, [r7, #15]
}
 80018de:	4618      	mov	r0, r3
 80018e0:	3710      	adds	r7, #16
 80018e2:	46bd      	mov	sp, r7
 80018e4:	bd80      	pop	{r7, pc}
	...

080018e8 <HAL_ADC_Start>:
  * @param  hadc pointer to a ADC_HandleTypeDef structure that contains
  *         the configuration information for the specified ADC.
  * @retval HAL status
  */
HAL_StatusTypeDef HAL_ADC_Start(ADC_HandleTypeDef* hadc)
{
 80018e8:	b480      	push	{r7}
 80018ea:	b085      	sub	sp, #20
 80018ec:	af00      	add	r7, sp, #0
 80018ee:	6078      	str	r0, [r7, #4]
  __IO uint32_t counter = 0U;
 80018f0:	2300      	movs	r3, #0
 80018f2:	60bb      	str	r3, [r7, #8]
  /* Check the parameters */
  assert_param(IS_FUNCTIONAL_STATE(hadc->Init.ContinuousConvMode));
  assert_param(IS_ADC_EXT_TRIG_EDGE(hadc->Init.ExternalTrigConvEdge)); 
  
  /* Process locked */
  __HAL_LOCK(hadc);
 80018f4:	687b      	ldr	r3, [r7, #4]
 80018f6:	f893 303c 	ldrb.w	r3, [r3, #60]	; 0x3c
 80018fa:	2b01      	cmp	r3, #1
 80018fc:	d101      	bne.n	8001902 <HAL_ADC_Start+0x1a>
 80018fe:	2302      	movs	r3, #2
 8001900:	e0b2      	b.n	8001a68 <HAL_ADC_Start+0x180>
 8001902:	687b      	ldr	r3, [r7, #4]
 8001904:	2201      	movs	r2, #1
 8001906:	f883 203c 	strb.w	r2, [r3, #60]	; 0x3c
  
  /* Enable the ADC peripheral */
  /* Check if ADC peripheral is disabled in order to enable it and wait during 
  Tstab time the ADC's stabilization */
  if((hadc->Instance->CR2 & ADC_CR2_ADON) != ADC_CR2_ADON)
 800190a:	687b      	ldr	r3, [r7, #4]
 800190c:	681b      	ldr	r3, [r3, #0]
 800190e:	689b      	ldr	r3, [r3, #8]
 8001910:	f003 0301 	and.w	r3, r3, #1
 8001914:	2b01      	cmp	r3, #1
 8001916:	d018      	beq.n	800194a <HAL_ADC_Start+0x62>
  {  
    /* Enable the Peripheral */
    __HAL_ADC_ENABLE(hadc);
 8001918:	687b      	ldr	r3, [r7, #4]
 800191a:	681b      	ldr	r3, [r3, #0]
 800191c:	689a      	ldr	r2, [r3, #8]
 800191e:	687b      	ldr	r3, [r7, #4]
 8001920:	681b      	ldr	r3, [r3, #0]
 8001922:	f042 0201 	orr.w	r2, r2, #1
 8001926:	609a      	str	r2, [r3, #8]
    
    /* Delay for ADC stabilization time */
    /* Compute number of CPU cycles to wait for */
    counter = (ADC_STAB_DELAY_US * (SystemCoreClock / 1000000U));
 8001928:	4b52      	ldr	r3, [pc, #328]	; (8001a74 <HAL_ADC_Start+0x18c>)
 800192a:	681b      	ldr	r3, [r3, #0]
 800192c:	4a52      	ldr	r2, [pc, #328]	; (8001a78 <HAL_ADC_Start+0x190>)
 800192e:	fba2 2303 	umull	r2, r3, r2, r3
 8001932:	0c9a      	lsrs	r2, r3, #18
 8001934:	4613      	mov	r3, r2
 8001936:	005b      	lsls	r3, r3, #1
 8001938:	4413      	add	r3, r2
 800193a:	60bb      	str	r3, [r7, #8]
    while(counter != 0U)
 800193c:	e002      	b.n	8001944 <HAL_ADC_Start+0x5c>
    {
      counter--;
 800193e:	68bb      	ldr	r3, [r7, #8]
 8001940:	3b01      	subs	r3, #1
 8001942:	60bb      	str	r3, [r7, #8]
    while(counter != 0U)
 8001944:	68bb      	ldr	r3, [r7, #8]
 8001946:	2b00      	cmp	r3, #0
 8001948:	d1f9      	bne.n	800193e <HAL_ADC_Start+0x56>
    }
  }
  
  /* Start conversion if ADC is effectively enabled */
  if(HAL_IS_BIT_SET(hadc->Instance->CR2, ADC_CR2_ADON))
 800194a:	687b      	ldr	r3, [r7, #4]
 800194c:	681b      	ldr	r3, [r3, #0]
 800194e:	689b      	ldr	r3, [r3, #8]
 8001950:	f003 0301 	and.w	r3, r3, #1
 8001954:	2b01      	cmp	r3, #1
 8001956:	d17a      	bne.n	8001a4e <HAL_ADC_Start+0x166>
  {
    /* Set ADC state                                                          */
    /* - Clear state bitfield related to regular group conversion results     */
    /* - Set state bitfield related to regular group operation                */
    ADC_STATE_CLR_SET(hadc->State,
 8001958:	687b      	ldr	r3, [r7, #4]
 800195a:	6c1b      	ldr	r3, [r3, #64]	; 0x40
 800195c:	f423 63e0 	bic.w	r3, r3, #1792	; 0x700
 8001960:	f023 0301 	bic.w	r3, r3, #1
 8001964:	f443 7280 	orr.w	r2, r3, #256	; 0x100
 8001968:	687b      	ldr	r3, [r7, #4]
 800196a:	641a      	str	r2, [r3, #64]	; 0x40
                      HAL_ADC_STATE_READY | HAL_ADC_STATE_REG_EOC | HAL_ADC_STATE_REG_OVR,
                      HAL_ADC_STATE_REG_BUSY);
    
    /* If conversions on group regular are also triggering group injected,    */
    /* update ADC state.                                                      */
    if (READ_BIT(hadc->Instance->CR1, ADC_CR1_JAUTO) != RESET)
 800196c:	687b      	ldr	r3, [r7, #4]
 800196e:	681b      	ldr	r3, [r3, #0]
 8001970:	685b      	ldr	r3, [r3, #4]
 8001972:	f403 6380 	and.w	r3, r3, #1024	; 0x400
 8001976:	2b00      	cmp	r3, #0
 8001978:	d007      	beq.n	800198a <HAL_ADC_Start+0xa2>
    {
      ADC_STATE_CLR_SET(hadc->State, HAL_ADC_STATE_INJ_EOC, HAL_ADC_STATE_INJ_BUSY);  
 800197a:	687b      	ldr	r3, [r7, #4]
 800197c:	6c1b      	ldr	r3, [r3, #64]	; 0x40
 800197e:	f423 5340 	bic.w	r3, r3, #12288	; 0x3000
 8001982:	f443 5280 	orr.w	r2, r3, #4096	; 0x1000
 8001986:	687b      	ldr	r3, [r7, #4]
 8001988:	641a      	str	r2, [r3, #64]	; 0x40
    }
    
    /* State machine update: Check if an injected conversion is ongoing */
    if (HAL_IS_BIT_SET(hadc->State, HAL_ADC_STATE_INJ_BUSY))
 800198a:	687b      	ldr	r3, [r7, #4]
 800198c:	6c1b      	ldr	r3, [r3, #64]	; 0x40
 800198e:	f403 5380 	and.w	r3, r3, #4096	; 0x1000
 8001992:	f5b3 5f80 	cmp.w	r3, #4096	; 0x1000
 8001996:	d106      	bne.n	80019a6 <HAL_ADC_Start+0xbe>
    {
      /* Reset ADC error code fields related to conversions on group regular */
      CLEAR_BIT(hadc->ErrorCode, (HAL_ADC_ERROR_OVR | HAL_ADC_ERROR_DMA));         
 8001998:	687b      	ldr	r3, [r7, #4]
 800199a:	6c5b      	ldr	r3, [r3, #68]	; 0x44
 800199c:	f023 0206 	bic.w	r2, r3, #6
 80019a0:	687b      	ldr	r3, [r7, #4]
 80019a2:	645a      	str	r2, [r3, #68]	; 0x44
 80019a4:	e002      	b.n	80019ac <HAL_ADC_Start+0xc4>
    }
    else
    {
      /* Reset ADC all error code fields */
      ADC_CLEAR_ERRORCODE(hadc);
 80019a6:	687b      	ldr	r3, [r7, #4]
 80019a8:	2200      	movs	r2, #0
 80019aa:	645a      	str	r2, [r3, #68]	; 0x44
    } 

    /* Process unlocked */
    /* Unlock before starting ADC conversions: in case of potential           */
    /* interruption, to let the process to ADC IRQ Handler.                   */
    __HAL_UNLOCK(hadc);
 80019ac:	687b      	ldr	r3, [r7, #4]
 80019ae:	2200      	movs	r2, #0
 80019b0:	f883 203c 	strb.w	r2, [r3, #60]	; 0x3c

    /* Pointer to the common control register to which is belonging hadc    */
    /* (Depending on STM32F4 product, there may be up to 3 ADCs and 1 common */
    /* control register)                                                    */
    tmpADC_Common = ADC_COMMON_REGISTER(hadc);
 80019b4:	4b31      	ldr	r3, [pc, #196]	; (8001a7c <HAL_ADC_Start+0x194>)
 80019b6:	60fb      	str	r3, [r7, #12]

    /* Clear regular group conversion flag and overrun flag */
    /* (To ensure of no unknown state from potential previous ADC operations) */
    __HAL_ADC_CLEAR_FLAG(hadc, ADC_FLAG_EOC | ADC_FLAG_OVR);
 80019b8:	687b      	ldr	r3, [r7, #4]
 80019ba:	681b      	ldr	r3, [r3, #0]
 80019bc:	f06f 0222 	mvn.w	r2, #34	; 0x22
 80019c0:	601a      	str	r2, [r3, #0]
    
    /* Check if Multimode enabled */
    if(HAL_IS_BIT_CLR(tmpADC_Common->CCR, ADC_CCR_MULTI))
 80019c2:	68fb      	ldr	r3, [r7, #12]
 80019c4:	685b      	ldr	r3, [r3, #4]
 80019c6:	f003 031f 	and.w	r3, r3, #31
 80019ca:	2b00      	cmp	r3, #0
 80019cc:	d12a      	bne.n	8001a24 <HAL_ADC_Start+0x13c>
    {
#if defined(ADC2) && defined(ADC3)
      if((hadc->Instance == ADC1) || ((hadc->Instance == ADC2) && ((ADC->CCR & ADC_CCR_MULTI_Msk) < ADC_CCR_MULTI_0)) \
 80019ce:	687b      	ldr	r3, [r7, #4]
 80019d0:	681b      	ldr	r3, [r3, #0]
 80019d2:	4a2b      	ldr	r2, [pc, #172]	; (8001a80 <HAL_ADC_Start+0x198>)
 80019d4:	4293      	cmp	r3, r2
 80019d6:	d015      	beq.n	8001a04 <HAL_ADC_Start+0x11c>
 80019d8:	687b      	ldr	r3, [r7, #4]
 80019da:	681b      	ldr	r3, [r3, #0]
 80019dc:	4a29      	ldr	r2, [pc, #164]	; (8001a84 <HAL_ADC_Start+0x19c>)
 80019de:	4293      	cmp	r3, r2
 80019e0:	d105      	bne.n	80019ee <HAL_ADC_Start+0x106>
 80019e2:	4b26      	ldr	r3, [pc, #152]	; (8001a7c <HAL_ADC_Start+0x194>)
 80019e4:	685b      	ldr	r3, [r3, #4]
 80019e6:	f003 031f 	and.w	r3, r3, #31
 80019ea:	2b00      	cmp	r3, #0
 80019ec:	d00a      	beq.n	8001a04 <HAL_ADC_Start+0x11c>
                                  || ((hadc->Instance == ADC3) && ((ADC->CCR & ADC_CCR_MULTI_Msk) < ADC_CCR_MULTI_4)))
 80019ee:	687b      	ldr	r3, [r7, #4]
 80019f0:	681b      	ldr	r3, [r3, #0]
 80019f2:	4a25      	ldr	r2, [pc, #148]	; (8001a88 <HAL_ADC_Start+0x1a0>)
 80019f4:	4293      	cmp	r3, r2
 80019f6:	d136      	bne.n	8001a66 <HAL_ADC_Start+0x17e>
 80019f8:	4b20      	ldr	r3, [pc, #128]	; (8001a7c <HAL_ADC_Start+0x194>)
 80019fa:	685b      	ldr	r3, [r3, #4]
 80019fc:	f003 0310 	and.w	r3, r3, #16
 8001a00:	2b00      	cmp	r3, #0
 8001a02:	d130      	bne.n	8001a66 <HAL_ADC_Start+0x17e>
      {
#endif /* ADC2 || ADC3 */
        /* if no external trigger present enable software conversion of regular channels */
        if((hadc->Instance->CR2 & ADC_CR2_EXTEN) == RESET) 
 8001a04:	687b      	ldr	r3, [r7, #4]
 8001a06:	681b      	ldr	r3, [r3, #0]
 8001a08:	689b      	ldr	r3, [r3, #8]
 8001a0a:	f003 5340 	and.w	r3, r3, #805306368	; 0x30000000
 8001a0e:	2b00      	cmp	r3, #0
 8001a10:	d129      	bne.n	8001a66 <HAL_ADC_Start+0x17e>
        {
          /* Enable the selected ADC software conversion for regular group */
          hadc->Instance->CR2 |= (uint32_t)ADC_CR2_SWSTART;
 8001a12:	687b      	ldr	r3, [r7, #4]
 8001a14:	681b      	ldr	r3, [r3, #0]
 8001a16:	689a      	ldr	r2, [r3, #8]
 8001a18:	687b      	ldr	r3, [r7, #4]
 8001a1a:	681b      	ldr	r3, [r3, #0]
 8001a1c:	f042 4280 	orr.w	r2, r2, #1073741824	; 0x40000000
 8001a20:	609a      	str	r2, [r3, #8]
 8001a22:	e020      	b.n	8001a66 <HAL_ADC_Start+0x17e>
#endif /* ADC2 || ADC3 */
    }
    else
    {
      /* if instance of handle correspond to ADC1 and  no external trigger present enable software conversion of regular channels */
      if((hadc->Instance == ADC1) && ((hadc->Instance->CR2 & ADC_CR2_EXTEN) == RESET))
 8001a24:	687b      	ldr	r3, [r7, #4]
 8001a26:	681b      	ldr	r3, [r3, #0]
 8001a28:	4a15      	ldr	r2, [pc, #84]	; (8001a80 <HAL_ADC_Start+0x198>)
 8001a2a:	4293      	cmp	r3, r2
 8001a2c:	d11b      	bne.n	8001a66 <HAL_ADC_Start+0x17e>
 8001a2e:	687b      	ldr	r3, [r7, #4]
 8001a30:	681b      	ldr	r3, [r3, #0]
 8001a32:	689b      	ldr	r3, [r3, #8]
 8001a34:	f003 5340 	and.w	r3, r3, #805306368	; 0x30000000
 8001a38:	2b00      	cmp	r3, #0
 8001a3a:	d114      	bne.n	8001a66 <HAL_ADC_Start+0x17e>
      {
        /* Enable the selected ADC software conversion for regular group */
          hadc->Instance->CR2 |= (uint32_t)ADC_CR2_SWSTART;
 8001a3c:	687b      	ldr	r3, [r7, #4]
 8001a3e:	681b      	ldr	r3, [r3, #0]
 8001a40:	689a      	ldr	r2, [r3, #8]
 8001a42:	687b      	ldr	r3, [r7, #4]
 8001a44:	681b      	ldr	r3, [r3, #0]
 8001a46:	f042 4280 	orr.w	r2, r2, #1073741824	; 0x40000000
 8001a4a:	609a      	str	r2, [r3, #8]
 8001a4c:	e00b      	b.n	8001a66 <HAL_ADC_Start+0x17e>
    }
  }
  else
  {
    /* Update ADC state machine to error */
    SET_BIT(hadc->State, HAL_ADC_STATE_ERROR_INTERNAL);
 8001a4e:	687b      	ldr	r3, [r7, #4]
 8001a50:	6c1b      	ldr	r3, [r3, #64]	; 0x40
 8001a52:	f043 0210 	orr.w	r2, r3, #16
 8001a56:	687b      	ldr	r3, [r7, #4]
 8001a58:	641a      	str	r2, [r3, #64]	; 0x40

    /* Set ADC error code to ADC IP internal error */
    SET_BIT(hadc->ErrorCode, HAL_ADC_ERROR_INTERNAL);
 8001a5a:	687b      	ldr	r3, [r7, #4]
 8001a5c:	6c5b      	ldr	r3, [r3, #68]	; 0x44
 8001a5e:	f043 0201 	orr.w	r2, r3, #1
 8001a62:	687b      	ldr	r3, [r7, #4]
 8001a64:	645a      	str	r2, [r3, #68]	; 0x44
  }
  
  /* Return function status */
  return HAL_OK;
 8001a66:	2300      	movs	r3, #0
}
 8001a68:	4618      	mov	r0, r3
 8001a6a:	3714      	adds	r7, #20
 8001a6c:	46bd      	mov	sp, r7
 8001a6e:	f85d 7b04 	ldr.w	r7, [sp], #4
 8001a72:	4770      	bx	lr
 8001a74:	20000000 	.word	0x20000000
 8001a78:	431bde83 	.word	0x431bde83
 8001a7c:	40012300 	.word	0x40012300
 8001a80:	40012000 	.word	0x40012000
 8001a84:	40012100 	.word	0x40012100
 8001a88:	40012200 	.word	0x40012200

08001a8c <HAL_ADC_PollForConversion>:
  *         the configuration information for the specified ADC.
  * @param  Timeout Timeout value in millisecond.  
  * @retval HAL status
  */
HAL_StatusTypeDef HAL_ADC_PollForConversion(ADC_HandleTypeDef* hadc, uint32_t Timeout)
{
 8001a8c:	b580      	push	{r7, lr}
 8001a8e:	b084      	sub	sp, #16
 8001a90:	af00      	add	r7, sp, #0
 8001a92:	6078      	str	r0, [r7, #4]
 8001a94:	6039      	str	r1, [r7, #0]
  uint32_t tickstart = 0U;
 8001a96:	2300      	movs	r3, #0
 8001a98:	60fb      	str	r3, [r7, #12]
  /* each conversion:                                                       */
  /* Particular case is ADC configured in DMA mode and ADC sequencer with   */
  /* several ranks and polling for end of each conversion.                  */
  /* For code simplicity sake, this particular case is generalized to       */
  /* ADC configured in DMA mode and polling for end of each conversion.     */
  if (HAL_IS_BIT_SET(hadc->Instance->CR2, ADC_CR2_EOCS) &&
 8001a9a:	687b      	ldr	r3, [r7, #4]
 8001a9c:	681b      	ldr	r3, [r3, #0]
 8001a9e:	689b      	ldr	r3, [r3, #8]
 8001aa0:	f403 6380 	and.w	r3, r3, #1024	; 0x400
 8001aa4:	f5b3 6f80 	cmp.w	r3, #1024	; 0x400
 8001aa8:	d113      	bne.n	8001ad2 <HAL_ADC_PollForConversion+0x46>
      HAL_IS_BIT_SET(hadc->Instance->CR2, ADC_CR2_DMA)    )
 8001aaa:	687b      	ldr	r3, [r7, #4]
 8001aac:	681b      	ldr	r3, [r3, #0]
 8001aae:	689b      	ldr	r3, [r3, #8]
 8001ab0:	f403 7380 	and.w	r3, r3, #256	; 0x100
  if (HAL_IS_BIT_SET(hadc->Instance->CR2, ADC_CR2_EOCS) &&
 8001ab4:	f5b3 7f80 	cmp.w	r3, #256	; 0x100
 8001ab8:	d10b      	bne.n	8001ad2 <HAL_ADC_PollForConversion+0x46>
  {
    /* Update ADC state machine to error */
    SET_BIT(hadc->State, HAL_ADC_STATE_ERROR_CONFIG);
 8001aba:	687b      	ldr	r3, [r7, #4]
 8001abc:	6c1b      	ldr	r3, [r3, #64]	; 0x40
 8001abe:	f043 0220 	orr.w	r2, r3, #32
 8001ac2:	687b      	ldr	r3, [r7, #4]
 8001ac4:	641a      	str	r2, [r3, #64]	; 0x40
    
    /* Process unlocked */
    __HAL_UNLOCK(hadc);
 8001ac6:	687b      	ldr	r3, [r7, #4]
 8001ac8:	2200      	movs	r2, #0
 8001aca:	f883 203c 	strb.w	r2, [r3, #60]	; 0x3c
    
    return HAL_ERROR;
 8001ace:	2301      	movs	r3, #1
 8001ad0:	e063      	b.n	8001b9a <HAL_ADC_PollForConversion+0x10e>
  }

  /* Get tick */ 
  tickstart = HAL_GetTick();
 8001ad2:	f7ff feb9 	bl	8001848 <HAL_GetTick>
 8001ad6:	60f8      	str	r0, [r7, #12]

  /* Check End of conversion flag */
  while(!(__HAL_ADC_GET_FLAG(hadc, ADC_FLAG_EOC)))
 8001ad8:	e021      	b.n	8001b1e <HAL_ADC_PollForConversion+0x92>
  {
    /* Check if timeout is disabled (set to infinite wait) */
    if(Timeout != HAL_MAX_DELAY)
 8001ada:	683b      	ldr	r3, [r7, #0]
 8001adc:	f1b3 3fff 	cmp.w	r3, #4294967295	; 0xffffffff
 8001ae0:	d01d      	beq.n	8001b1e <HAL_ADC_PollForConversion+0x92>
    {
      if((Timeout == 0U) || ((HAL_GetTick() - tickstart ) > Timeout))
 8001ae2:	683b      	ldr	r3, [r7, #0]
 8001ae4:	2b00      	cmp	r3, #0
 8001ae6:	d007      	beq.n	8001af8 <HAL_ADC_PollForConversion+0x6c>
 8001ae8:	f7ff feae 	bl	8001848 <HAL_GetTick>
 8001aec:	4602      	mov	r2, r0
 8001aee:	68fb      	ldr	r3, [r7, #12]
 8001af0:	1ad3      	subs	r3, r2, r3
 8001af2:	683a      	ldr	r2, [r7, #0]
 8001af4:	429a      	cmp	r2, r3
 8001af6:	d212      	bcs.n	8001b1e <HAL_ADC_PollForConversion+0x92>
      {
        /* New check to avoid false timeout detection in case of preemption */
        if(!(__HAL_ADC_GET_FLAG(hadc, ADC_FLAG_EOC)))
 8001af8:	687b      	ldr	r3, [r7, #4]
 8001afa:	681b      	ldr	r3, [r3, #0]
 8001afc:	681b      	ldr	r3, [r3, #0]
 8001afe:	f003 0302 	and.w	r3, r3, #2
 8001b02:	2b02      	cmp	r3, #2
 8001b04:	d00b      	beq.n	8001b1e <HAL_ADC_PollForConversion+0x92>
        {
          /* Update ADC state machine to timeout */
          SET_BIT(hadc->State, HAL_ADC_STATE_TIMEOUT);
 8001b06:	687b      	ldr	r3, [r7, #4]
 8001b08:	6c1b      	ldr	r3, [r3, #64]	; 0x40
 8001b0a:	f043 0204 	orr.w	r2, r3, #4
 8001b0e:	687b      	ldr	r3, [r7, #4]
 8001b10:	641a      	str	r2, [r3, #64]	; 0x40
          
          /* Process unlocked */
          __HAL_UNLOCK(hadc);
 8001b12:	687b      	ldr	r3, [r7, #4]
 8001b14:	2200      	movs	r2, #0
 8001b16:	f883 203c 	strb.w	r2, [r3, #60]	; 0x3c
          
          return HAL_TIMEOUT;
 8001b1a:	2303      	movs	r3, #3
 8001b1c:	e03d      	b.n	8001b9a <HAL_ADC_PollForConversion+0x10e>
  while(!(__HAL_ADC_GET_FLAG(hadc, ADC_FLAG_EOC)))
 8001b1e:	687b      	ldr	r3, [r7, #4]
 8001b20:	681b      	ldr	r3, [r3, #0]
 8001b22:	681b      	ldr	r3, [r3, #0]
 8001b24:	f003 0302 	and.w	r3, r3, #2
 8001b28:	2b02      	cmp	r3, #2
 8001b2a:	d1d6      	bne.n	8001ada <HAL_ADC_PollForConversion+0x4e>
      }
    }
  }
  
  /* Clear regular group conversion flag */
  __HAL_ADC_CLEAR_FLAG(hadc, ADC_FLAG_STRT | ADC_FLAG_EOC);
 8001b2c:	687b      	ldr	r3, [r7, #4]
 8001b2e:	681b      	ldr	r3, [r3, #0]
 8001b30:	f06f 0212 	mvn.w	r2, #18
 8001b34:	601a      	str	r2, [r3, #0]
  
  /* Update ADC state machine */
  SET_BIT(hadc->State, HAL_ADC_STATE_REG_EOC);
 8001b36:	687b      	ldr	r3, [r7, #4]
 8001b38:	6c1b      	ldr	r3, [r3, #64]	; 0x40
 8001b3a:	f443 7200 	orr.w	r2, r3, #512	; 0x200
 8001b3e:	687b      	ldr	r3, [r7, #4]
 8001b40:	641a      	str	r2, [r3, #64]	; 0x40
  /* by external trigger, continuous mode or scan sequence on going.          */
  /* Note: On STM32F4, there is no independent flag of end of sequence.       */
  /*       The test of scan sequence on going is done either with scan        */
  /*       sequence disabled or with end of conversion flag set to            */
  /*       of end of sequence.                                                */
  if(ADC_IS_SOFTWARE_START_REGULAR(hadc)                   &&
 8001b42:	687b      	ldr	r3, [r7, #4]
 8001b44:	681b      	ldr	r3, [r3, #0]
 8001b46:	689b      	ldr	r3, [r3, #8]
 8001b48:	f003 5340 	and.w	r3, r3, #805306368	; 0x30000000
 8001b4c:	2b00      	cmp	r3, #0
 8001b4e:	d123      	bne.n	8001b98 <HAL_ADC_PollForConversion+0x10c>
     (hadc->Init.ContinuousConvMode == DISABLE)            &&
 8001b50:	687b      	ldr	r3, [r7, #4]
 8001b52:	7e1b      	ldrb	r3, [r3, #24]
  if(ADC_IS_SOFTWARE_START_REGULAR(hadc)                   &&
 8001b54:	2b00      	cmp	r3, #0
 8001b56:	d11f      	bne.n	8001b98 <HAL_ADC_PollForConversion+0x10c>
     (HAL_IS_BIT_CLR(hadc->Instance->SQR1, ADC_SQR1_L) ||
 8001b58:	687b      	ldr	r3, [r7, #4]
 8001b5a:	681b      	ldr	r3, [r3, #0]
 8001b5c:	6adb      	ldr	r3, [r3, #44]	; 0x2c
 8001b5e:	f403 0370 	and.w	r3, r3, #15728640	; 0xf00000
     (hadc->Init.ContinuousConvMode == DISABLE)            &&
 8001b62:	2b00      	cmp	r3, #0
 8001b64:	d006      	beq.n	8001b74 <HAL_ADC_PollForConversion+0xe8>
      HAL_IS_BIT_CLR(hadc->Instance->CR2, ADC_CR2_EOCS)  )   )
 8001b66:	687b      	ldr	r3, [r7, #4]
 8001b68:	681b      	ldr	r3, [r3, #0]
 8001b6a:	689b      	ldr	r3, [r3, #8]
 8001b6c:	f403 6380 	and.w	r3, r3, #1024	; 0x400
     (HAL_IS_BIT_CLR(hadc->Instance->SQR1, ADC_SQR1_L) ||
 8001b70:	2b00      	cmp	r3, #0
 8001b72:	d111      	bne.n	8001b98 <HAL_ADC_PollForConversion+0x10c>
  {
    /* Set ADC state */
    CLEAR_BIT(hadc->State, HAL_ADC_STATE_REG_BUSY);   
 8001b74:	687b      	ldr	r3, [r7, #4]
 8001b76:	6c1b      	ldr	r3, [r3, #64]	; 0x40
 8001b78:	f423 7280 	bic.w	r2, r3, #256	; 0x100
 8001b7c:	687b      	ldr	r3, [r7, #4]
 8001b7e:	641a      	str	r2, [r3, #64]	; 0x40
    
    if (HAL_IS_BIT_CLR(hadc->State, HAL_ADC_STATE_INJ_BUSY))
 8001b80:	687b      	ldr	r3, [r7, #4]
 8001b82:	6c1b      	ldr	r3, [r3, #64]	; 0x40
 8001b84:	f403 5380 	and.w	r3, r3, #4096	; 0x1000
 8001b88:	2b00      	cmp	r3, #0
 8001b8a:	d105      	bne.n	8001b98 <HAL_ADC_PollForConversion+0x10c>
    { 
      SET_BIT(hadc->State, HAL_ADC_STATE_READY);
 8001b8c:	687b      	ldr	r3, [r7, #4]
 8001b8e:	6c1b      	ldr	r3, [r3, #64]	; 0x40
 8001b90:	f043 0201 	orr.w	r2, r3, #1
 8001b94:	687b      	ldr	r3, [r7, #4]
 8001b96:	641a      	str	r2, [r3, #64]	; 0x40
    }
  }
  
  /* Return ADC state */
  return HAL_OK;
 8001b98:	2300      	movs	r3, #0
}
 8001b9a:	4618      	mov	r0, r3
 8001b9c:	3710      	adds	r7, #16
 8001b9e:	46bd      	mov	sp, r7
 8001ba0:	bd80      	pop	{r7, pc}

08001ba2 <HAL_ADC_GetValue>:
  * @param  hadc pointer to a ADC_HandleTypeDef structure that contains
  *         the configuration information for the specified ADC.
  * @retval Converted value
  */
uint32_t HAL_ADC_GetValue(ADC_HandleTypeDef* hadc)
{       
 8001ba2:	b480      	push	{r7}
 8001ba4:	b083      	sub	sp, #12
 8001ba6:	af00      	add	r7, sp, #0
 8001ba8:	6078      	str	r0, [r7, #4]
  /* Return the selected ADC converted value */ 
  return hadc->Instance->DR;
 8001baa:	687b      	ldr	r3, [r7, #4]
 8001bac:	681b      	ldr	r3, [r3, #0]
 8001bae:	6cdb      	ldr	r3, [r3, #76]	; 0x4c
}
 8001bb0:	4618      	mov	r0, r3
 8001bb2:	370c      	adds	r7, #12
 8001bb4:	46bd      	mov	sp, r7
 8001bb6:	f85d 7b04 	ldr.w	r7, [sp], #4
 8001bba:	4770      	bx	lr

08001bbc <HAL_ADC_ConfigChannel>:
  *         the configuration information for the specified ADC.
  * @param  sConfig ADC configuration structure. 
  * @retval HAL status
  */
HAL_StatusTypeDef HAL_ADC_ConfigChannel(ADC_HandleTypeDef* hadc, ADC_ChannelConfTypeDef* sConfig)
{
 8001bbc:	b480      	push	{r7}
 8001bbe:	b085      	sub	sp, #20
 8001bc0:	af00      	add	r7, sp, #0
 8001bc2:	6078      	str	r0, [r7, #4]
 8001bc4:	6039      	str	r1, [r7, #0]
  __IO uint32_t counter = 0U;
 8001bc6:	2300      	movs	r3, #0
 8001bc8:	60bb      	str	r3, [r7, #8]
  assert_param(IS_ADC_CHANNEL(sConfig->Channel));
  assert_param(IS_ADC_REGULAR_RANK(sConfig->Rank));
  assert_param(IS_ADC_SAMPLE_TIME(sConfig->SamplingTime));
  
  /* Process locked */
  __HAL_LOCK(hadc);
 8001bca:	687b      	ldr	r3, [r7, #4]
 8001bcc:	f893 303c 	ldrb.w	r3, [r3, #60]	; 0x3c
 8001bd0:	2b01      	cmp	r3, #1
 8001bd2:	d101      	bne.n	8001bd8 <HAL_ADC_ConfigChannel+0x1c>
 8001bd4:	2302      	movs	r3, #2
 8001bd6:	e105      	b.n	8001de4 <HAL_ADC_ConfigChannel+0x228>
 8001bd8:	687b      	ldr	r3, [r7, #4]
 8001bda:	2201      	movs	r2, #1
 8001bdc:	f883 203c 	strb.w	r2, [r3, #60]	; 0x3c
    
  /* if ADC_Channel_10 ... ADC_Channel_18 is selected */
  if (sConfig->Channel > ADC_CHANNEL_9)
 8001be0:	683b      	ldr	r3, [r7, #0]
 8001be2:	681b      	ldr	r3, [r3, #0]
 8001be4:	2b09      	cmp	r3, #9
 8001be6:	d925      	bls.n	8001c34 <HAL_ADC_ConfigChannel+0x78>
  {
    /* Clear the old sample time */
    hadc->Instance->SMPR1 &= ~ADC_SMPR1(ADC_SMPR1_SMP10, sConfig->Channel);
 8001be8:	687b      	ldr	r3, [r7, #4]
 8001bea:	681b      	ldr	r3, [r3, #0]
 8001bec:	68d9      	ldr	r1, [r3, #12]
 8001bee:	683b      	ldr	r3, [r7, #0]
 8001bf0:	681b      	ldr	r3, [r3, #0]
 8001bf2:	b29b      	uxth	r3, r3
 8001bf4:	461a      	mov	r2, r3
 8001bf6:	4613      	mov	r3, r2
 8001bf8:	005b      	lsls	r3, r3, #1
 8001bfa:	4413      	add	r3, r2
 8001bfc:	3b1e      	subs	r3, #30
 8001bfe:	2207      	movs	r2, #7
 8001c00:	fa02 f303 	lsl.w	r3, r2, r3
 8001c04:	43da      	mvns	r2, r3
 8001c06:	687b      	ldr	r3, [r7, #4]
 8001c08:	681b      	ldr	r3, [r3, #0]
 8001c0a:	400a      	ands	r2, r1
 8001c0c:	60da      	str	r2, [r3, #12]
    
    /* Set the new sample time */
    hadc->Instance->SMPR1 |= ADC_SMPR1(sConfig->SamplingTime, sConfig->Channel);
 8001c0e:	687b      	ldr	r3, [r7, #4]
 8001c10:	681b      	ldr	r3, [r3, #0]
 8001c12:	68d9      	ldr	r1, [r3, #12]
 8001c14:	683b      	ldr	r3, [r7, #0]
 8001c16:	689a      	ldr	r2, [r3, #8]
 8001c18:	683b      	ldr	r3, [r7, #0]
 8001c1a:	681b      	ldr	r3, [r3, #0]
 8001c1c:	b29b      	uxth	r3, r3
 8001c1e:	4618      	mov	r0, r3
 8001c20:	4603      	mov	r3, r0
 8001c22:	005b      	lsls	r3, r3, #1
 8001c24:	4403      	add	r3, r0
 8001c26:	3b1e      	subs	r3, #30
 8001c28:	409a      	lsls	r2, r3
 8001c2a:	687b      	ldr	r3, [r7, #4]
 8001c2c:	681b      	ldr	r3, [r3, #0]
 8001c2e:	430a      	orrs	r2, r1
 8001c30:	60da      	str	r2, [r3, #12]
 8001c32:	e022      	b.n	8001c7a <HAL_ADC_ConfigChannel+0xbe>
  }
  else /* ADC_Channel include in ADC_Channel_[0..9] */
  {
    /* Clear the old sample time */
    hadc->Instance->SMPR2 &= ~ADC_SMPR2(ADC_SMPR2_SMP0, sConfig->Channel);
 8001c34:	687b      	ldr	r3, [r7, #4]
 8001c36:	681b      	ldr	r3, [r3, #0]
 8001c38:	6919      	ldr	r1, [r3, #16]
 8001c3a:	683b      	ldr	r3, [r7, #0]
 8001c3c:	681b      	ldr	r3, [r3, #0]
 8001c3e:	b29b      	uxth	r3, r3
 8001c40:	461a      	mov	r2, r3
 8001c42:	4613      	mov	r3, r2
 8001c44:	005b      	lsls	r3, r3, #1
 8001c46:	4413      	add	r3, r2
 8001c48:	2207      	movs	r2, #7
 8001c4a:	fa02 f303 	lsl.w	r3, r2, r3
 8001c4e:	43da      	mvns	r2, r3
 8001c50:	687b      	ldr	r3, [r7, #4]
 8001c52:	681b      	ldr	r3, [r3, #0]
 8001c54:	400a      	ands	r2, r1
 8001c56:	611a      	str	r2, [r3, #16]
    
    /* Set the new sample time */
    hadc->Instance->SMPR2 |= ADC_SMPR2(sConfig->SamplingTime, sConfig->Channel);
 8001c58:	687b      	ldr	r3, [r7, #4]
 8001c5a:	681b      	ldr	r3, [r3, #0]
 8001c5c:	6919      	ldr	r1, [r3, #16]
 8001c5e:	683b      	ldr	r3, [r7, #0]
 8001c60:	689a      	ldr	r2, [r3, #8]
 8001c62:	683b      	ldr	r3, [r7, #0]
 8001c64:	681b      	ldr	r3, [r3, #0]
 8001c66:	b29b      	uxth	r3, r3
 8001c68:	4618      	mov	r0, r3
 8001c6a:	4603      	mov	r3, r0
 8001c6c:	005b      	lsls	r3, r3, #1
 8001c6e:	4403      	add	r3, r0
 8001c70:	409a      	lsls	r2, r3
 8001c72:	687b      	ldr	r3, [r7, #4]
 8001c74:	681b      	ldr	r3, [r3, #0]
 8001c76:	430a      	orrs	r2, r1
 8001c78:	611a      	str	r2, [r3, #16]
  }
  
  /* For Rank 1 to 6 */
  if (sConfig->Rank < 7U)
 8001c7a:	683b      	ldr	r3, [r7, #0]
 8001c7c:	685b      	ldr	r3, [r3, #4]
 8001c7e:	2b06      	cmp	r3, #6
 8001c80:	d824      	bhi.n	8001ccc <HAL_ADC_ConfigChannel+0x110>
  {
    /* Clear the old SQx bits for the selected rank */
    hadc->Instance->SQR3 &= ~ADC_SQR3_RK(ADC_SQR3_SQ1, sConfig->Rank);
 8001c82:	687b      	ldr	r3, [r7, #4]
 8001c84:	681b      	ldr	r3, [r3, #0]
 8001c86:	6b59      	ldr	r1, [r3, #52]	; 0x34
 8001c88:	683b      	ldr	r3, [r7, #0]
 8001c8a:	685a      	ldr	r2, [r3, #4]
 8001c8c:	4613      	mov	r3, r2
 8001c8e:	009b      	lsls	r3, r3, #2
 8001c90:	4413      	add	r3, r2
 8001c92:	3b05      	subs	r3, #5
 8001c94:	221f      	movs	r2, #31
 8001c96:	fa02 f303 	lsl.w	r3, r2, r3
 8001c9a:	43da      	mvns	r2, r3
 8001c9c:	687b      	ldr	r3, [r7, #4]
 8001c9e:	681b      	ldr	r3, [r3, #0]
 8001ca0:	400a      	ands	r2, r1
 8001ca2:	635a      	str	r2, [r3, #52]	; 0x34
    
    /* Set the SQx bits for the selected rank */
    hadc->Instance->SQR3 |= ADC_SQR3_RK(sConfig->Channel, sConfig->Rank);
 8001ca4:	687b      	ldr	r3, [r7, #4]
 8001ca6:	681b      	ldr	r3, [r3, #0]
 8001ca8:	6b59      	ldr	r1, [r3, #52]	; 0x34
 8001caa:	683b      	ldr	r3, [r7, #0]
 8001cac:	681b      	ldr	r3, [r3, #0]
 8001cae:	b29b      	uxth	r3, r3
 8001cb0:	4618      	mov	r0, r3
 8001cb2:	683b      	ldr	r3, [r7, #0]
 8001cb4:	685a      	ldr	r2, [r3, #4]
 8001cb6:	4613      	mov	r3, r2
 8001cb8:	009b      	lsls	r3, r3, #2
 8001cba:	4413      	add	r3, r2
 8001cbc:	3b05      	subs	r3, #5
 8001cbe:	fa00 f203 	lsl.w	r2, r0, r3
 8001cc2:	687b      	ldr	r3, [r7, #4]
 8001cc4:	681b      	ldr	r3, [r3, #0]
 8001cc6:	430a      	orrs	r2, r1
 8001cc8:	635a      	str	r2, [r3, #52]	; 0x34
 8001cca:	e04c      	b.n	8001d66 <HAL_ADC_ConfigChannel+0x1aa>
  }
  /* For Rank 7 to 12 */
  else if (sConfig->Rank < 13U)
 8001ccc:	683b      	ldr	r3, [r7, #0]
 8001cce:	685b      	ldr	r3, [r3, #4]
 8001cd0:	2b0c      	cmp	r3, #12
 8001cd2:	d824      	bhi.n	8001d1e <HAL_ADC_ConfigChannel+0x162>
  {
    /* Clear the old SQx bits for the selected rank */
    hadc->Instance->SQR2 &= ~ADC_SQR2_RK(ADC_SQR2_SQ7, sConfig->Rank);
 8001cd4:	687b      	ldr	r3, [r7, #4]
 8001cd6:	681b      	ldr	r3, [r3, #0]
 8001cd8:	6b19      	ldr	r1, [r3, #48]	; 0x30
 8001cda:	683b      	ldr	r3, [r7, #0]
 8001cdc:	685a      	ldr	r2, [r3, #4]
 8001cde:	4613      	mov	r3, r2
 8001ce0:	009b      	lsls	r3, r3, #2
 8001ce2:	4413      	add	r3, r2
 8001ce4:	3b23      	subs	r3, #35	; 0x23
 8001ce6:	221f      	movs	r2, #31
 8001ce8:	fa02 f303 	lsl.w	r3, r2, r3
 8001cec:	43da      	mvns	r2, r3
 8001cee:	687b      	ldr	r3, [r7, #4]
 8001cf0:	681b      	ldr	r3, [r3, #0]
 8001cf2:	400a      	ands	r2, r1
 8001cf4:	631a      	str	r2, [r3, #48]	; 0x30
    
    /* Set the SQx bits for the selected rank */
    hadc->Instance->SQR2 |= ADC_SQR2_RK(sConfig->Channel, sConfig->Rank);
 8001cf6:	687b      	ldr	r3, [r7, #4]
 8001cf8:	681b      	ldr	r3, [r3, #0]
 8001cfa:	6b19      	ldr	r1, [r3, #48]	; 0x30
 8001cfc:	683b      	ldr	r3, [r7, #0]
 8001cfe:	681b      	ldr	r3, [r3, #0]
 8001d00:	b29b      	uxth	r3, r3
 8001d02:	4618      	mov	r0, r3
 8001d04:	683b      	ldr	r3, [r7, #0]
 8001d06:	685a      	ldr	r2, [r3, #4]
 8001d08:	4613      	mov	r3, r2
 8001d0a:	009b      	lsls	r3, r3, #2
 8001d0c:	4413      	add	r3, r2
 8001d0e:	3b23      	subs	r3, #35	; 0x23
 8001d10:	fa00 f203 	lsl.w	r2, r0, r3
 8001d14:	687b      	ldr	r3, [r7, #4]
 8001d16:	681b      	ldr	r3, [r3, #0]
 8001d18:	430a      	orrs	r2, r1
 8001d1a:	631a      	str	r2, [r3, #48]	; 0x30
 8001d1c:	e023      	b.n	8001d66 <HAL_ADC_ConfigChannel+0x1aa>
  }
  /* For Rank 13 to 16 */
  else
  {
    /* Clear the old SQx bits for the selected rank */
    hadc->Instance->SQR1 &= ~ADC_SQR1_RK(ADC_SQR1_SQ13, sConfig->Rank);
 8001d1e:	687b      	ldr	r3, [r7, #4]
 8001d20:	681b      	ldr	r3, [r3, #0]
 8001d22:	6ad9      	ldr	r1, [r3, #44]	; 0x2c
 8001d24:	683b      	ldr	r3, [r7, #0]
 8001d26:	685a      	ldr	r2, [r3, #4]
 8001d28:	4613      	mov	r3, r2
 8001d2a:	009b      	lsls	r3, r3, #2
 8001d2c:	4413      	add	r3, r2
 8001d2e:	3b41      	subs	r3, #65	; 0x41
 8001d30:	221f      	movs	r2, #31
 8001d32:	fa02 f303 	lsl.w	r3, r2, r3
 8001d36:	43da      	mvns	r2, r3
 8001d38:	687b      	ldr	r3, [r7, #4]
 8001d3a:	681b      	ldr	r3, [r3, #0]
 8001d3c:	400a      	ands	r2, r1
 8001d3e:	62da      	str	r2, [r3, #44]	; 0x2c
    
    /* Set the SQx bits for the selected rank */
    hadc->Instance->SQR1 |= ADC_SQR1_RK(sConfig->Channel, sConfig->Rank);
 8001d40:	687b      	ldr	r3, [r7, #4]
 8001d42:	681b      	ldr	r3, [r3, #0]
 8001d44:	6ad9      	ldr	r1, [r3, #44]	; 0x2c
 8001d46:	683b      	ldr	r3, [r7, #0]
 8001d48:	681b      	ldr	r3, [r3, #0]
 8001d4a:	b29b      	uxth	r3, r3
 8001d4c:	4618      	mov	r0, r3
 8001d4e:	683b      	ldr	r3, [r7, #0]
 8001d50:	685a      	ldr	r2, [r3, #4]
 8001d52:	4613      	mov	r3, r2
 8001d54:	009b      	lsls	r3, r3, #2
 8001d56:	4413      	add	r3, r2
 8001d58:	3b41      	subs	r3, #65	; 0x41
 8001d5a:	fa00 f203 	lsl.w	r2, r0, r3
 8001d5e:	687b      	ldr	r3, [r7, #4]
 8001d60:	681b      	ldr	r3, [r3, #0]
 8001d62:	430a      	orrs	r2, r1
 8001d64:	62da      	str	r2, [r3, #44]	; 0x2c
  }

    /* Pointer to the common control register to which is belonging hadc    */
    /* (Depending on STM32F4 product, there may be up to 3 ADCs and 1 common */
    /* control register)                                                    */
    tmpADC_Common = ADC_COMMON_REGISTER(hadc);
 8001d66:	4b22      	ldr	r3, [pc, #136]	; (8001df0 <HAL_ADC_ConfigChannel+0x234>)
 8001d68:	60fb      	str	r3, [r7, #12]

  /* if ADC1 Channel_18 is selected for VBAT Channel ennable VBATE */
  if ((hadc->Instance == ADC1) && (sConfig->Channel == ADC_CHANNEL_VBAT))
 8001d6a:	687b      	ldr	r3, [r7, #4]
 8001d6c:	681b      	ldr	r3, [r3, #0]
 8001d6e:	4a21      	ldr	r2, [pc, #132]	; (8001df4 <HAL_ADC_ConfigChannel+0x238>)
 8001d70:	4293      	cmp	r3, r2
 8001d72:	d109      	bne.n	8001d88 <HAL_ADC_ConfigChannel+0x1cc>
 8001d74:	683b      	ldr	r3, [r7, #0]
 8001d76:	681b      	ldr	r3, [r3, #0]
 8001d78:	2b12      	cmp	r3, #18
 8001d7a:	d105      	bne.n	8001d88 <HAL_ADC_ConfigChannel+0x1cc>
    if ((uint16_t)ADC_CHANNEL_TEMPSENSOR == (uint16_t)ADC_CHANNEL_VBAT)
    {
      tmpADC_Common->CCR &= ~ADC_CCR_TSVREFE;
    }
    /* Enable the VBAT channel*/
    tmpADC_Common->CCR |= ADC_CCR_VBATE;
 8001d7c:	68fb      	ldr	r3, [r7, #12]
 8001d7e:	685b      	ldr	r3, [r3, #4]
 8001d80:	f443 0280 	orr.w	r2, r3, #4194304	; 0x400000
 8001d84:	68fb      	ldr	r3, [r7, #12]
 8001d86:	605a      	str	r2, [r3, #4]
  }
  
  /* if ADC1 Channel_16 or Channel_18 is selected for Temperature sensor or 
     Channel_17 is selected for VREFINT enable TSVREFE */
  if ((hadc->Instance == ADC1) && ((sConfig->Channel == ADC_CHANNEL_TEMPSENSOR) || (sConfig->Channel == ADC_CHANNEL_VREFINT)))
 8001d88:	687b      	ldr	r3, [r7, #4]
 8001d8a:	681b      	ldr	r3, [r3, #0]
 8001d8c:	4a19      	ldr	r2, [pc, #100]	; (8001df4 <HAL_ADC_ConfigChannel+0x238>)
 8001d8e:	4293      	cmp	r3, r2
 8001d90:	d123      	bne.n	8001dda <HAL_ADC_ConfigChannel+0x21e>
 8001d92:	683b      	ldr	r3, [r7, #0]
 8001d94:	681b      	ldr	r3, [r3, #0]
 8001d96:	2b10      	cmp	r3, #16
 8001d98:	d003      	beq.n	8001da2 <HAL_ADC_ConfigChannel+0x1e6>
 8001d9a:	683b      	ldr	r3, [r7, #0]
 8001d9c:	681b      	ldr	r3, [r3, #0]
 8001d9e:	2b11      	cmp	r3, #17
 8001da0:	d11b      	bne.n	8001dda <HAL_ADC_ConfigChannel+0x21e>
    if ((uint16_t)ADC_CHANNEL_TEMPSENSOR == (uint16_t)ADC_CHANNEL_VBAT)
    {
      tmpADC_Common->CCR &= ~ADC_CCR_VBATE;
    }
    /* Enable the Temperature sensor and VREFINT channel*/
    tmpADC_Common->CCR |= ADC_CCR_TSVREFE;
 8001da2:	68fb      	ldr	r3, [r7, #12]
 8001da4:	685b      	ldr	r3, [r3, #4]
 8001da6:	f443 0200 	orr.w	r2, r3, #8388608	; 0x800000
 8001daa:	68fb      	ldr	r3, [r7, #12]
 8001dac:	605a      	str	r2, [r3, #4]
    
    if(sConfig->Channel == ADC_CHANNEL_TEMPSENSOR)
 8001dae:	683b      	ldr	r3, [r7, #0]
 8001db0:	681b      	ldr	r3, [r3, #0]
 8001db2:	2b10      	cmp	r3, #16
 8001db4:	d111      	bne.n	8001dda <HAL_ADC_ConfigChannel+0x21e>
    {
      /* Delay for temperature sensor stabilization time */
      /* Compute number of CPU cycles to wait for */
      counter = (ADC_TEMPSENSOR_DELAY_US * (SystemCoreClock / 1000000U));
 8001db6:	4b10      	ldr	r3, [pc, #64]	; (8001df8 <HAL_ADC_ConfigChannel+0x23c>)
 8001db8:	681b      	ldr	r3, [r3, #0]
 8001dba:	4a10      	ldr	r2, [pc, #64]	; (8001dfc <HAL_ADC_ConfigChannel+0x240>)
 8001dbc:	fba2 2303 	umull	r2, r3, r2, r3
 8001dc0:	0c9a      	lsrs	r2, r3, #18
 8001dc2:	4613      	mov	r3, r2
 8001dc4:	009b      	lsls	r3, r3, #2
 8001dc6:	4413      	add	r3, r2
 8001dc8:	005b      	lsls	r3, r3, #1
 8001dca:	60bb      	str	r3, [r7, #8]
      while(counter != 0U)
 8001dcc:	e002      	b.n	8001dd4 <HAL_ADC_ConfigChannel+0x218>
      {
        counter--;
 8001dce:	68bb      	ldr	r3, [r7, #8]
 8001dd0:	3b01      	subs	r3, #1
 8001dd2:	60bb      	str	r3, [r7, #8]
      while(counter != 0U)
 8001dd4:	68bb      	ldr	r3, [r7, #8]
 8001dd6:	2b00      	cmp	r3, #0
 8001dd8:	d1f9      	bne.n	8001dce <HAL_ADC_ConfigChannel+0x212>
      }
    }
  }
  
  /* Process unlocked */
  __HAL_UNLOCK(hadc);
 8001dda:	687b      	ldr	r3, [r7, #4]
 8001ddc:	2200      	movs	r2, #0
 8001dde:	f883 203c 	strb.w	r2, [r3, #60]	; 0x3c
  
  /* Return function status */
  return HAL_OK;
 8001de2:	2300      	movs	r3, #0
}
 8001de4:	4618      	mov	r0, r3
 8001de6:	3714      	adds	r7, #20
 8001de8:	46bd      	mov	sp, r7
 8001dea:	f85d 7b04 	ldr.w	r7, [sp], #4
 8001dee:	4770      	bx	lr
 8001df0:	40012300 	.word	0x40012300
 8001df4:	40012000 	.word	0x40012000
 8001df8:	20000000 	.word	0x20000000
 8001dfc:	431bde83 	.word	0x431bde83

08001e00 <ADC_Init>:
  * @param  hadc pointer to a ADC_HandleTypeDef structure that contains
  *         the configuration information for the specified ADC.  
  * @retval None
  */
static void ADC_Init(ADC_HandleTypeDef* hadc)
{
 8001e00:	b480      	push	{r7}
 8001e02:	b085      	sub	sp, #20
 8001e04:	af00      	add	r7, sp, #0
 8001e06:	6078      	str	r0, [r7, #4]
  
  /* Set ADC parameters */
  /* Pointer to the common control register to which is belonging hadc    */
  /* (Depending on STM32F4 product, there may be up to 3 ADCs and 1 common */
  /* control register)                                                    */
  tmpADC_Common = ADC_COMMON_REGISTER(hadc);
 8001e08:	4b79      	ldr	r3, [pc, #484]	; (8001ff0 <ADC_Init+0x1f0>)
 8001e0a:	60fb      	str	r3, [r7, #12]
  
  /* Set the ADC clock prescaler */
  tmpADC_Common->CCR &= ~(ADC_CCR_ADCPRE);
 8001e0c:	68fb      	ldr	r3, [r7, #12]
 8001e0e:	685b      	ldr	r3, [r3, #4]
 8001e10:	f423 3240 	bic.w	r2, r3, #196608	; 0x30000
 8001e14:	68fb      	ldr	r3, [r7, #12]
 8001e16:	605a      	str	r2, [r3, #4]
  tmpADC_Common->CCR |=  hadc->Init.ClockPrescaler;
 8001e18:	68fb      	ldr	r3, [r7, #12]
 8001e1a:	685a      	ldr	r2, [r3, #4]
 8001e1c:	687b      	ldr	r3, [r7, #4]
 8001e1e:	685b      	ldr	r3, [r3, #4]
 8001e20:	431a      	orrs	r2, r3
 8001e22:	68fb      	ldr	r3, [r7, #12]
 8001e24:	605a      	str	r2, [r3, #4]
  
  /* Set ADC scan mode */
  hadc->Instance->CR1 &= ~(ADC_CR1_SCAN);
 8001e26:	687b      	ldr	r3, [r7, #4]
 8001e28:	681b      	ldr	r3, [r3, #0]
 8001e2a:	685a      	ldr	r2, [r3, #4]
 8001e2c:	687b      	ldr	r3, [r7, #4]
 8001e2e:	681b      	ldr	r3, [r3, #0]
 8001e30:	f422 7280 	bic.w	r2, r2, #256	; 0x100
 8001e34:	605a      	str	r2, [r3, #4]
  hadc->Instance->CR1 |=  ADC_CR1_SCANCONV(hadc->Init.ScanConvMode);
 8001e36:	687b      	ldr	r3, [r7, #4]
 8001e38:	681b      	ldr	r3, [r3, #0]
 8001e3a:	6859      	ldr	r1, [r3, #4]
 8001e3c:	687b      	ldr	r3, [r7, #4]
 8001e3e:	691b      	ldr	r3, [r3, #16]
 8001e40:	021a      	lsls	r2, r3, #8
 8001e42:	687b      	ldr	r3, [r7, #4]
 8001e44:	681b      	ldr	r3, [r3, #0]
 8001e46:	430a      	orrs	r2, r1
 8001e48:	605a      	str	r2, [r3, #4]
  
  /* Set ADC resolution */
  hadc->Instance->CR1 &= ~(ADC_CR1_RES);
 8001e4a:	687b      	ldr	r3, [r7, #4]
 8001e4c:	681b      	ldr	r3, [r3, #0]
 8001e4e:	685a      	ldr	r2, [r3, #4]
 8001e50:	687b      	ldr	r3, [r7, #4]
 8001e52:	681b      	ldr	r3, [r3, #0]
 8001e54:	f022 7240 	bic.w	r2, r2, #50331648	; 0x3000000
 8001e58:	605a      	str	r2, [r3, #4]
  hadc->Instance->CR1 |=  hadc->Init.Resolution;
 8001e5a:	687b      	ldr	r3, [r7, #4]
 8001e5c:	681b      	ldr	r3, [r3, #0]
 8001e5e:	6859      	ldr	r1, [r3, #4]
 8001e60:	687b      	ldr	r3, [r7, #4]
 8001e62:	689a      	ldr	r2, [r3, #8]
 8001e64:	687b      	ldr	r3, [r7, #4]
 8001e66:	681b      	ldr	r3, [r3, #0]
 8001e68:	430a      	orrs	r2, r1
 8001e6a:	605a      	str	r2, [r3, #4]
  
  /* Set ADC data alignment */
  hadc->Instance->CR2 &= ~(ADC_CR2_ALIGN);
 8001e6c:	687b      	ldr	r3, [r7, #4]
 8001e6e:	681b      	ldr	r3, [r3, #0]
 8001e70:	689a      	ldr	r2, [r3, #8]
 8001e72:	687b      	ldr	r3, [r7, #4]
 8001e74:	681b      	ldr	r3, [r3, #0]
 8001e76:	f422 6200 	bic.w	r2, r2, #2048	; 0x800
 8001e7a:	609a      	str	r2, [r3, #8]
  hadc->Instance->CR2 |= hadc->Init.DataAlign;
 8001e7c:	687b      	ldr	r3, [r7, #4]
 8001e7e:	681b      	ldr	r3, [r3, #0]
 8001e80:	6899      	ldr	r1, [r3, #8]
 8001e82:	687b      	ldr	r3, [r7, #4]
 8001e84:	68da      	ldr	r2, [r3, #12]
 8001e86:	687b      	ldr	r3, [r7, #4]
 8001e88:	681b      	ldr	r3, [r3, #0]
 8001e8a:	430a      	orrs	r2, r1
 8001e8c:	609a      	str	r2, [r3, #8]
  /* Enable external trigger if trigger selection is different of software  */
  /* start.                                                                 */
  /* Note: This configuration keeps the hardware feature of parameter       */
  /*       ExternalTrigConvEdge "trigger edge none" equivalent to           */
  /*       software start.                                                  */
  if(hadc->Init.ExternalTrigConv != ADC_SOFTWARE_START)
 8001e8e:	687b      	ldr	r3, [r7, #4]
 8001e90:	6a9b      	ldr	r3, [r3, #40]	; 0x28
 8001e92:	4a58      	ldr	r2, [pc, #352]	; (8001ff4 <ADC_Init+0x1f4>)
 8001e94:	4293      	cmp	r3, r2
 8001e96:	d022      	beq.n	8001ede <ADC_Init+0xde>
  {
    /* Select external trigger to start conversion */
    hadc->Instance->CR2 &= ~(ADC_CR2_EXTSEL);
 8001e98:	687b      	ldr	r3, [r7, #4]
 8001e9a:	681b      	ldr	r3, [r3, #0]
 8001e9c:	689a      	ldr	r2, [r3, #8]
 8001e9e:	687b      	ldr	r3, [r7, #4]
 8001ea0:	681b      	ldr	r3, [r3, #0]
 8001ea2:	f022 6270 	bic.w	r2, r2, #251658240	; 0xf000000
 8001ea6:	609a      	str	r2, [r3, #8]
    hadc->Instance->CR2 |= hadc->Init.ExternalTrigConv;
 8001ea8:	687b      	ldr	r3, [r7, #4]
 8001eaa:	681b      	ldr	r3, [r3, #0]
 8001eac:	6899      	ldr	r1, [r3, #8]
 8001eae:	687b      	ldr	r3, [r7, #4]
 8001eb0:	6a9a      	ldr	r2, [r3, #40]	; 0x28
 8001eb2:	687b      	ldr	r3, [r7, #4]
 8001eb4:	681b      	ldr	r3, [r3, #0]
 8001eb6:	430a      	orrs	r2, r1
 8001eb8:	609a      	str	r2, [r3, #8]
    
    /* Select external trigger polarity */
    hadc->Instance->CR2 &= ~(ADC_CR2_EXTEN);
 8001eba:	687b      	ldr	r3, [r7, #4]
 8001ebc:	681b      	ldr	r3, [r3, #0]
 8001ebe:	689a      	ldr	r2, [r3, #8]
 8001ec0:	687b      	ldr	r3, [r7, #4]
 8001ec2:	681b      	ldr	r3, [r3, #0]
 8001ec4:	f022 5240 	bic.w	r2, r2, #805306368	; 0x30000000
 8001ec8:	609a      	str	r2, [r3, #8]
    hadc->Instance->CR2 |= hadc->Init.ExternalTrigConvEdge;
 8001eca:	687b      	ldr	r3, [r7, #4]
 8001ecc:	681b      	ldr	r3, [r3, #0]
 8001ece:	6899      	ldr	r1, [r3, #8]
 8001ed0:	687b      	ldr	r3, [r7, #4]
 8001ed2:	6ada      	ldr	r2, [r3, #44]	; 0x2c
 8001ed4:	687b      	ldr	r3, [r7, #4]
 8001ed6:	681b      	ldr	r3, [r3, #0]
 8001ed8:	430a      	orrs	r2, r1
 8001eda:	609a      	str	r2, [r3, #8]
 8001edc:	e00f      	b.n	8001efe <ADC_Init+0xfe>
  }
  else
  {
    /* Reset the external trigger */
    hadc->Instance->CR2 &= ~(ADC_CR2_EXTSEL);
 8001ede:	687b      	ldr	r3, [r7, #4]
 8001ee0:	681b      	ldr	r3, [r3, #0]
 8001ee2:	689a      	ldr	r2, [r3, #8]
 8001ee4:	687b      	ldr	r3, [r7, #4]
 8001ee6:	681b      	ldr	r3, [r3, #0]
 8001ee8:	f022 6270 	bic.w	r2, r2, #251658240	; 0xf000000
 8001eec:	609a      	str	r2, [r3, #8]
    hadc->Instance->CR2 &= ~(ADC_CR2_EXTEN);
 8001eee:	687b      	ldr	r3, [r7, #4]
 8001ef0:	681b      	ldr	r3, [r3, #0]
 8001ef2:	689a      	ldr	r2, [r3, #8]
 8001ef4:	687b      	ldr	r3, [r7, #4]
 8001ef6:	681b      	ldr	r3, [r3, #0]
 8001ef8:	f022 5240 	bic.w	r2, r2, #805306368	; 0x30000000
 8001efc:	609a      	str	r2, [r3, #8]
  }
  
  /* Enable or disable ADC continuous conversion mode */
  hadc->Instance->CR2 &= ~(ADC_CR2_CONT);
 8001efe:	687b      	ldr	r3, [r7, #4]
 8001f00:	681b      	ldr	r3, [r3, #0]
 8001f02:	689a      	ldr	r2, [r3, #8]
 8001f04:	687b      	ldr	r3, [r7, #4]
 8001f06:	681b      	ldr	r3, [r3, #0]
 8001f08:	f022 0202 	bic.w	r2, r2, #2
 8001f0c:	609a      	str	r2, [r3, #8]
  hadc->Instance->CR2 |= ADC_CR2_CONTINUOUS((uint32_t)hadc->Init.ContinuousConvMode);
 8001f0e:	687b      	ldr	r3, [r7, #4]
 8001f10:	681b      	ldr	r3, [r3, #0]
 8001f12:	6899      	ldr	r1, [r3, #8]
 8001f14:	687b      	ldr	r3, [r7, #4]
 8001f16:	7e1b      	ldrb	r3, [r3, #24]
 8001f18:	005a      	lsls	r2, r3, #1
 8001f1a:	687b      	ldr	r3, [r7, #4]
 8001f1c:	681b      	ldr	r3, [r3, #0]
 8001f1e:	430a      	orrs	r2, r1
 8001f20:	609a      	str	r2, [r3, #8]
  
  if(hadc->Init.DiscontinuousConvMode != DISABLE)
 8001f22:	687b      	ldr	r3, [r7, #4]
 8001f24:	f893 3020 	ldrb.w	r3, [r3, #32]
 8001f28:	2b00      	cmp	r3, #0
 8001f2a:	d01b      	beq.n	8001f64 <ADC_Init+0x164>
  {
    assert_param(IS_ADC_REGULAR_DISC_NUMBER(hadc->Init.NbrOfDiscConversion));
  
    /* Enable the selected ADC regular discontinuous mode */
    hadc->Instance->CR1 |= (uint32_t)ADC_CR1_DISCEN;
 8001f2c:	687b      	ldr	r3, [r7, #4]
 8001f2e:	681b      	ldr	r3, [r3, #0]
 8001f30:	685a      	ldr	r2, [r3, #4]
 8001f32:	687b      	ldr	r3, [r7, #4]
 8001f34:	681b      	ldr	r3, [r3, #0]
 8001f36:	f442 6200 	orr.w	r2, r2, #2048	; 0x800
 8001f3a:	605a      	str	r2, [r3, #4]
    
    /* Set the number of channels to be converted in discontinuous mode */
    hadc->Instance->CR1 &= ~(ADC_CR1_DISCNUM);
 8001f3c:	687b      	ldr	r3, [r7, #4]
 8001f3e:	681b      	ldr	r3, [r3, #0]
 8001f40:	685a      	ldr	r2, [r3, #4]
 8001f42:	687b      	ldr	r3, [r7, #4]
 8001f44:	681b      	ldr	r3, [r3, #0]
 8001f46:	f422 4260 	bic.w	r2, r2, #57344	; 0xe000
 8001f4a:	605a      	str	r2, [r3, #4]
    hadc->Instance->CR1 |=  ADC_CR1_DISCONTINUOUS(hadc->Init.NbrOfDiscConversion);
 8001f4c:	687b      	ldr	r3, [r7, #4]
 8001f4e:	681b      	ldr	r3, [r3, #0]
 8001f50:	6859      	ldr	r1, [r3, #4]
 8001f52:	687b      	ldr	r3, [r7, #4]
 8001f54:	6a5b      	ldr	r3, [r3, #36]	; 0x24
 8001f56:	3b01      	subs	r3, #1
 8001f58:	035a      	lsls	r2, r3, #13
 8001f5a:	687b      	ldr	r3, [r7, #4]
 8001f5c:	681b      	ldr	r3, [r3, #0]
 8001f5e:	430a      	orrs	r2, r1
 8001f60:	605a      	str	r2, [r3, #4]
 8001f62:	e007      	b.n	8001f74 <ADC_Init+0x174>
  }
  else
  {
    /* Disable the selected ADC regular discontinuous mode */
    hadc->Instance->CR1 &= ~(ADC_CR1_DISCEN);
 8001f64:	687b      	ldr	r3, [r7, #4]
 8001f66:	681b      	ldr	r3, [r3, #0]
 8001f68:	685a      	ldr	r2, [r3, #4]
 8001f6a:	687b      	ldr	r3, [r7, #4]
 8001f6c:	681b      	ldr	r3, [r3, #0]
 8001f6e:	f422 6200 	bic.w	r2, r2, #2048	; 0x800
 8001f72:	605a      	str	r2, [r3, #4]
  }
  
  /* Set ADC number of conversion */
  hadc->Instance->SQR1 &= ~(ADC_SQR1_L);
 8001f74:	687b      	ldr	r3, [r7, #4]
 8001f76:	681b      	ldr	r3, [r3, #0]
 8001f78:	6ada      	ldr	r2, [r3, #44]	; 0x2c
 8001f7a:	687b      	ldr	r3, [r7, #4]
 8001f7c:	681b      	ldr	r3, [r3, #0]
 8001f7e:	f422 0270 	bic.w	r2, r2, #15728640	; 0xf00000
 8001f82:	62da      	str	r2, [r3, #44]	; 0x2c
  hadc->Instance->SQR1 |=  ADC_SQR1(hadc->Init.NbrOfConversion);
 8001f84:	687b      	ldr	r3, [r7, #4]
 8001f86:	681b      	ldr	r3, [r3, #0]
 8001f88:	6ad9      	ldr	r1, [r3, #44]	; 0x2c
 8001f8a:	687b      	ldr	r3, [r7, #4]
 8001f8c:	69db      	ldr	r3, [r3, #28]
 8001f8e:	3b01      	subs	r3, #1
 8001f90:	051a      	lsls	r2, r3, #20
 8001f92:	687b      	ldr	r3, [r7, #4]
 8001f94:	681b      	ldr	r3, [r3, #0]
 8001f96:	430a      	orrs	r2, r1
 8001f98:	62da      	str	r2, [r3, #44]	; 0x2c
  
  /* Enable or disable ADC DMA continuous request */
  hadc->Instance->CR2 &= ~(ADC_CR2_DDS);
 8001f9a:	687b      	ldr	r3, [r7, #4]
 8001f9c:	681b      	ldr	r3, [r3, #0]
 8001f9e:	689a      	ldr	r2, [r3, #8]
 8001fa0:	687b      	ldr	r3, [r7, #4]
 8001fa2:	681b      	ldr	r3, [r3, #0]
 8001fa4:	f422 7200 	bic.w	r2, r2, #512	; 0x200
 8001fa8:	609a      	str	r2, [r3, #8]
  hadc->Instance->CR2 |= ADC_CR2_DMAContReq((uint32_t)hadc->Init.DMAContinuousRequests);
 8001faa:	687b      	ldr	r3, [r7, #4]
 8001fac:	681b      	ldr	r3, [r3, #0]
 8001fae:	6899      	ldr	r1, [r3, #8]
 8001fb0:	687b      	ldr	r3, [r7, #4]
 8001fb2:	f893 3030 	ldrb.w	r3, [r3, #48]	; 0x30
 8001fb6:	025a      	lsls	r2, r3, #9
 8001fb8:	687b      	ldr	r3, [r7, #4]
 8001fba:	681b      	ldr	r3, [r3, #0]
 8001fbc:	430a      	orrs	r2, r1
 8001fbe:	609a      	str	r2, [r3, #8]
  
  /* Enable or disable ADC end of conversion selection */
  hadc->Instance->CR2 &= ~(ADC_CR2_EOCS);
 8001fc0:	687b      	ldr	r3, [r7, #4]
 8001fc2:	681b      	ldr	r3, [r3, #0]
 8001fc4:	689a      	ldr	r2, [r3, #8]
 8001fc6:	687b      	ldr	r3, [r7, #4]
 8001fc8:	681b      	ldr	r3, [r3, #0]
 8001fca:	f422 6280 	bic.w	r2, r2, #1024	; 0x400
 8001fce:	609a      	str	r2, [r3, #8]
  hadc->Instance->CR2 |= ADC_CR2_EOCSelection(hadc->Init.EOCSelection);
 8001fd0:	687b      	ldr	r3, [r7, #4]
 8001fd2:	681b      	ldr	r3, [r3, #0]
 8001fd4:	6899      	ldr	r1, [r3, #8]
 8001fd6:	687b      	ldr	r3, [r7, #4]
 8001fd8:	695b      	ldr	r3, [r3, #20]
 8001fda:	029a      	lsls	r2, r3, #10
 8001fdc:	687b      	ldr	r3, [r7, #4]
 8001fde:	681b      	ldr	r3, [r3, #0]
 8001fe0:	430a      	orrs	r2, r1
 8001fe2:	609a      	str	r2, [r3, #8]
}
 8001fe4:	bf00      	nop
 8001fe6:	3714      	adds	r7, #20
 8001fe8:	46bd      	mov	sp, r7
 8001fea:	f85d 7b04 	ldr.w	r7, [sp], #4
 8001fee:	4770      	bx	lr
 8001ff0:	40012300 	.word	0x40012300
 8001ff4:	0f000001 	.word	0x0f000001

08001ff8 <__NVIC_SetPriorityGrouping>:
           In case of a conflict between priority grouping and available
           priority bits (__NVIC_PRIO_BITS), the smallest possible priority group is set.
  \param [in]      PriorityGroup  Priority grouping field.
 */
__STATIC_INLINE void __NVIC_SetPriorityGrouping(uint32_t PriorityGroup)
{
 8001ff8:	b480      	push	{r7}
 8001ffa:	b085      	sub	sp, #20
 8001ffc:	af00      	add	r7, sp, #0
 8001ffe:	6078      	str	r0, [r7, #4]
  uint32_t reg_value;
  uint32_t PriorityGroupTmp = (PriorityGroup & (uint32_t)0x07UL);             /* only values 0..7 are used          */
 8002000:	687b      	ldr	r3, [r7, #4]
 8002002:	f003 0307 	and.w	r3, r3, #7
 8002006:	60fb      	str	r3, [r7, #12]

  reg_value  =  SCB->AIRCR;                                                   /* read old register configuration    */
 8002008:	4b0c      	ldr	r3, [pc, #48]	; (800203c <__NVIC_SetPriorityGrouping+0x44>)
 800200a:	68db      	ldr	r3, [r3, #12]
 800200c:	60bb      	str	r3, [r7, #8]
  reg_value &= ~((uint32_t)(SCB_AIRCR_VECTKEY_Msk | SCB_AIRCR_PRIGROUP_Msk)); /* clear bits to change               */
 800200e:	68ba      	ldr	r2, [r7, #8]
 8002010:	f64f 03ff 	movw	r3, #63743	; 0xf8ff
 8002014:	4013      	ands	r3, r2
 8002016:	60bb      	str	r3, [r7, #8]
  reg_value  =  (reg_value                                   |
                ((uint32_t)0x5FAUL << SCB_AIRCR_VECTKEY_Pos) |
                (PriorityGroupTmp << SCB_AIRCR_PRIGROUP_Pos)  );              /* Insert write key and priority group */
 8002018:	68fb      	ldr	r3, [r7, #12]
 800201a:	021a      	lsls	r2, r3, #8
                ((uint32_t)0x5FAUL << SCB_AIRCR_VECTKEY_Pos) |
 800201c:	68bb      	ldr	r3, [r7, #8]
 800201e:	4313      	orrs	r3, r2
  reg_value  =  (reg_value                                   |
 8002020:	f043 63bf 	orr.w	r3, r3, #100139008	; 0x5f80000
 8002024:	f443 3300 	orr.w	r3, r3, #131072	; 0x20000
 8002028:	60bb      	str	r3, [r7, #8]
  SCB->AIRCR =  reg_value;
 800202a:	4a04      	ldr	r2, [pc, #16]	; (800203c <__NVIC_SetPriorityGrouping+0x44>)
 800202c:	68bb      	ldr	r3, [r7, #8]
 800202e:	60d3      	str	r3, [r2, #12]
}
 8002030:	bf00      	nop
 8002032:	3714      	adds	r7, #20
 8002034:	46bd      	mov	sp, r7
 8002036:	f85d 7b04 	ldr.w	r7, [sp], #4
 800203a:	4770      	bx	lr
 800203c:	e000ed00 	.word	0xe000ed00

08002040 <__NVIC_GetPriorityGrouping>:
  \brief   Get Priority Grouping
  \details Reads the priority grouping field from the NVIC Interrupt Controller.
  \return                Priority grouping field (SCB->AIRCR [10:8] PRIGROUP field).
 */
__STATIC_INLINE uint32_t __NVIC_GetPriorityGrouping(void)
{
 8002040:	b480      	push	{r7}
 8002042:	af00      	add	r7, sp, #0
  return ((uint32_t)((SCB->AIRCR & SCB_AIRCR_PRIGROUP_Msk) >> SCB_AIRCR_PRIGROUP_Pos));
 8002044:	4b04      	ldr	r3, [pc, #16]	; (8002058 <__NVIC_GetPriorityGrouping+0x18>)
 8002046:	68db      	ldr	r3, [r3, #12]
 8002048:	0a1b      	lsrs	r3, r3, #8
 800204a:	f003 0307 	and.w	r3, r3, #7
}
 800204e:	4618      	mov	r0, r3
 8002050:	46bd      	mov	sp, r7
 8002052:	f85d 7b04 	ldr.w	r7, [sp], #4
 8002056:	4770      	bx	lr
 8002058:	e000ed00 	.word	0xe000ed00

0800205c <__NVIC_EnableIRQ>:
  \details Enables a device specific interrupt in the NVIC interrupt controller.
  \param [in]      IRQn  Device specific interrupt number.
  \note    IRQn must not be negative.
 */
__STATIC_INLINE void __NVIC_EnableIRQ(IRQn_Type IRQn)
{
 800205c:	b480      	push	{r7}
 800205e:	b083      	sub	sp, #12
 8002060:	af00      	add	r7, sp, #0
 8002062:	4603      	mov	r3, r0
 8002064:	71fb      	strb	r3, [r7, #7]
  if ((int32_t)(IRQn) >= 0)
 8002066:	f997 3007 	ldrsb.w	r3, [r7, #7]
 800206a:	2b00      	cmp	r3, #0
 800206c:	db0b      	blt.n	8002086 <__NVIC_EnableIRQ+0x2a>
  {
    NVIC->ISER[(((uint32_t)IRQn) >> 5UL)] = (uint32_t)(1UL << (((uint32_t)IRQn) & 0x1FUL));
 800206e:	79fb      	ldrb	r3, [r7, #7]
 8002070:	f003 021f 	and.w	r2, r3, #31
 8002074:	4907      	ldr	r1, [pc, #28]	; (8002094 <__NVIC_EnableIRQ+0x38>)
 8002076:	f997 3007 	ldrsb.w	r3, [r7, #7]
 800207a:	095b      	lsrs	r3, r3, #5
 800207c:	2001      	movs	r0, #1
 800207e:	fa00 f202 	lsl.w	r2, r0, r2
 8002082:	f841 2023 	str.w	r2, [r1, r3, lsl #2]
  }
}
 8002086:	bf00      	nop
 8002088:	370c      	adds	r7, #12
 800208a:	46bd      	mov	sp, r7
 800208c:	f85d 7b04 	ldr.w	r7, [sp], #4
 8002090:	4770      	bx	lr
 8002092:	bf00      	nop
 8002094:	e000e100 	.word	0xe000e100

08002098 <__NVIC_SetPriority>:
  \param [in]      IRQn  Interrupt number.
  \param [in]  priority  Priority to set.
  \note    The priority cannot be set for every processor exception.
 */
__STATIC_INLINE void __NVIC_SetPriority(IRQn_Type IRQn, uint32_t priority)
{
 8002098:	b480      	push	{r7}
 800209a:	b083      	sub	sp, #12
 800209c:	af00      	add	r7, sp, #0
 800209e:	4603      	mov	r3, r0
 80020a0:	6039      	str	r1, [r7, #0]
 80020a2:	71fb      	strb	r3, [r7, #7]
  if ((int32_t)(IRQn) >= 0)
 80020a4:	f997 3007 	ldrsb.w	r3, [r7, #7]
 80020a8:	2b00      	cmp	r3, #0
 80020aa:	db0a      	blt.n	80020c2 <__NVIC_SetPriority+0x2a>
  {
    NVIC->IP[((uint32_t)IRQn)]               = (uint8_t)((priority << (8U - __NVIC_PRIO_BITS)) & (uint32_t)0xFFUL);
 80020ac:	683b      	ldr	r3, [r7, #0]
 80020ae:	b2da      	uxtb	r2, r3
 80020b0:	490c      	ldr	r1, [pc, #48]	; (80020e4 <__NVIC_SetPriority+0x4c>)
 80020b2:	f997 3007 	ldrsb.w	r3, [r7, #7]
 80020b6:	0112      	lsls	r2, r2, #4
 80020b8:	b2d2      	uxtb	r2, r2
 80020ba:	440b      	add	r3, r1
 80020bc:	f883 2300 	strb.w	r2, [r3, #768]	; 0x300
  }
  else
  {
    SCB->SHP[(((uint32_t)IRQn) & 0xFUL)-4UL] = (uint8_t)((priority << (8U - __NVIC_PRIO_BITS)) & (uint32_t)0xFFUL);
  }
}
 80020c0:	e00a      	b.n	80020d8 <__NVIC_SetPriority+0x40>
    SCB->SHP[(((uint32_t)IRQn) & 0xFUL)-4UL] = (uint8_t)((priority << (8U - __NVIC_PRIO_BITS)) & (uint32_t)0xFFUL);
 80020c2:	683b      	ldr	r3, [r7, #0]
 80020c4:	b2da      	uxtb	r2, r3
 80020c6:	4908      	ldr	r1, [pc, #32]	; (80020e8 <__NVIC_SetPriority+0x50>)
 80020c8:	79fb      	ldrb	r3, [r7, #7]
 80020ca:	f003 030f 	and.w	r3, r3, #15
 80020ce:	3b04      	subs	r3, #4
 80020d0:	0112      	lsls	r2, r2, #4
 80020d2:	b2d2      	uxtb	r2, r2
 80020d4:	440b      	add	r3, r1
 80020d6:	761a      	strb	r2, [r3, #24]
}
 80020d8:	bf00      	nop
 80020da:	370c      	adds	r7, #12
 80020dc:	46bd      	mov	sp, r7
 80020de:	f85d 7b04 	ldr.w	r7, [sp], #4
 80020e2:	4770      	bx	lr
 80020e4:	e000e100 	.word	0xe000e100
 80020e8:	e000ed00 	.word	0xe000ed00

080020ec <NVIC_EncodePriority>:
  \param [in]   PreemptPriority  Preemptive priority value (starting from 0).
  \param [in]       SubPriority  Subpriority value (starting from 0).
  \return                        Encoded priority. Value can be used in the function \ref NVIC_SetPriority().
 */
__STATIC_INLINE uint32_t NVIC_EncodePriority (uint32_t PriorityGroup, uint32_t PreemptPriority, uint32_t SubPriority)
{
 80020ec:	b480      	push	{r7}
 80020ee:	b089      	sub	sp, #36	; 0x24
 80020f0:	af00      	add	r7, sp, #0
 80020f2:	60f8      	str	r0, [r7, #12]
 80020f4:	60b9      	str	r1, [r7, #8]
 80020f6:	607a      	str	r2, [r7, #4]
  uint32_t PriorityGroupTmp = (PriorityGroup & (uint32_t)0x07UL);   /* only values 0..7 are used          */
 80020f8:	68fb      	ldr	r3, [r7, #12]
 80020fa:	f003 0307 	and.w	r3, r3, #7
 80020fe:	61fb      	str	r3, [r7, #28]
  uint32_t PreemptPriorityBits;
  uint32_t SubPriorityBits;

  PreemptPriorityBits = ((7UL - PriorityGroupTmp) > (uint32_t)(__NVIC_PRIO_BITS)) ? (uint32_t)(__NVIC_PRIO_BITS) : (uint32_t)(7UL - PriorityGroupTmp);
 8002100:	69fb      	ldr	r3, [r7, #28]
 8002102:	f1c3 0307 	rsb	r3, r3, #7
 8002106:	2b04      	cmp	r3, #4
 8002108:	bf28      	it	cs
 800210a:	2304      	movcs	r3, #4
 800210c:	61bb      	str	r3, [r7, #24]
  SubPriorityBits     = ((PriorityGroupTmp + (uint32_t)(__NVIC_PRIO_BITS)) < (uint32_t)7UL) ? (uint32_t)0UL : (uint32_t)((PriorityGroupTmp - 7UL) + (uint32_t)(__NVIC_PRIO_BITS));
 800210e:	69fb      	ldr	r3, [r7, #28]
 8002110:	3304      	adds	r3, #4
 8002112:	2b06      	cmp	r3, #6
 8002114:	d902      	bls.n	800211c <NVIC_EncodePriority+0x30>
 8002116:	69fb      	ldr	r3, [r7, #28]
 8002118:	3b03      	subs	r3, #3
 800211a:	e000      	b.n	800211e <NVIC_EncodePriority+0x32>
 800211c:	2300      	movs	r3, #0
 800211e:	617b      	str	r3, [r7, #20]

  return (
           ((PreemptPriority & (uint32_t)((1UL << (PreemptPriorityBits)) - 1UL)) << SubPriorityBits) |
 8002120:	f04f 32ff 	mov.w	r2, #4294967295	; 0xffffffff
 8002124:	69bb      	ldr	r3, [r7, #24]
 8002126:	fa02 f303 	lsl.w	r3, r2, r3
 800212a:	43da      	mvns	r2, r3
 800212c:	68bb      	ldr	r3, [r7, #8]
 800212e:	401a      	ands	r2, r3
 8002130:	697b      	ldr	r3, [r7, #20]
 8002132:	409a      	lsls	r2, r3
           ((SubPriority     & (uint32_t)((1UL << (SubPriorityBits    )) - 1UL)))
 8002134:	f04f 31ff 	mov.w	r1, #4294967295	; 0xffffffff
 8002138:	697b      	ldr	r3, [r7, #20]
 800213a:	fa01 f303 	lsl.w	r3, r1, r3
 800213e:	43d9      	mvns	r1, r3
 8002140:	687b      	ldr	r3, [r7, #4]
 8002142:	400b      	ands	r3, r1
           ((PreemptPriority & (uint32_t)((1UL << (PreemptPriorityBits)) - 1UL)) << SubPriorityBits) |
 8002144:	4313      	orrs	r3, r2
         );
}
 8002146:	4618      	mov	r0, r3
 8002148:	3724      	adds	r7, #36	; 0x24
 800214a:	46bd      	mov	sp, r7
 800214c:	f85d 7b04 	ldr.w	r7, [sp], #4
 8002150:	4770      	bx	lr
	...

08002154 <SysTick_Config>:
  \note    When the variable <b>__Vendor_SysTickConfig</b> is set to 1, then the
           function <b>SysTick_Config</b> is not included. In this case, the file <b><i>device</i>.h</b>
           must contain a vendor-specific implementation of this function.
 */
__STATIC_INLINE uint32_t SysTick_Config(uint32_t ticks)
{
 8002154:	b580      	push	{r7, lr}
 8002156:	b082      	sub	sp, #8
 8002158:	af00      	add	r7, sp, #0
 800215a:	6078      	str	r0, [r7, #4]
  if ((ticks - 1UL) > SysTick_LOAD_RELOAD_Msk)
 800215c:	687b      	ldr	r3, [r7, #4]
 800215e:	3b01      	subs	r3, #1
 8002160:	f1b3 7f80 	cmp.w	r3, #16777216	; 0x1000000
 8002164:	d301      	bcc.n	800216a <SysTick_Config+0x16>
  {
    return (1UL);                                                   /* Reload value impossible */
 8002166:	2301      	movs	r3, #1
 8002168:	e00f      	b.n	800218a <SysTick_Config+0x36>
  }

  SysTick->LOAD  = (uint32_t)(ticks - 1UL);                         /* set reload register */
 800216a:	4a0a      	ldr	r2, [pc, #40]	; (8002194 <SysTick_Config+0x40>)
 800216c:	687b      	ldr	r3, [r7, #4]
 800216e:	3b01      	subs	r3, #1
 8002170:	6053      	str	r3, [r2, #4]
  NVIC_SetPriority (SysTick_IRQn, (1UL << __NVIC_PRIO_BITS) - 1UL); /* set Priority for Systick Interrupt */
 8002172:	210f      	movs	r1, #15
 8002174:	f04f 30ff 	mov.w	r0, #4294967295	; 0xffffffff
 8002178:	f7ff ff8e 	bl	8002098 <__NVIC_SetPriority>
  SysTick->VAL   = 0UL;                                             /* Load the SysTick Counter Value */
 800217c:	4b05      	ldr	r3, [pc, #20]	; (8002194 <SysTick_Config+0x40>)
 800217e:	2200      	movs	r2, #0
 8002180:	609a      	str	r2, [r3, #8]
  SysTick->CTRL  = SysTick_CTRL_CLKSOURCE_Msk |
 8002182:	4b04      	ldr	r3, [pc, #16]	; (8002194 <SysTick_Config+0x40>)
 8002184:	2207      	movs	r2, #7
 8002186:	601a      	str	r2, [r3, #0]
                   SysTick_CTRL_TICKINT_Msk   |
                   SysTick_CTRL_ENABLE_Msk;                         /* Enable SysTick IRQ and SysTick Timer */
  return (0UL);                                                     /* Function successful */
 8002188:	2300      	movs	r3, #0
}
 800218a:	4618      	mov	r0, r3
 800218c:	3708      	adds	r7, #8
 800218e:	46bd      	mov	sp, r7
 8002190:	bd80      	pop	{r7, pc}
 8002192:	bf00      	nop
 8002194:	e000e010 	.word	0xe000e010

08002198 <HAL_NVIC_SetPriorityGrouping>:
  * @note   When the NVIC_PriorityGroup_0 is selected, IRQ preemption is no more possible. 
  *         The pending IRQ priority will be managed only by the subpriority. 
  * @retval None
  */
void HAL_NVIC_SetPriorityGrouping(uint32_t PriorityGroup)
{
 8002198:	b580      	push	{r7, lr}
 800219a:	b082      	sub	sp, #8
 800219c:	af00      	add	r7, sp, #0
 800219e:	6078      	str	r0, [r7, #4]
  /* Check the parameters */
  assert_param(IS_NVIC_PRIORITY_GROUP(PriorityGroup));
  
  /* Set the PRIGROUP[10:8] bits according to the PriorityGroup parameter value */
  NVIC_SetPriorityGrouping(PriorityGroup);
 80021a0:	6878      	ldr	r0, [r7, #4]
 80021a2:	f7ff ff29 	bl	8001ff8 <__NVIC_SetPriorityGrouping>
}
 80021a6:	bf00      	nop
 80021a8:	3708      	adds	r7, #8
 80021aa:	46bd      	mov	sp, r7
 80021ac:	bd80      	pop	{r7, pc}

080021ae <HAL_NVIC_SetPriority>:
  *         This parameter can be a value between 0 and 15
  *         A lower priority value indicates a higher priority.          
  * @retval None
  */
void HAL_NVIC_SetPriority(IRQn_Type IRQn, uint32_t PreemptPriority, uint32_t SubPriority)
{ 
 80021ae:	b580      	push	{r7, lr}
 80021b0:	b086      	sub	sp, #24
 80021b2:	af00      	add	r7, sp, #0
 80021b4:	4603      	mov	r3, r0
 80021b6:	60b9      	str	r1, [r7, #8]
 80021b8:	607a      	str	r2, [r7, #4]
 80021ba:	73fb      	strb	r3, [r7, #15]
  uint32_t prioritygroup = 0x00U;
 80021bc:	2300      	movs	r3, #0
 80021be:	617b      	str	r3, [r7, #20]
  
  /* Check the parameters */
  assert_param(IS_NVIC_SUB_PRIORITY(SubPriority));
  assert_param(IS_NVIC_PREEMPTION_PRIORITY(PreemptPriority));
  
  prioritygroup = NVIC_GetPriorityGrouping();
 80021c0:	f7ff ff3e 	bl	8002040 <__NVIC_GetPriorityGrouping>
 80021c4:	6178      	str	r0, [r7, #20]
  
  NVIC_SetPriority(IRQn, NVIC_EncodePriority(prioritygroup, PreemptPriority, SubPriority));
 80021c6:	687a      	ldr	r2, [r7, #4]
 80021c8:	68b9      	ldr	r1, [r7, #8]
 80021ca:	6978      	ldr	r0, [r7, #20]
 80021cc:	f7ff ff8e 	bl	80020ec <NVIC_EncodePriority>
 80021d0:	4602      	mov	r2, r0
 80021d2:	f997 300f 	ldrsb.w	r3, [r7, #15]
 80021d6:	4611      	mov	r1, r2
 80021d8:	4618      	mov	r0, r3
 80021da:	f7ff ff5d 	bl	8002098 <__NVIC_SetPriority>
}
 80021de:	bf00      	nop
 80021e0:	3718      	adds	r7, #24
 80021e2:	46bd      	mov	sp, r7
 80021e4:	bd80      	pop	{r7, pc}

080021e6 <HAL_NVIC_EnableIRQ>:
  *         This parameter can be an enumerator of IRQn_Type enumeration
  *         (For the complete STM32 Devices IRQ Channels list, please refer to the appropriate CMSIS device file (stm32f4xxxx.h))
  * @retval None
  */
void HAL_NVIC_EnableIRQ(IRQn_Type IRQn)
{
 80021e6:	b580      	push	{r7, lr}
 80021e8:	b082      	sub	sp, #8
 80021ea:	af00      	add	r7, sp, #0
 80021ec:	4603      	mov	r3, r0
 80021ee:	71fb      	strb	r3, [r7, #7]
  /* Check the parameters */
  assert_param(IS_NVIC_DEVICE_IRQ(IRQn));
  
  /* Enable interrupt */
  NVIC_EnableIRQ(IRQn);
 80021f0:	f997 3007 	ldrsb.w	r3, [r7, #7]
 80021f4:	4618      	mov	r0, r3
 80021f6:	f7ff ff31 	bl	800205c <__NVIC_EnableIRQ>
}
 80021fa:	bf00      	nop
 80021fc:	3708      	adds	r7, #8
 80021fe:	46bd      	mov	sp, r7
 8002200:	bd80      	pop	{r7, pc}

08002202 <HAL_SYSTICK_Config>:
  * @param  TicksNumb Specifies the ticks Number of ticks between two interrupts.
  * @retval status:  - 0  Function succeeded.
  *                  - 1  Function failed.
  */
uint32_t HAL_SYSTICK_Config(uint32_t TicksNumb)
{
 8002202:	b580      	push	{r7, lr}
 8002204:	b082      	sub	sp, #8
 8002206:	af00      	add	r7, sp, #0
 8002208:	6078      	str	r0, [r7, #4]
   return SysTick_Config(TicksNumb);
 800220a:	6878      	ldr	r0, [r7, #4]
 800220c:	f7ff ffa2 	bl	8002154 <SysTick_Config>
 8002210:	4603      	mov	r3, r0
}
 8002212:	4618      	mov	r0, r3
 8002214:	3708      	adds	r7, #8
 8002216:	46bd      	mov	sp, r7
 8002218:	bd80      	pop	{r7, pc}
	...

0800221c <HAL_GPIO_Init>:
  * @param  GPIO_Init pointer to a GPIO_InitTypeDef structure that contains
  *         the configuration information for the specified GPIO peripheral.
  * @retval None
  */
void HAL_GPIO_Init(GPIO_TypeDef  *GPIOx, GPIO_InitTypeDef *GPIO_Init)
{
 800221c:	b480      	push	{r7}
 800221e:	b089      	sub	sp, #36	; 0x24
 8002220:	af00      	add	r7, sp, #0
 8002222:	6078      	str	r0, [r7, #4]
 8002224:	6039      	str	r1, [r7, #0]
  uint32_t position;
  uint32_t ioposition = 0x00U;
 8002226:	2300      	movs	r3, #0
 8002228:	617b      	str	r3, [r7, #20]
  uint32_t iocurrent = 0x00U;
 800222a:	2300      	movs	r3, #0
 800222c:	613b      	str	r3, [r7, #16]
  uint32_t temp = 0x00U;
 800222e:	2300      	movs	r3, #0
 8002230:	61bb      	str	r3, [r7, #24]
  assert_param(IS_GPIO_ALL_INSTANCE(GPIOx));
  assert_param(IS_GPIO_PIN(GPIO_Init->Pin));
  assert_param(IS_GPIO_MODE(GPIO_Init->Mode));

  /* Configure the port pins */
  for(position = 0U; position < GPIO_NUMBER; position++)
 8002232:	2300      	movs	r3, #0
 8002234:	61fb      	str	r3, [r7, #28]
 8002236:	e16b      	b.n	8002510 <HAL_GPIO_Init+0x2f4>
  {
    /* Get the IO position */
    ioposition = 0x01U << position;
 8002238:	2201      	movs	r2, #1
 800223a:	69fb      	ldr	r3, [r7, #28]
 800223c:	fa02 f303 	lsl.w	r3, r2, r3
 8002240:	617b      	str	r3, [r7, #20]
    /* Get the current IO position */
    iocurrent = (uint32_t)(GPIO_Init->Pin) & ioposition;
 8002242:	683b      	ldr	r3, [r7, #0]
 8002244:	681b      	ldr	r3, [r3, #0]
 8002246:	697a      	ldr	r2, [r7, #20]
 8002248:	4013      	ands	r3, r2
 800224a:	613b      	str	r3, [r7, #16]

    if(iocurrent == ioposition)
 800224c:	693a      	ldr	r2, [r7, #16]
 800224e:	697b      	ldr	r3, [r7, #20]
 8002250:	429a      	cmp	r2, r3
 8002252:	f040 815a 	bne.w	800250a <HAL_GPIO_Init+0x2ee>
    {
      /*--------------------- GPIO Mode Configuration ------------------------*/
      /* In case of Output or Alternate function mode selection */
      if(((GPIO_Init->Mode & GPIO_MODE) == MODE_OUTPUT) || \
 8002256:	683b      	ldr	r3, [r7, #0]
 8002258:	685b      	ldr	r3, [r3, #4]
 800225a:	f003 0303 	and.w	r3, r3, #3
 800225e:	2b01      	cmp	r3, #1
 8002260:	d005      	beq.n	800226e <HAL_GPIO_Init+0x52>
          (GPIO_Init->Mode & GPIO_MODE) == MODE_AF)
 8002262:	683b      	ldr	r3, [r7, #0]
 8002264:	685b      	ldr	r3, [r3, #4]
 8002266:	f003 0303 	and.w	r3, r3, #3
      if(((GPIO_Init->Mode & GPIO_MODE) == MODE_OUTPUT) || \
 800226a:	2b02      	cmp	r3, #2
 800226c:	d130      	bne.n	80022d0 <HAL_GPIO_Init+0xb4>
      {
        /* Check the Speed parameter */
        assert_param(IS_GPIO_SPEED(GPIO_Init->Speed));
        /* Configure the IO Speed */
        temp = GPIOx->OSPEEDR; 
 800226e:	687b      	ldr	r3, [r7, #4]
 8002270:	689b      	ldr	r3, [r3, #8]
 8002272:	61bb      	str	r3, [r7, #24]
        temp &= ~(GPIO_OSPEEDER_OSPEEDR0 << (position * 2U));
 8002274:	69fb      	ldr	r3, [r7, #28]
 8002276:	005b      	lsls	r3, r3, #1
 8002278:	2203      	movs	r2, #3
 800227a:	fa02 f303 	lsl.w	r3, r2, r3
 800227e:	43db      	mvns	r3, r3
 8002280:	69ba      	ldr	r2, [r7, #24]
 8002282:	4013      	ands	r3, r2
 8002284:	61bb      	str	r3, [r7, #24]
        temp |= (GPIO_Init->Speed << (position * 2U));
 8002286:	683b      	ldr	r3, [r7, #0]
 8002288:	68da      	ldr	r2, [r3, #12]
 800228a:	69fb      	ldr	r3, [r7, #28]
 800228c:	005b      	lsls	r3, r3, #1
 800228e:	fa02 f303 	lsl.w	r3, r2, r3
 8002292:	69ba      	ldr	r2, [r7, #24]
 8002294:	4313      	orrs	r3, r2
 8002296:	61bb      	str	r3, [r7, #24]
        GPIOx->OSPEEDR = temp;
 8002298:	687b      	ldr	r3, [r7, #4]
 800229a:	69ba      	ldr	r2, [r7, #24]
 800229c:	609a      	str	r2, [r3, #8]

        /* Configure the IO Output Type */
        temp = GPIOx->OTYPER;
 800229e:	687b      	ldr	r3, [r7, #4]
 80022a0:	685b      	ldr	r3, [r3, #4]
 80022a2:	61bb      	str	r3, [r7, #24]
        temp &= ~(GPIO_OTYPER_OT_0 << position) ;
 80022a4:	2201      	movs	r2, #1
 80022a6:	69fb      	ldr	r3, [r7, #28]
 80022a8:	fa02 f303 	lsl.w	r3, r2, r3
 80022ac:	43db      	mvns	r3, r3
 80022ae:	69ba      	ldr	r2, [r7, #24]
 80022b0:	4013      	ands	r3, r2
 80022b2:	61bb      	str	r3, [r7, #24]
        temp |= (((GPIO_Init->Mode & OUTPUT_TYPE) >> OUTPUT_TYPE_Pos) << position);
 80022b4:	683b      	ldr	r3, [r7, #0]
 80022b6:	685b      	ldr	r3, [r3, #4]
 80022b8:	091b      	lsrs	r3, r3, #4
 80022ba:	f003 0201 	and.w	r2, r3, #1
 80022be:	69fb      	ldr	r3, [r7, #28]
 80022c0:	fa02 f303 	lsl.w	r3, r2, r3
 80022c4:	69ba      	ldr	r2, [r7, #24]
 80022c6:	4313      	orrs	r3, r2
 80022c8:	61bb      	str	r3, [r7, #24]
        GPIOx->OTYPER = temp;
 80022ca:	687b      	ldr	r3, [r7, #4]
 80022cc:	69ba      	ldr	r2, [r7, #24]
 80022ce:	605a      	str	r2, [r3, #4]
       }

      if((GPIO_Init->Mode & GPIO_MODE) != MODE_ANALOG)
 80022d0:	683b      	ldr	r3, [r7, #0]
 80022d2:	685b      	ldr	r3, [r3, #4]
 80022d4:	f003 0303 	and.w	r3, r3, #3
 80022d8:	2b03      	cmp	r3, #3
 80022da:	d017      	beq.n	800230c <HAL_GPIO_Init+0xf0>
      {
        /* Check the parameters */
        assert_param(IS_GPIO_PULL(GPIO_Init->Pull));
        
        /* Activate the Pull-up or Pull down resistor for the current IO */
        temp = GPIOx->PUPDR;
 80022dc:	687b      	ldr	r3, [r7, #4]
 80022de:	68db      	ldr	r3, [r3, #12]
 80022e0:	61bb      	str	r3, [r7, #24]
        temp &= ~(GPIO_PUPDR_PUPDR0 << (position * 2U));
 80022e2:	69fb      	ldr	r3, [r7, #28]
 80022e4:	005b      	lsls	r3, r3, #1
 80022e6:	2203      	movs	r2, #3
 80022e8:	fa02 f303 	lsl.w	r3, r2, r3
 80022ec:	43db      	mvns	r3, r3
 80022ee:	69ba      	ldr	r2, [r7, #24]
 80022f0:	4013      	ands	r3, r2
 80022f2:	61bb      	str	r3, [r7, #24]
        temp |= ((GPIO_Init->Pull) << (position * 2U));
 80022f4:	683b      	ldr	r3, [r7, #0]
 80022f6:	689a      	ldr	r2, [r3, #8]
 80022f8:	69fb      	ldr	r3, [r7, #28]
 80022fa:	005b      	lsls	r3, r3, #1
 80022fc:	fa02 f303 	lsl.w	r3, r2, r3
 8002300:	69ba      	ldr	r2, [r7, #24]
 8002302:	4313      	orrs	r3, r2
 8002304:	61bb      	str	r3, [r7, #24]
        GPIOx->PUPDR = temp;
 8002306:	687b      	ldr	r3, [r7, #4]
 8002308:	69ba      	ldr	r2, [r7, #24]
 800230a:	60da      	str	r2, [r3, #12]
      }

      /* In case of Alternate function mode selection */
      if((GPIO_Init->Mode & GPIO_MODE) == MODE_AF)
 800230c:	683b      	ldr	r3, [r7, #0]
 800230e:	685b      	ldr	r3, [r3, #4]
 8002310:	f003 0303 	and.w	r3, r3, #3
 8002314:	2b02      	cmp	r3, #2
 8002316:	d123      	bne.n	8002360 <HAL_GPIO_Init+0x144>
      {
        /* Check the Alternate function parameter */
        assert_param(IS_GPIO_AF(GPIO_Init->Alternate));
        /* Configure Alternate function mapped with the current IO */
        temp = GPIOx->AFR[position >> 3U];
 8002318:	69fb      	ldr	r3, [r7, #28]
 800231a:	08da      	lsrs	r2, r3, #3
 800231c:	687b      	ldr	r3, [r7, #4]
 800231e:	3208      	adds	r2, #8
 8002320:	f853 3022 	ldr.w	r3, [r3, r2, lsl #2]
 8002324:	61bb      	str	r3, [r7, #24]
        temp &= ~(0xFU << ((uint32_t)(position & 0x07U) * 4U)) ;
 8002326:	69fb      	ldr	r3, [r7, #28]
 8002328:	f003 0307 	and.w	r3, r3, #7
 800232c:	009b      	lsls	r3, r3, #2
 800232e:	220f      	movs	r2, #15
 8002330:	fa02 f303 	lsl.w	r3, r2, r3
 8002334:	43db      	mvns	r3, r3
 8002336:	69ba      	ldr	r2, [r7, #24]
 8002338:	4013      	ands	r3, r2
 800233a:	61bb      	str	r3, [r7, #24]
        temp |= ((uint32_t)(GPIO_Init->Alternate) << (((uint32_t)position & 0x07U) * 4U));
 800233c:	683b      	ldr	r3, [r7, #0]
 800233e:	691a      	ldr	r2, [r3, #16]
 8002340:	69fb      	ldr	r3, [r7, #28]
 8002342:	f003 0307 	and.w	r3, r3, #7
 8002346:	009b      	lsls	r3, r3, #2
 8002348:	fa02 f303 	lsl.w	r3, r2, r3
 800234c:	69ba      	ldr	r2, [r7, #24]
 800234e:	4313      	orrs	r3, r2
 8002350:	61bb      	str	r3, [r7, #24]
        GPIOx->AFR[position >> 3U] = temp;
 8002352:	69fb      	ldr	r3, [r7, #28]
 8002354:	08da      	lsrs	r2, r3, #3
 8002356:	687b      	ldr	r3, [r7, #4]
 8002358:	3208      	adds	r2, #8
 800235a:	69b9      	ldr	r1, [r7, #24]
 800235c:	f843 1022 	str.w	r1, [r3, r2, lsl #2]
      }

      /* Configure IO Direction mode (Input, Output, Alternate or Analog) */
      temp = GPIOx->MODER;
 8002360:	687b      	ldr	r3, [r7, #4]
 8002362:	681b      	ldr	r3, [r3, #0]
 8002364:	61bb      	str	r3, [r7, #24]
      temp &= ~(GPIO_MODER_MODER0 << (position * 2U));
 8002366:	69fb      	ldr	r3, [r7, #28]
 8002368:	005b      	lsls	r3, r3, #1
 800236a:	2203      	movs	r2, #3
 800236c:	fa02 f303 	lsl.w	r3, r2, r3
 8002370:	43db      	mvns	r3, r3
 8002372:	69ba      	ldr	r2, [r7, #24]
 8002374:	4013      	ands	r3, r2
 8002376:	61bb      	str	r3, [r7, #24]
      temp |= ((GPIO_Init->Mode & GPIO_MODE) << (position * 2U));
 8002378:	683b      	ldr	r3, [r7, #0]
 800237a:	685b      	ldr	r3, [r3, #4]
 800237c:	f003 0203 	and.w	r2, r3, #3
 8002380:	69fb      	ldr	r3, [r7, #28]
 8002382:	005b      	lsls	r3, r3, #1
 8002384:	fa02 f303 	lsl.w	r3, r2, r3
 8002388:	69ba      	ldr	r2, [r7, #24]
 800238a:	4313      	orrs	r3, r2
 800238c:	61bb      	str	r3, [r7, #24]
      GPIOx->MODER = temp;
 800238e:	687b      	ldr	r3, [r7, #4]
 8002390:	69ba      	ldr	r2, [r7, #24]
 8002392:	601a      	str	r2, [r3, #0]

      /*--------------------- EXTI Mode Configuration ------------------------*/
      /* Configure the External Interrupt or event for the current IO */
      if((GPIO_Init->Mode & EXTI_MODE) != 0x00U)
 8002394:	683b      	ldr	r3, [r7, #0]
 8002396:	685b      	ldr	r3, [r3, #4]
 8002398:	f403 3340 	and.w	r3, r3, #196608	; 0x30000
 800239c:	2b00      	cmp	r3, #0
 800239e:	f000 80b4 	beq.w	800250a <HAL_GPIO_Init+0x2ee>
      {
        /* Enable SYSCFG Clock */
        __HAL_RCC_SYSCFG_CLK_ENABLE();
 80023a2:	2300      	movs	r3, #0
 80023a4:	60fb      	str	r3, [r7, #12]
 80023a6:	4b60      	ldr	r3, [pc, #384]	; (8002528 <HAL_GPIO_Init+0x30c>)
 80023a8:	6c5b      	ldr	r3, [r3, #68]	; 0x44
 80023aa:	4a5f      	ldr	r2, [pc, #380]	; (8002528 <HAL_GPIO_Init+0x30c>)
 80023ac:	f443 4380 	orr.w	r3, r3, #16384	; 0x4000
 80023b0:	6453      	str	r3, [r2, #68]	; 0x44
 80023b2:	4b5d      	ldr	r3, [pc, #372]	; (8002528 <HAL_GPIO_Init+0x30c>)
 80023b4:	6c5b      	ldr	r3, [r3, #68]	; 0x44
 80023b6:	f403 4380 	and.w	r3, r3, #16384	; 0x4000
 80023ba:	60fb      	str	r3, [r7, #12]
 80023bc:	68fb      	ldr	r3, [r7, #12]

        temp = SYSCFG->EXTICR[position >> 2U];
 80023be:	4a5b      	ldr	r2, [pc, #364]	; (800252c <HAL_GPIO_Init+0x310>)
 80023c0:	69fb      	ldr	r3, [r7, #28]
 80023c2:	089b      	lsrs	r3, r3, #2
 80023c4:	3302      	adds	r3, #2
 80023c6:	f852 3023 	ldr.w	r3, [r2, r3, lsl #2]
 80023ca:	61bb      	str	r3, [r7, #24]
        temp &= ~(0x0FU << (4U * (position & 0x03U)));
 80023cc:	69fb      	ldr	r3, [r7, #28]
 80023ce:	f003 0303 	and.w	r3, r3, #3
 80023d2:	009b      	lsls	r3, r3, #2
 80023d4:	220f      	movs	r2, #15
 80023d6:	fa02 f303 	lsl.w	r3, r2, r3
 80023da:	43db      	mvns	r3, r3
 80023dc:	69ba      	ldr	r2, [r7, #24]
 80023de:	4013      	ands	r3, r2
 80023e0:	61bb      	str	r3, [r7, #24]
        temp |= ((uint32_t)(GPIO_GET_INDEX(GPIOx)) << (4U * (position & 0x03U)));
 80023e2:	687b      	ldr	r3, [r7, #4]
 80023e4:	4a52      	ldr	r2, [pc, #328]	; (8002530 <HAL_GPIO_Init+0x314>)
 80023e6:	4293      	cmp	r3, r2
 80023e8:	d02b      	beq.n	8002442 <HAL_GPIO_Init+0x226>
 80023ea:	687b      	ldr	r3, [r7, #4]
 80023ec:	4a51      	ldr	r2, [pc, #324]	; (8002534 <HAL_GPIO_Init+0x318>)
 80023ee:	4293      	cmp	r3, r2
 80023f0:	d025      	beq.n	800243e <HAL_GPIO_Init+0x222>
 80023f2:	687b      	ldr	r3, [r7, #4]
 80023f4:	4a50      	ldr	r2, [pc, #320]	; (8002538 <HAL_GPIO_Init+0x31c>)
 80023f6:	4293      	cmp	r3, r2
 80023f8:	d01f      	beq.n	800243a <HAL_GPIO_Init+0x21e>
 80023fa:	687b      	ldr	r3, [r7, #4]
 80023fc:	4a4f      	ldr	r2, [pc, #316]	; (800253c <HAL_GPIO_Init+0x320>)
 80023fe:	4293      	cmp	r3, r2
 8002400:	d019      	beq.n	8002436 <HAL_GPIO_Init+0x21a>
 8002402:	687b      	ldr	r3, [r7, #4]
 8002404:	4a4e      	ldr	r2, [pc, #312]	; (8002540 <HAL_GPIO_Init+0x324>)
 8002406:	4293      	cmp	r3, r2
 8002408:	d013      	beq.n	8002432 <HAL_GPIO_Init+0x216>
 800240a:	687b      	ldr	r3, [r7, #4]
 800240c:	4a4d      	ldr	r2, [pc, #308]	; (8002544 <HAL_GPIO_Init+0x328>)
 800240e:	4293      	cmp	r3, r2
 8002410:	d00d      	beq.n	800242e <HAL_GPIO_Init+0x212>
 8002412:	687b      	ldr	r3, [r7, #4]
 8002414:	4a4c      	ldr	r2, [pc, #304]	; (8002548 <HAL_GPIO_Init+0x32c>)
 8002416:	4293      	cmp	r3, r2
 8002418:	d007      	beq.n	800242a <HAL_GPIO_Init+0x20e>
 800241a:	687b      	ldr	r3, [r7, #4]
 800241c:	4a4b      	ldr	r2, [pc, #300]	; (800254c <HAL_GPIO_Init+0x330>)
 800241e:	4293      	cmp	r3, r2
 8002420:	d101      	bne.n	8002426 <HAL_GPIO_Init+0x20a>
 8002422:	2307      	movs	r3, #7
 8002424:	e00e      	b.n	8002444 <HAL_GPIO_Init+0x228>
 8002426:	2308      	movs	r3, #8
 8002428:	e00c      	b.n	8002444 <HAL_GPIO_Init+0x228>
 800242a:	2306      	movs	r3, #6
 800242c:	e00a      	b.n	8002444 <HAL_GPIO_Init+0x228>
 800242e:	2305      	movs	r3, #5
 8002430:	e008      	b.n	8002444 <HAL_GPIO_Init+0x228>
 8002432:	2304      	movs	r3, #4
 8002434:	e006      	b.n	8002444 <HAL_GPIO_Init+0x228>
 8002436:	2303      	movs	r3, #3
 8002438:	e004      	b.n	8002444 <HAL_GPIO_Init+0x228>
 800243a:	2302      	movs	r3, #2
 800243c:	e002      	b.n	8002444 <HAL_GPIO_Init+0x228>
 800243e:	2301      	movs	r3, #1
 8002440:	e000      	b.n	8002444 <HAL_GPIO_Init+0x228>
 8002442:	2300      	movs	r3, #0
 8002444:	69fa      	ldr	r2, [r7, #28]
 8002446:	f002 0203 	and.w	r2, r2, #3
 800244a:	0092      	lsls	r2, r2, #2
 800244c:	4093      	lsls	r3, r2
 800244e:	69ba      	ldr	r2, [r7, #24]
 8002450:	4313      	orrs	r3, r2
 8002452:	61bb      	str	r3, [r7, #24]
        SYSCFG->EXTICR[position >> 2U] = temp;
 8002454:	4935      	ldr	r1, [pc, #212]	; (800252c <HAL_GPIO_Init+0x310>)
 8002456:	69fb      	ldr	r3, [r7, #28]
 8002458:	089b      	lsrs	r3, r3, #2
 800245a:	3302      	adds	r3, #2
 800245c:	69ba      	ldr	r2, [r7, #24]
 800245e:	f841 2023 	str.w	r2, [r1, r3, lsl #2]

        /* Clear EXTI line configuration */
        temp = EXTI->IMR;
 8002462:	4b3b      	ldr	r3, [pc, #236]	; (8002550 <HAL_GPIO_Init+0x334>)
 8002464:	681b      	ldr	r3, [r3, #0]
 8002466:	61bb      	str	r3, [r7, #24]
        temp &= ~((uint32_t)iocurrent);
 8002468:	693b      	ldr	r3, [r7, #16]
 800246a:	43db      	mvns	r3, r3
 800246c:	69ba      	ldr	r2, [r7, #24]
 800246e:	4013      	ands	r3, r2
 8002470:	61bb      	str	r3, [r7, #24]
        if((GPIO_Init->Mode & EXTI_IT) != 0x00U)
 8002472:	683b      	ldr	r3, [r7, #0]
 8002474:	685b      	ldr	r3, [r3, #4]
 8002476:	f403 3380 	and.w	r3, r3, #65536	; 0x10000
 800247a:	2b00      	cmp	r3, #0
 800247c:	d003      	beq.n	8002486 <HAL_GPIO_Init+0x26a>
        {
          temp |= iocurrent;
 800247e:	69ba      	ldr	r2, [r7, #24]
 8002480:	693b      	ldr	r3, [r7, #16]
 8002482:	4313      	orrs	r3, r2
 8002484:	61bb      	str	r3, [r7, #24]
        }
        EXTI->IMR = temp;
 8002486:	4a32      	ldr	r2, [pc, #200]	; (8002550 <HAL_GPIO_Init+0x334>)
 8002488:	69bb      	ldr	r3, [r7, #24]
 800248a:	6013      	str	r3, [r2, #0]

        temp = EXTI->EMR;
